:020000021000EC
:10C000000000012069C5010091C5010093C5010030
:10C0100095C5010097C5010099C501000000000009
:10C020000000000000000000000000009BC50100AF
:10C030009DC50100000000009FC50100A1C50100D1
:10C04000A3C50100A3C5010041CC0100E9D1010055
:10C05000F9D10100A3C50100A3C50100A3C50100DA
:10C06000A3C50100A3C50100A3C50100A3C501002C
:10C07000A3C50100A3C50100A3C50100A3C501001C
:10C08000A3C5010025CF0100A3C50100A3C5010080
:10C09000A3C50100A3C5010005D30100A3C501008C
:10C0A000A3C50100A3C50100A3C50100A3C50100EC
:10C0B000A3C50100A3C501000000000000000000AE
:10C0C000A3C50100A3C50100A3C5010009D2010059
:10C0D000A3C50100A3C50100A3C501000000000025
:10C0E0000000000000000000000000000000000050
:10C0F0000000000000000000000000000000000040
:10C10000000000000000000000000000000000002F
:10C11000000000000000000000000000000000001F
:10C4000010B5054C237833B9044B13B10448AFF38E
:10C4100000800123237010BD605100200000000047
:10C42000B8FC010008B5064B1BB106480649AFF33E
:10C4300000800648036813B1054B03B1984708BD57
:10C4400000000000B8FC010064510020845000206E
:10C4500000000000154B002B08BF134B9D46A3F5B1
:10C46000803A00218B460F461348144A121A01F0F5
:10C470005CFA0F4B002B00D098470E4B002B00D0DE
:10C4800098470020002104000D000D48002802D02C
:10C490000C48AFF3008001F0E7F92000290000F01C
:10C4A0004DFA01F0CDF900BF0000080000000120A6
:10C4B0000000000063CA0100605100207852002093
:10C4C000000000000000000010B5064C4FF41651AB
:10C4D000204600F0A5FA20460349BDE8104000F0D0
:10C4E000DBB900BF7C5100206CF6010010B5184C80
:10C4F0001848217800F04CFA1749164800F0B7F9AF
:10C500000A222168134800F00DFA1449114800F07E
:10C51000AEF9102221680F4800F004FA10490D48C6
:10C5200000F0A5F9082221680A4800F0FBF90D493E
:10C53000084800F09CF907482168022200F0F4F94D
:10C5400023687E2B00D1FEE70133236010BD00BFBE
:10C55000005000207C51002088F6010090F6010078
:10C5600098F60100A0F601000649074A074B9B1AFE
:10C5700003DD043BC858D050FBDC00F013F8FFF794
:10C5800069FF0000F0FE0100005000206051002013
:10C59000FEE7FEE7FEE7FEE7FEE7FEE7FEE7FEE773
:10C5A000FEE7FEE7904B1B78062B0AD18F4B1B68EA
:10C5B0001A0706D18E4B1B6803F0F003302B00F0F6
:10C5C000A280894B1B78062B0FD1884B1B681B0759
:10C5D0000BD1874B1B6803F0F002302A00F09780E4
:10C5E00003F0E003402B00F092807F4B1B78062B7A
:10C5F0000AD17E4B1B68180706D17D4B1B6803F0E0
:10C60000F003302B00F08A80774B1B78062B0ED17D
:10C61000764B1B6819070AD1754B1B6803F0F002B3
:10C62000302A00F0818003F0E003402B7CD06E4B79
:10C630001B78062B09D16D4B1B681A0705D16C4B73
:10C640001B6803F0F003302B78D0674B1B78062B68
:10C650000AD1664B1B6813F00F0305D1644A1268B8
:10C6600002F0F002302A6DD05F4B1B78062B09D107
:10C670005E4B1B681B0705D15D4B1B6803F0F00385
:10C68000502B69D04FF01023D3F80C3213F0010176
:10C6900027D0584B0122C3F80425D3F80024002AE0
:10C6A000FBD04FF01023D3F80C2222F00102C3F884
:10C6B0000C22504BD3F80024002AFAD00022C3F8F1
:10C6C0000425D3F80024002AFBD0BFF34F8F4A4A39
:10C6D0004A4BD16801F4E0610B43D360BFF34F8F45
:10C6E000FEE7474B474A1A604FF080430122C3F8E8
:10C6F0001825C3F804119A604FF08043D3F8043131
:10C70000002BF9D07047404B404A1A6059E7404B24
:10C710001A68404BC2F342321A6066E73E4BDA6851
:10C7200022F08072DA606FE74FF080430022C3F896
:10C730000C21C3F81021C3F8382578E7374B0322C2
:10C740001A6082E7364A05211160012191679360E2
:10C75000344B3F221A6087E74FF08052324BD2F8B9
:10C760000414C3F82015D2F80814C3F82415D2F81D
:10C770000C14C3F82815D2F81014C3F82C15D2F8ED
:10C780001414C3F83015D2F81814C3F83415D2F8BD
:10C790001C14C3F84015D2F82014C3F84415D2F87D
:10C7A0002414C3F84815D2F82814C3F84C15D2F84D
:10C7B0002C14C3F85015D2F83014C3F85415D2F81D
:10C7C0003414C3F86015D2F83814C3F86415D2F8DD
:10C7D0003C14C3F86815D2F84014C3F86C15D2F8AD
:10C7E0004424C3F870254DE7E00F00F0E40F00F09B
:10C7F000E80F00F000E0014000ED00E00400FA0561
:10C80000045000200090D00374C007400DF0ADBA72
:10C81000440200103C050040F0ED00E0A00500409F
:10C82000105600401456004000C00040F8B50646BF
:10C830000C468F180025BC4207D0336814F8011B42
:10C840001B68304698470544F5E72846F8BD70B5A3
:10C8500005460C4649B1036808465E6801F064F974
:10C86000214602462846B04770BD084670BD08B54F
:10C87000FFF7EDFF08BD08B503681B68984708BDC2
:10C8800038B50D210546FFF7F6FF0A210446284674
:10C89000FFF7F1FF204438BD38B50446FFF7D7FF56
:10C8A00005462046FFF7ECFF284438BD30B58BB075
:10C8B00000238DF82430012A98BF0A220DF12304A9
:10C8C000B1FBF2F303FB1211CDB2092D94BF303549
:10C8D0003735EDB2214604F801590BB11946EFE79F
:10C8E000FFF7B5FF0BB030BDF8B506460D46144650
:10C8F00022B90368C9B21B689847F8BD0A2A0CD14F
:10C9000000290BDA2D21FFF7B6FF694207462246C0
:10C910003046FFF7CBFF3844F8BDD2B2BDE8F8404F
:10C92000FFF7C4BFFFF7E0BF38B50446FFF7DCFFF1
:10C9300005462046FFF7A4FF284438BD08B5FFF799
:10C94000C3FDFFF7D3FDFCE70120704708B502489F
:10C9500000F0E2FB08BD00BF9051002008B502487E
:10C9600000F0ECFB08BD00BF9051002008B5024864
:10C9700000F0F4FB08BD00BF9051002008B503484B
:10C9800000F0B8FA0028FAD108BD00BF8C51002091
:10C9900008B5024800F0A2FA012008BD8C51002021
:10C9A0000146014800F0AABB9051002038B54FF471
:10C9B0007A7300258360054B456004460360044894
:10C9C00000F0D5FB034B1D60204638BDF8F6010092
:10C9D000905100208C51002070B5D8B20D461446FD
:10C9E00000F082FB0646E0B200F07EFB0B4C0246F4
:10C9F0003146204600F08AF92046294600F036FAF2
:10CA00004FF0FF3220460021134600F07BFA20460B
:10CA100000210122BDE8704000F046BA8C51002090
:10CA200019221723FFF7D8BF10B5074C0748FFF7A7
:10CA3000BDFF20460021402200F077FF0023A4F82C
:10CA40004030A4F8423010BD905100207C510020AD
:10CA500070470000014800F0D7B800BF30F7010070
:10CA6000704708B5FFF7F4FFFFF7FAFF08BD0000B5
:10CA70000C4B1A681318EFF308818B4205D30A4B4D
:10CA80000C221A604FF0FF3070470849096821B145
:10CA90000748006801448B42F1D2024910460B60FE
:10CAA000704700BF0850002074520020D45100206D
:10CAB000D851002008B500B9FEE700F017F8FBE7F1
:10CAC00008B100F0F7BE704770B506460D46144633
:10CAD00000F052F831462A462346034800F038F861
:10CAE000BDE8704000F002B8EFF8010008B500F0B2
:10CAF00043F8962000F09EF8962000F09BF8F8E7A7
:10CB000030B50546A1B00C4600F036F82946684617
:10CB1000224601F029F8051E03DC00F057F821B089
:10CB200030BD094B1B6823B908480621082200F0D4
:10CB3000EDF800241DF804100448013400F0CEF98B
:10CB4000AC42F7D1E9E700BFE45100207052002069
:10CB50000FB407B504A951F8040B0191FFF7D0FFFA
:10CB600003B05DF804EB04B07047EFF3108000F001
:10CB7000010080F00100704738B5FFF7F6FF80F044
:10CB80000100C5B272B60C4C23680BB90B4B1D707B
:10CB90002368013304D10A480A493322FFF794FF7E
:10CBA00023682BB125B9084806493722FFF78CFFC7
:10CBB00023680133236038BDDC510020E0510020A0
:10CBC00020F9010046F90100C6F9010010B50A4C30
:10CBD000236883B1FFF7C9FF20B1084808494822FC
:10CBE000FFF772FF2368013B236023681BB9054BE5
:10CBF0001B7803B962B610BDDC510020C6F90100F4
:10CC000046F90100E05100200FB407B504A951F81E
:10CC1000040B0191FFF774FF012000F011FE38B5FD
:10CC2000044600F039FA054600F036FA401BA042EF
:10CC3000FAD338BD4FF47A735843FFF7F0BF0000C2
:10CC400010B5124BD3F8042352070FD5104A1168C0
:10CC500061B100241460D3F81805C0B2FFF7A0FE3C
:10CC60000C4A936813B1506821469847074BD3F894
:10CC700004331B0608D5084B1B682BB1054A936883
:10CC800013B150680121984710BD00BF002000403B
:10CC900008210040E85100201C2100404B1C70B5C9
:10CCA00003D0022808BF4FF0FF31164B561C996184
:10CCB00003D0012808BF4FF0FF324D1C5A610AD043
:10CCC0004FF0A04401258D40C4F8085501F5E075EA
:10CCD000032644F82560541C06D002F5E0754FF099
:10CCE000A044002644F82560003018BF01201877C2
:10CCF0005B7F1843044BC3F86C05C3F80815C3F8F1
:10CD0000102570BDE8510020002000402DE9F047BB
:10CD10000F464D4D4D4981460220904600F0DCF90A
:10CD20007B1C2F61C5F80C800AD04FF0A043012274
:10CD3000BA40C3F8082507F5E072032143F8221032
:10CD4000B8F1FF3F06D008F5E0724FF0A043002194
:10CD500043F822102E783C4BDFF80CA17EB1DAF8B4
:10CD60000030002BFBD03A4B0022C3F800250422F0
:10CD7000C3F80C75C3F81485C3F8002551E0354A93
:10CD80001A6207225A6105229A615E771E77324B3A
:10CD90002F4C324A1E600123CAF8006023601360E2
:10CDA0008423C4F808330220062100F035FA4FF03E
:10CDB0008053C4F86C65C4F824354FF0FF33C4F8D1
:10CDC0000C35C4F81435C4F80835C4F810350423FC
:10CDD000C4F80035C4F81C65DAF80030002BFBD02D
:10CDE0000023C4F800352969EA68C4F80C15C4F8B2
:10CDF00014252A6AC4F824252A7F697F124B11431F
:10CE0000012AC4F86C1506D1032093F9181093F980
:10CE10001420FFF743FF0E4B0422C3F80025012323
:10CE20002B70062F0E4B0BD1B8F1080F08D1012241
:10CE30001A6049460B480422BDE8F04700F051BD96
:10CE400000221A60BDE8F087E851002041CC0100C3
:10CE5000002000400050270008210040082000402A
:10CE6000E4510020705200201C210040B1F5966F63
:10CE700002DC4FF49E220FE00123094A52F83300EE
:10CE8000814204D202EBC30353F8042C04E00133C3
:10CE9000122BF2D14FF08052024BC3F82425704779
:10CEA000DCF901000020004052B111B1012902D08B
:10CEB0007047042200E08022074BC3F80423704728
:10CEC00011B1012902D07047042200E08022024BF8
:10CED000C3F80823704700BF00200040044B1A68C5
:10CEE000002AFBD00022C9B21A60C3F800147047B0
:10CEF0001C210040024B1868003018BF0120704709
:10CF00001C21004010B5064C0020C4F8000508465E
:10CF100011461A46FFF7C2FE0423C4F8003510BDBF
:10CF20000020004007B50C4B1B680BB100F056F910
:10CF30000A4B1B680BB100F027F9094B1A6842B184
:10CF400000221A601B680193019B064B1A6801328C
:10CF50001A6003B05DF804FB401101404811014024
:10CF600004110140105200207FB5164E357835BBB4
:10CF700011201549154C00F0AFF8154BC4F80855B1
:10CF80001D601B680193019B124B1D601B6802937F
:10CF9000029B114B1D601B680393039B0F4BC4F84E
:10CFA00004330223C4F844334FF4A023C4F84833B5
:10CFB0001120062100F030F901232360337004B002
:10CFC00070BD00BF0C52002025CF010000100140B1
:10CFD00040110140481101400411014002000500C8
:10CFE000034A044BD3F80435106803EB0060704724
:10CFF000105200200010014008B5FFF7F1FF05496D
:10D000004FF480420023E1FB0023D00B40EA434071
:10D01000D90B08BD40420F002DE9F04180460F4674
:10D020001646FFF7E9FF00244FF0FF35044014EBEC
:10D03000080405EA010545F10005804502D20034E7
:10D0400045F10105104AE003E903801841EA544123
:10D050004FF0000341EB03010C4A002301F092F86A
:10D060000446FFF7BDFF0230231A002BC8BF20463D
:10D0700007F5A877064B20F07F4043F82700C3F858
:10D080004463BDE8F08100BF3F420F0040420F0003
:10D0900000100140FFF768BF08B5FFF765FFFFF715
:10D0A000ABFF08BD00214FF48032FFF7B5BF000091
:10D0B000024B4FF48032C3F8482370470010014000
:10D0C000044B00221A6082B01B680193019B02B0DE
:10D0D000704700BF401101401030024B43F8201050
:10D0E000704700BF885000201F289ABF024B185C71
:10D0F000FF2040B2704700BF6CFA0100B0F840203A
:10D1000010B5531CB0F8424003F03F039C421CBFD3
:10D110008154A0F8403010BDB0F84030B0F8422043
:10D12000054840339B1A1840002803DA013860F0A4
:10D130003F00013080B270473F000080B0F84230BD
:10D14000B0F840209A4207D0C25C013303F03F039D
:10D15000A0F8423010467047FF207047B0F84230C8
:10D16000B0F840209A4214BFC05CFF20704710B551
:10D1700000210446402200F0D8FB0023A4F84030F0
:10D18000A4F8423010BD0000014800F003B800BF11
:10D19000A0FA010038B50368DB6804469847636865
:10D1A0005A68236812B99B68984738BD5B68156850
:10D1B0009847281A0028636809DC5A689168596002
:10D1C00063681B68002BEAD050689847E7E75A6805
:10D1D000216810680B69984738BD00000148FFF7C7
:10D1E000D9BF00BFBCFA010008B5024B1B689847C5
:10D1F00008BD00BF3452002008B5024B1B68984799
:10D2000008BD00BF2452002008B5024B1B68984798
:10D2100008BD00BF2C52002000284FEA411105DA5A
:10D2200000F00F020C4BC9B2995406E000F16043C4
:10D2300003F56143C9B283F8001300F01F034009EE
:10D24000800000F1604000F56140012202FA03F322
:10D25000C0F880310360704714ED00E052DF704782
:10D2600061DF7047F7B5224B1B78002B3DD0214B77
:10D270001C68D4F1010438BF002400251F46002D8E
:10D2800031D101A8FFF7EAFF05280CD010B100F05A
:10D2900079F809E0019800F067F8174B1B681BB19B
:10D2A0000198984700E00125DCB9144B02A91B88BE
:10D2B00021F8043D124B1E683046FFF7D1FF0528C8
:10D2C000044608D018B100F05DF8002404E03B6883
:10D2D0003046984700E00124002DD2D0002CCED05B
:10D2E00003E015B9CDE7002CDFD003B0F0BD00BFDF
:10D2F0003C52002048520020445200203E52002060
:10D300004052002008B5074B1B682BB1984738B135
:10D31000BDE8084000F036B8BDE80840FFF7A2BFFE
:10D3200008BD00BF4C520020FFF71EBE08B5FFF736
:10D3300063FE08BD02214FF48022FFF76DBE00009E
:10D34000024B4FF48022C3F848237047001001407D
:10D35000044B00221A6082B01B680193019B02B04B
:10D36000704700BF4811014008B540B9044A5368EE
:10D370002BB1196851605B6800209847F6E708BD3B
:10D38000505200201FB50021039001AA44F2010071
:10D39000ADF804100291AFF3008005B05DF804FB16
:10D3A0000378472B17D143784E2B14D18378552B14
:10D3B00011D1C378432B0ED10379432B0BD1437981
:10D3C0002B2B08D183792B2B05D1C07901288CBF59
:10D3D0000020012070470020704700002DE9F34134
:10D3E00098460378C679472B04460F4614D14378F4
:10D3F0004E2B11D18378552B0ED1C378432B0BD1F3
:10D400000379462B08D143794F2B05D18379522BD1
:10D4100002D10EB9012205E02046FFF7C1FF002826
:10D4200030D0002200230021019182B98BB9012E56
:10D430000ABF54F8203CA4F12003783B012E08BF1A
:10D4400054F8204C1D6818BF5834019402E0104D68
:10D4500000E0104D2B6828469B68984720B1019B3F
:10D460001B680193022400E001243B6838461E69D2
:10D47000294601AA0123B04738B1019BC8F8003002
:10D48000204602E002460123CDE702B0BDE8F0816C
:10D49000C8FB0100F4FB010070B5044600F050F930
:10D4A00005462046A4F12006FFF77AFF50B154F854
:10D4B000043C0133012B44F8043C08D1AB6844F828
:10D4C000083C03E0AB680BB100F026F9AE60012028
:10D4D00070BD7FB5102302930368002415469E6932
:10D4E00000946B468DF8044003941268B0479DF891
:10D4F000043003F00603062B03BF009B2B600120C2
:10D50000204604B070BD0098904214BF0120062050
:10D510007047000010B5034B0360044600F05AF951
:10D52000204610BDD0FA010010B50446FFF7F2FF07
:10D530002046FFF7C5FA204610BD38B515461C46F3
:10D5400000F05EF928B10823E3600623256023710B
:10D55000012038BDF8B505460C4616461F4600F0BA
:10D560004FF940B9032F07D8236820465B69294645
:10D5700032469847F8BD0120F8BD2DE9F041069EDE
:10D58000099C1546089A96420746984603D1079982
:10D5900000F036F948B93846414600F031F928B173
:10D5A000012326602571A37100E065710020BDE8AC
:10D5B000F081000010B5034B03600446FFF7AAFF9B
:10D5C000204610BD30FB010010B50446FFF7F2FF06
:10D5D0002046FFF775FA204610BD2DE9F341089C5F
:10D5E00094420746884616461D4605D1194600F066
:10D5F00007F908B1062007E0B868036800941C6AC0
:10D60000414632462B46A04702B0BDE8F0812DE9E5
:10D61000F04F85B00E4619468346904699460E9DBA
:10D62000109F119C00F0ECF8824680B1002E25601E
:10D6300084F8048006DB3544AF4214BF0127062777
:10D64000A7710CE002360AD10123A37107E0BD42A5
:10D6500007D158460F9900F0D3F880B901E00020B7
:10D6600010E0DBF808000F9A03680192009502971A
:10D670000394DC69314642464B46A04702E084F8F9
:10D680000580504605B0BDE8F08FF8B504460F465A
:10D6900016461D46FFF751FF38B9A06804683946A1
:10D6A000A46932462B46A047F8BD0120F8BD037897
:10D6B000472B17D143784E2B14D18378552B11D19A
:10D6C000C378432B0ED10379432B0BD143792B2BFA
:10D6D00008D183792B2B05D1C07901288CBF00207C
:10D6E000012070470020704770B50646FFF7DFFF46
:10D6F00018B156F8184C002501E0044601253046C3
:10D7000000F03FF80DB100F013F8204600F00CF8DF
:10D7100008B5804700F08DF808B5024B1868FFF790
:10D72000F7FF00BF1050002008B58047FFF7F4FF57
:10D7300008B5024B1868FFF7F7FF00BF0C50002038
:10D74000004870475C5200200378472B17D143787C
:10D750004E2B14D18378552B11D1C378432B0ED186
:10D760000379432B0BD143792B2B08D183792B2BB6
:10D7700005D1C07901288CBF00200120704700200E
:10D780007047F8B50446FFF7DBFF054606682046FC
:10D79000A4F12007FFF7D8FF20B90EB1FFF7BCFFB7
:10D7A0002F6015E054F80C3C002BB4BFC3F101030B
:10D7B000013344F80C3C6B68B74203F1FF336B60F4
:10D7C00020461CBF44F8106C2F60666A00F0F8FE1B
:10D7D0003046F8BD014B0360704700BFB0FB01004D
:10D7E00000207047002070470020704710B5034BA1
:10D7F00003600446FFF764F9204610BDB0FB01004A
:10D80000814208B50FD0406803782A2B0DD04968B3
:10D810000B782A2B08BF013100F07CF9D0F1010010
:10D8200038BF002008BD012008BD002008BDFFF75B
:10D83000E7BF08B5062000F051F90120FFF73AF9DB
:10D8400008B5074B044613B10021AFF30080054B28
:10D850001868836A03B198472046FFF72BF900BF89
:10D860000000000080FC010070B50E4B0E4DED1A5B
:10D87000AD1000241E46AC4204D056F82420904738
:10D880000134F8E701F0E6FE084D094BED1AAD1042
:10D8900000241E46AC4204D056F8242090470134A0
:10D8A000F8E770BD785000207850002080500020AC
:10D8B00078500020024B0146186800F03FB800BFC6
:10D8C0007450002010B5C9B202449042034606D0FD
:10D8D0001C788C4200F10100F7D1184610BD0020E1
:10D8E00010BD10B50023934203D0CC5CC454013367
:10D8F000F9E710BD814270B501D300230EE08C180A
:10D90000A042FAD28518134613F1FF3305D35142D2
:10D9100066182944F65CCE54F6E770BD934203D0F6
:10D92000CC5CC4540133F9E770BD02440346934212
:10D9300002D003F8011BFAE77047000030B5002958
:10D940003CD051F8042C0B1F1D49002AB8BF9B186E
:10D950000A680C4612B95A600B6030BD93420DD272
:10D9600019685818904203D15A58114442681960F6
:10D970005A60236030BD994203D80A465168002995
:10D98000F9D1146815199D420AD11B682344D01897
:10D990008842136012D10868034413604B680CE09E
:10D9A00002D90C23036030BD18681C188C4203D1C7
:10D9B0000C684968204418605960536030BD00BF4E
:10D9C0006C52002070B5CD1C25F0030508350C2DD8
:10D9D00038BF0C25002D06463FDB8D423DD3214B41
:10D9E0001C6818462146A1B10B685B1B0ED40B2B9B
:10D9F00003D90B60CC18CD501FE08C4202D1626875
:10DA000002601AE04B6863600C4616E00C464968F9
:10DA1000E9E7154C23681BB9304600F027F8206071
:10DA20002946304600F022F8431C014615D0C41C9C
:10DA300024F0030484420AD1256004F10B00231D65
:10DA400020F00700C31A0BD05A42E25070BD304696
:10DA5000611A00F00BF80130EED10C233360002086
:10DA600070BD00BF6C5200206852002038B5064CD3
:10DA70000023054608462360FEF7FAFF431C02D147
:10DA8000236803B12B6038BD745200201F2938B5BC
:10DA900005460C4604D9162303604FF0FF3038BD0D
:10DAA000426C12B152F821304BB9284600F030F8E0
:10DAB000224601462846BDE8384000F017B8012B41
:10DAC0000AD0591C03D116230360012038BD00255C
:10DAD00042F8245020469847002038BD024B0146AA
:10DAE0001868FFF7D3BF00BF7450002038B5074C4B
:10DAF0000023054608461146236001F0A3FD431CA0
:10DB000002D1236803B12B6038BD00BF74520020DE
:10DB100001F090BD10F8012B11F8013B012A28BF3C
:10DB20009A42F7D0D01A7047034613F8012B002A07
:10DB3000FBD1181A0138704710B59AB04FF402742F
:10DB4000009104916FF00041029105914FF6FF7131
:10DB5000ADF80E106946ADF80C4000F095F8009B4A
:10DB600000221A701AB010BD30B51346044A05469B
:10DB70000C46106829462246BDE83040FFF7DCBF5E
:10DB800074500020F8B5064614460D4621B91146DA
:10DB9000BDE8F840FFF716BF1AB9FFF7CFFE2046E1
:10DBA000F8BD00F0E5FAA0420ED230462146FFF75C
:10DBB00009FF074650B129462246FFF792FE30463C
:10DBC0002946FFF7BBFE01E02846F8BD3846F8BD00
:10DBD0002DE9F0478D68AB4281460C4692461F46C0
:10DBE00043D38B8913F4906F3DD026680969C1EB4C
:10DBF00006086669022206EB460696FBF2F608F175
:10DC000001023A44964238BF16465B050FD53146AD
:10DC1000FFF7D8FE054698B121694246FFF761FE3D
:10DC2000A38923F4906343F08003A38113E0324679
:10DC3000FFF7A8FF054670B948462169FFF77EFE49
:10DC40000C23C9F80030A38943F04003A3814FF0AF
:10DC5000FF30BDE8F087256166614544C8EB0606E4
:10DC60002560A6603D46AF4200D23D462A46206868
:10DC70005146FFF73FFEA3685B1BA36023681D446A
:10DC800025600020BDE8F0872DE9F0439DB00746F0
:10DC900003938B891C060D4616460CD50B6953B9A8
:10DCA0004021FFF78FFE2860286110B90C233B60EC
:10DCB000C8E040236B610023099320238DF82930AD
:10DCC00030238DF82A3033461C4613F8012B1AB93D
:10DCD000B4EB06090FD002E0252AF5D1F8E7384663
:10DCE000294632464B46FFF773FF013000F0A5800E
:10DCF000099B4B4409932378002B00F09E8000235E
:10DD00004FF0FF3204930793059206938DF853303A
:10DD10001A9304F101094C464D4E217830460522F4
:10DD2000FFF7D0FD09F10109049B28B1861B0120F2
:10DD3000B04003430493EEE7D90644BF20228DF898
:10DD400053201A0744BF2B228DF8532022782A2A09
:10DD500002D0079B21460EE0039A111D1268039121
:10DD6000002A01DB079204E0524243F002030792CB
:10DD7000049301340AE00C4601312278303A092A32
:10DD800003D80A2000FB0323F5E7079323782E2B03
:10DD90001AD163782A2B0AD1039B1A1D1B680392A0
:10DDA000002B04F10204B8BF4FF0FF330BE0611CFD
:10DDB00000230C4601312278303A092A03D80A2080
:10DDC00000FB0323F5E70593224E2178304603221A
:10DDD000FFF778FD30B1861B049B4020B040034321
:10DDE0000493013421781C488DF828100622661C03
:10DDF000FFF768FD88B1194B33B9039B073323F054
:10DE000007030833039314E003AB0093384604A9D7
:10DE10002A46134BAFF3008007E003AB009338466C
:10DE200004A92A460E4B00F08FF8B0F1FF3F804660
:10DE300003D0099B4344099345E7AB895B0601D4B2
:10DE4000099801E04FF0FF301DB0BDE8F08300BF3E
:10DE500084FC01008AFC01008EFC0100000000002F
:10DE6000D1DB01002DE9F84315461F468A680B698E
:10DE7000DDF820809A42A8BF13462B6091F843201A
:10DE800006460C460AB101332B602368990602D579
:10DE90002B6802332B60236813F006091DD094F819
:10DEA00043302268003318BF012392061FD5E118C2
:10DEB0005A1C302081F84300224494F8451082F81F
:10DEC0004310023313E03046394604F119020123AE
:10DED000C047013007D009F10109E2682B68D31A65
:10DEE0009945F0DBDBE74FF0FF30BDE8F8833046C3
:10DEF000394604F14302C0470130F4D023682A6850
:10DF0000E16803F00603042B08BFC2EB0105236997
:10DF1000A2680CBF25EAE57500259A42C4BFC3EB91
:10DF20000203ED184FF00009A9450ADA30463946D8
:10DF300004F11A020123C0470130D4D009F10109CC
:10DF4000F2E70020BDE8F8832DE9FF470E7E0C9D27
:10DF50006E2E80460C4691469A4601F1430000F031
:10DF6000A58011D8632E22D009D8002E00F0AF80F2
:10DF7000582E40F0BF8081F845607B4A4FE0642E08
:10DF80001ED0692E1CD0B5E0732E00F0A48009D8F5
:10DF90006F2E2BD0702E40F0AD800B6843F0200325
:10DFA0000B6038E0752E21D0782E34D0A2E02B689B
:10DFB0001A1D1B682A6001F1420781F842309DE07A
:10DFC00022682B6812F0800F03D01A1D2A601D688A
:10DFD00005E05106F9D51A1D2A60B3F90050002D4D
:10DFE00039DA2D236D4284F8433034E022682B68FF
:10DFF00012F0800F03D01A1D2A601D6804E052063B
:10E00000F9D51A1D2A601D88237E574A6F2B14BF2D
:10E010000A2308231BE07823544A84F845302368F8
:10E02000296813F0800F01F104062E6001D00D68FD
:10E0300002E05F06FBD50D88DE0744BF43F02003F6
:10E0400023601DB9236823F02003236010230021DF
:10E0500084F8431001E0444A0A236668A660002E53
:10E0600003DB216821F00401216005B96EB104F1E0
:10E070004201B5FBF3F603FB16550F46555D01F85B
:10E0800001593546002EF4D100E00746082B0AD18D
:10E090002368DD0707D5626823699A4203DC3023D1
:10E0A00007F8013C013FC01B20612CE009682B6888
:10E0B000626911F0800F04D0191D29601B681A6075
:10E0C00005E04906F8D5191D29601B681A80002350
:10E0D0002361074617E02B681A1D2A601F6838461F
:10E0E000FFF722FD63682061984288BF236123699E
:10E0F000636005E004F1420784F842600123236174
:10E10000002384F84330CDF800A04046214603AAFE
:10E110004B46FFF7A7FE013002D14FF0FF301FE062
:10E12000404649463A462369D0470130F5D0236836
:10E130009B0705D4E068039B9842B8BF18460FE0E0
:10E140000025E268039BD31A9D42F3DA4046494614
:10E1500004F119020123D0470130DED00135F0E788
:10E1600004B0BDE8F08700BF95FC0100A6FC0100EB
:10E1700051F8040C002802DA04390B58184404380A
:10E18000704700004BB942B9002908BF002802D0EF
:10E190004FF0FF31084600F0BDBF82B0EC462DE9DC
:10E1A000005000F01DF8DDF804E002B00CBC704730
:10E1B0002DE97043069E14461D468046894600F0B0
:10E1C000ABFF04FB01F300FB0533A4FB00451D443A
:10E1D000B8EB040469EB0505C6E90045BDE87083AA
:10E1E0002DE97043069E1446804689461D4601F07F
:10E1F000DFF800FB05F504FB0153A0FB04451D44BB
:10E20000B8EB040469EB0505C6E90045BDE8708379
:10E2100003685A004CBF43F0004323F00043184406
:10E22000704700BF2DE9F04F064683B0914621B3F9
:10E23000013901918846002707EB080404EBD474E8
:10E240006410E50006EB050B5846FFF7E1FF019B64
:10E250008246A34205F10800304419D0FFF7D8FFE9
:10E26000CA4500F1FF3004D9BC420BD004F1FF389D
:10E27000E2E7484502D2671CDEE78B46584603B00A
:10E28000BDE8F08F4FF0000B584603B0BDE8F08FAB
:10E29000CA45E9D8F2E700BF012807D0022807D015
:10E2A000044B00280CBF18460020704702487047F6
:10E2B00002487047C9E90100D1E90100D9E901002C
:10E2C00030B5274B83B004468D1E002B42D0284624
:10E2D00001A9AFF30080034623B32A460199FFF753
:10E2E000A1FF054618B3FFF793FF6B68A064012BED
:10E2F00012D0002B05F1040028DBFFF789FF002373
:10E30000E06423650368002B16DBFFF781FF002321
:10E310002061184603B030BD002323610523184651
:10E3200003B030BD23610923184603B030BD092373
:10E330002061184603B030BDC3F30360FFF7ACFFA4
:10E340000028206114BF00230923E2E70123E064D1
:10E350002365D7E7034B04481B1ADB100193BCE786
:10E3600000000000F0FE010058FD01000368DA071C
:10E3700010B5044606D49B0700F1480009D500F00B
:10E3800069FC2368590709D51A070ED5DB0613D592
:10E3900010BD00F057FC23685907F5D404F1D000F4
:10E3A00000F060FC23681A07F0D404F5A87000F0B0
:10E3B00061FC2368DB06EBD404F5E870BDE810408F
:10E3C00000F09CBC03680BB11844704718467047B6
:10E3D00009207047704700BF70B504460D4608E03D
:10E3E0002B6C63610120236921462A46984708283F
:10E3F00008D12046296CFFF763FF06460028EFD0BE
:10E40000FFF717FA0728FBD13046296CFFF7E2FF28
:10E41000281D00F00BFC00BF2DE9F0470C1D054640
:10E4200017460FCCADF5727D03AE0FC60FCC0FC6ED
:10E430000FCC0FC694E80F0002AC4FF0000ED5F8D9
:10E440000C80D5F8189086E80F002846216CC4F897
:10E4500000E0FFF735FF002F064614BF0A27092703
:10E4600086B1A06B2A468DE8100247F01001606467
:10E470002B460120C04700282FD130460DF5727D74
:10E48000BDE8F087236C6B6121464FF4F0727AA8E7
:10E49000FFF727FA2B6929467AAA38469847889BBE
:10E4A00082468DE810023946636401202A462B46D5
:10E4B000C04790B920467AA94FF4F072FFF711FADD
:10E4C000BAF1080F06D12846216CFFF7F9FE09279B
:10E4D0000646C5E7BAF1070F04D009200DF5727D95
:10E4E000BDE8F0873046216CFFF774FF03A800F009
:10E4F0009DFB00BF406C7047F0B5CB6B0B640E1DED
:10E500000F4604460FCEF9B001AD0FC50FCE0FC5B3
:10E510000FCE0FC596E80F004FF0FF3685E80F00CD
:10E52000009606E0236921466A4698470828054672
:10E5300008D120461099FFF7C3FE0028F2D0092029
:10E5400079B0F0BD6846FFF711FF062DF7D12046E0
:10E550003946FFF741FF00BF30B4DD6BC160826117
:10E5600019461D64002230BCFFF756BF70B5C6685F
:10E5700043690B6404460D4626B10122FFF74CFFA8
:10E58000FFF757F90369214602202A4698470728D2
:10E5900007D0082803D120462946FFF71DFFFFF7C3
:10E5A00048F93046296CFFF715FF281D00F03EFBA7
:10E5B000C26822B1CA6B0A640022FFF72DBF9BE735
:10E5C000704700BF08B5836813B101460120984722
:10E5D00008BD00BF10B4042909D8DFE801F0070323
:10E5E0000803030001205DF8044B70471BB10220B3
:10E5F0005DF8044B70470F2AF9D800EB82021846E9
:10E600005368019A1360EEE700B585B00A4603AB84
:10E61000002100930B46FFF7DDFF039805B05DF87E
:10E6200004FB00BF10B4042909D8DFE801F0070398
:10E630000803030001205DF8044B70471BB1022062
:10E640005DF8044B70470F2AF9D800EB820201985D
:10E65000016851601846EEE710B584B004AB0C4673
:10E6600043F8042D0021009322460B46FFF7DAFF02
:10E6700004B010BDF0B5D36B1364151D07460E46EC
:10E680000FCDADF50F7D17AC0FC40FCD0FC40FCD5F
:10E690000FC495E80F004FF0FF3584E80F00169582
:10E6A00010E016A8FFF7D8FF314616A8B84769460C
:10E6B00016AA78B9049B08209847052804460AD072
:10E6C000092807D026996846FFF7FAFD6A460C210B
:10E6D0000028E6D0092416A8FFF748FE20460DF5CD
:10E6E0000F7DF0BD2DE9F04F0C46C96C8BB01D4677
:10E6F0000E1D0B6807939046089600F00309002D45
:10E7000040F089801B02032207938DF825508DF875
:10E710002420236DB9F1020F08BFA66B13F001038B
:10E7200042D100F00800C0B2039002933768002F76
:10E730003CD0022D6BD03788B6F802A00436A36C0B
:10E740002AF0010B40460F219B44FFF75DFF8345F4
:10E7500036D827F001039B440AF0010A07F00107AD
:10E76000584547EA4A072CBF00200120012F31D02D
:10E7700060D3022F20D1336823F000410191B9F119
:10E78000000F40F0858030B1039A002A00F08D80A0
:10E79000002900F0B080002BC0F28580019B03F1BE
:10E7A000010A06EB8A06C1E700210291022D49DD2C
:10E7B000FFF70EFE00284BD009200BB0BDE8F08F0C
:10E7C0000AF0010A07F0010747EA4A07012F4FF054
:10E7D0000000CDD1B9F1000F41D1B0B196E80C00E5
:10E7E000D70F9A1CE8D004F158010133069100F0CC
:10E7F000AD80301DFFF7E6FD3A46014606AB2046E8
:10E80000FEF7ECFD002840F0CF8008368EE7D6F802
:10E8100004A0083693E7022D3FF77BAF1A0CD7B25E
:10E820001B0402218DF8252006EB870607938DF83F
:10E8300024106EE7B9F1000F02D0002840F090805C
:10E84000043673E7404607A900F0F0FA0028B3D178
:10E85000029A002A59D108200BB0BDE8F08F40463B
:10E860000D21276AFFF7D0FE8742CED1A36A9E42D0
:10E87000CBD13046FFF7CCFC0F2102464046FFF7D4
:10E88000EBFE404622460021FFF7E6FE072094E714
:10E8900040460D21276AFFF7B7FE874245D033680F
:10E8A000002BBFF67BAF043678E7019919B304F16A
:10E8B000580CCDF810900595371DDDF80CB0DDF83B
:10E8C0000490654602E0CA4515D0D3463846069501
:10E8D000FFF778FD0022014606AB2046FEF77EFDDD
:10E8E0000BF1010A04370028EDD0019BDDF81090F0
:10E8F000059D5B45D3D140460D21FFF785FE069B64
:10E900002062A6626362062057E70F214046FFF7A8
:10E910007BFE0E2102464046FFF79EFE40460F2139
:10E92000284AFFF799FE072047E7A36A9E42B6D11F
:10E9300004220027B3180199A162E762226363638E
:10E940003368BB421FDB0122029227E740460D21BC
:10E95000FFF75AFE2062069B6362A66206202CE740
:10E960003046FFF755FC04360546A6632046FEF701
:10E9700093FD00283FF420AF40462A460F21FFF7C1
:10E980006BFE072019E7481C06EB8000FFF740FCF0
:10E990000F2102464046FFF75FFE404639462246B9
:10E9A000FFF75AFE072008E707460D214046FFF70C
:10E9B0002BFE022F2062CED12346069A43F82C2F3D
:10E9C0006362CAE7E9D601000023FFF78BBE00BFF0
:10E9D0000123FFF787BE00BF0223FFF783BE00BFFE
:10E9E0002DE9F0410446C4B004290BD8DFE801F05A
:10E9F00059030A300E00012B4FEA124596B266D039
:10EA0000052B6BD0022044B0BDE8F081002BF9D17A
:10EA1000102AF7D82368D90600F1D38022AE3046F9
:10EA2000019200F075F9A56B019A0023012000FA0C
:10EA300003F1114203D0296846F82310043501334D
:10EA4000042BF4D13046A56300F058F90020DAE732
:10EA5000032BD7D1150C97B27B19102BD2D8236872
:10EA60001E0700F1BF8022AE304600F025F9D4F831
:10EA700038E07F0006EBC5007B1E72465FB1CEEB2F
:10EA80000000AEF10402013B52F8041F81505D1CEE
:10EA9000F9D10EEB87023046A26300F0EBF80020BC
:10EAA000B1E7002BAED1A56B96B2012000FA03F1BD
:10EAB000314204D004EB83072968796004350133BF
:10EAC000102BF3D112F4005075D1A5639BE7721996
:10EAD000102A97D80F2D95D8002708E07719202FF6
:10EAE00090D80F2D69D9374646B30F2D11D822681B
:10EAF000D0070ED522F00101052B2160204600F041
:10EB00008B8022F0030240F8482B019300F09EF81E
:10EB1000019B17B1226851076CD4012B74D00F2DC3
:10EB200004D822A8019300F099F8019B37B102A8FC
:10EB3000019300F09BF8019BC5F11006D4F83880D2
:10EB4000002EC44612DD22AA4FEA460C02EBC5068F
:10EB5000C8EB06060CF1FF31A8F1040252F8040FCD
:10EB6000B0500139481CF9D108EB8C0CB7B144AA5C
:10EB7000102D2CBF2846102002EBC0004FEA47089A
:10EB8000A0F5C47008F1FF32614651F8046B40F8FB
:10EB9000046B013A561CF8D10CEB880C012B1AD0EF
:10EBA0000F2DC4F838C002D822A800F053F817B1CE
:10EBB00002A800F057F8002025E7102F8CD9103F4D
:10EBC00093E723F01003236004F5E870019200F04E
:10EBD0009FF8019A22E70CF10403A36322A800F036
:10EBE00031F8E8E723F00803236004F5A87000F08B
:10EBF00063F838E7204622F0040240F8D02B019356
:10EC000000F034F8019B88E722A8019300F01EF879
:10EC1000019B002F90D191E741F0020140F8481B81
:10EC2000019300F01BF8019B73E700BF00F1340172
:10EC300091E838009C46A6464CF8045D90E8FF0F2A
:10EC4000E54600BD90EC210B704700BF80EC210B26
:10EC5000704700BF90EC200B704700BF80EC200B8A
:10EC6000704700BFD0EC200B704700BFC0EC200BFA
:10EC7000704700BFF0EC0201F0EC0211F0EC022151
:10EC8000F0EC0231F0EC0241F0EC0251F0EC0261E8
:10EC9000F0EC0271F0EC0281F0EC0291F0EC02A1D8
:10ECA000F0EC02B1F0EC02C1F0EC02D1F0EC02E1C8
:10ECB000F0EC02F1704700BFE0EC0201E0EC021161
:10ECC000E0EC0221E0EC0231E0EC0241E0EC025128
:10ECD000E0EC0261E0EC0271E0EC0281E0EC029118
:10ECE000E0EC02A1E0EC02B1E0EC02C1E0EC02D108
:10ECF000E0EC02E1E0EC02F1704700BFB0FC018102
:10ED0000B0FC0191B0FC01A1B0FC01B1704700BFA3
:10ED1000A0FC0181A0FC0191A0FC01A1A0FC01B11B
:10ED2000704700BFEC4600B52DE900502DE9FF1FEC
:10ED30004FF000032DE90C0001A9FFF7DDFBDDF822
:10ED400040E012B0704700BFEC4600B52DE900501E
:10ED50002DE9FF1F4FF000032DE90C0001A9FFF77B
:10ED600005FCDDF840E012B0704700BFEC4600B58E
:10ED70002DE900502DE9FF1F4FF000032DE90C0095
:10ED800001A9FFF715FCDDF840E012B0704700BFA5
:10ED9000EC4600B52DE900502DE9FF1F4FF00003B0
:10EDA0002DE90C0001ABFFF7D7FBDDF840E012B016
:10EDB000704700BFEC4600B52DE900502DE9FF1F5C
:10EDC0004FF000032DE90C0001AAFFF753FCDDF81A
:10EDD00040E012B0704700BF037A1BB9437A43B9D1
:10EDE000B02070470268013B037213020360100EEB
:10EDF00070474268013B4372111D12684160032352
:10EE0000037213020360100E704700BF00B585B097
:10EE100003AB002100930C220B46FFF7DBFB0398AA
:10EE200005B05DF804FB00BFFFF7F0BF2DE9F0432C
:10EE3000064685B00D464FF000082846FFF7CCFF88
:10EE4000B028044600F0AC8020F07F0212F0FF01F1
:10EE500020D000F0F002802A73D0902A36D0A02A69
:10EE600042D0B02A56D0C02A00F0828000F0F803C9
:10EE7000D02B0BD100F00704621C42F40022304674
:10EE800001210523FFF7ACFD0028D6D0092005B0ED
:10EE9000BDE8F08303AF4FEA80090B460097304688
:10EEA0000D22FFF797FB5FFA89F9039B09F104092B
:10EEB00060064CBFC9EB03034B440393002100974A
:10EEC0000B4630460D22FFF7ADFBB6E700F00D0311
:10EED0000D2BDBD003AF002100F00F0200970B4693
:10EEE0003046FFF777FBE9E7C2434FF47F6302F058
:10EEF000070243FA02F2010702EA03024FF000019F
:10EF000048BF42F480420B463046FFF769FD0028B7
:10EF1000BCD192E7B12848D0B22851D0B3287CD0D8
:10EF200000F0FC03B42BB1D000F007020132012144
:10EF300042F400220B463046FFF752FD0028A5D1CF
:10EF40007BE72846FFF748FF24022043B0F5004F37
:10EF50009CD004010021A2B20B463046FFF740FDD1
:10EF6000002893D114F4004F18BF4FF0010864E754
:10EF7000C6285ED0C72868D000F0F803C02B77D031
:10EF8000C82800F08D80C92880D12846FFF724FFCB
:10EF900000F00F03013300F0F00243EA02326EE7A3
:10EFA000B8F1000F6BD0002071E72846FFF714FF7F
:10EFB000024600283FF46AAF10F0F001BAD065E7CE
:10EFC000002103AF0D220B4600973046FFF702FBEE
:10EFD0002846FFF701FF02064FF002040CD5039B01
:10EFE00000F07F00A040034428460393FFF7F4FE9F
:10EFF000030604F10704F2D4039B009700F07F009E
:10F0000000FA04F403F5017300211C4430460B465A
:10F010000D220394FFF706FB0FE72846FFF7DCFEFF
:10F0200000F00F03013300F0F002012143EA023245
:10F0300080E72846FFF7D0FE00F00F03013300F011
:10F04000F002032143EA023274E72846FFF7C4FEC8
:10F05000024600283FF41AAF10F0F0037FF416AF19
:10F0600030460421FFF7BCFC00287FF40FAFE4E634
:10F0700000F00F020132032142F420225AE703ACD0
:10F0800041460E22434600943046FFF7A3FA00940F
:10F09000304641460F224346FFF7C4FA4046F6E6A3
:10F0A0002846FFF799FE00F0F00200F00F0310323F
:10F0B000013343EA0232E2E600B5C36C85B05A6818
:10F0C00003208DF80C00084611020191DA798DF8C1
:10F0D0000D20083301A90293FFF7A8FE05B05DF8E3
:10F0E00004FB00BF08B5FFF79FFE806C08BD00BFA2
:10F0F00008B5FFF799FEC36CDA7903EB820008309C
:10F1000008BD00BF08B5FEF794FB00BF08B5FEF7C9
:10F1100090FB00BF704700BF00292DE9F00FC0F23F
:10F120009F800024002BC0F29680154606460F46AD
:10F13000002B3ED18A4257D9B2FA82F34BB1C3F1C8
:10F14000200201FA03F720FA02F29D40174300FA69
:10F1500003F6290CB7FBF1F2330C01FB127CA8B2C9
:10F1600043EA0C4700FB02F3BB4209D97F1902F1C5
:10F17000FF3C80F00181BB4240F2FE80023A2F4406
:10F18000FF1AB7FBF1F3B6B201FB137146EA014176
:10F1900000FB03F0884208D9491903F1FF3780F0DA
:10F1A000ED80884240F2EA80023B43EA02420023BB
:10F1B00003E08B420AD900231A461046194614B1BF
:10F1C000404261EB4101BDE8F00F7047B3FA83F8AC
:10F1D000B8F1000F40F084808B4202D3824200F2EB
:10F1E000DE8000230122E8E712B90123B3FBF2F528
:10F1F000B5FA85F2002A39D17F1B280C1FFA85FC4D
:10F200000123B7FBF0F1320C00FB117742EA07470C
:10F210000CFB01F2BA4207D97F1901F1FF3802D283
:10F22000BA4200F2C1804146BF1AB7FBF0F2B6B253
:10F2300000FB127046EA00400CFB02FC844507D933
:10F24000401902F1FF3702D2844500F2AB803A4602
:10F2500042EA0142B1E7E443524263EB430364E70D
:10F26000404261EB41014FF0FF345BE79540C2F152
:10F27000200327FA03F1280C26FA03F39740B1FB89
:10F28000F0F81F433B0C00FB18111FFA85FC43EA02
:10F2900001410CFB08F38B4206FA02F608D9491922
:10F2A00008F1FF3279D28B4277D9A8F102082944BC
:10F2B000C91AB1FBF0F3BFB200FB131147EA0147D3
:10F2C0000CFB03F2BA4207D97F1903F1FF3160D278
:10F2D000BA425ED9023B2F44BF1A43EA084390E783
:10F2E000C8F1200203FA08FC25FA02F343EA0C0CE9
:10F2F0004FEA1C4921FA02F301FA08F720FA02F258
:10F30000B3FBF9F1174309FB11333A0C1FFA8CFBDD
:10F3100042EA03430BFB01FA9A4505FA08F008D9C3
:10F3200013EB0C0301F1FF3235D29A4533D9023980
:10F330006344CAEB0303B3FBF9F209FB1233BFB218
:10F3400047EA03470BFB02F9B94508D917EB0C074D
:10F3500002F1FF331BD2B94519D9023A674442EA98
:10F360000145A5FB0001C9EB07078F424FF00003E1
:10F370000AD305D02A4620E7624601E73B4614E758
:10F3800006FA08F68642F5D26A1E002315E71A46E9
:10F39000E5E70B46A0E71146CBE7904688E74346F2
:10F3A00042460AE7023A53E702392F443CE700BFDE
:10F3B0002DE9F00F144605460E46002B43D18A4234
:10F3C00053D9B2FA82F757B1C7F1200620FA06F6F0
:10F3D00001FA07F302FA07F41E4300FA07F5210CBD
:10F3E000B6FBF1F22B0C01FB1267A0B243EA074611
:10F3F00000FB02F3B34209D9361902F1FF3780F05E
:10F40000F680B34240F2F380023A2644F61AB6FB85
:10F41000F1F3ADB201FB136145EA014100FB03F0DA
:10F42000884208D9091903F1FF3680F0E28088424A
:10F4300040F2DF80023B43EA0242002310461946B5
:10F44000BDE8F00F70478B424AD8B3FA83F6002E1E
:10F450004DD18B4202D3824200F2D680002301229A
:10F4600010461946BDE8F00F704712B90124B4FBED
:10F47000F2F4B4FA84F2002A7CD1091B260CA7B25C
:10F480000123B1FBF6F02A0C06FB101142EA014100
:10F4900007FB00F28A4207D9091900F1FF3C02D2AA
:10F4A0008A4200F2C3806046891AB1FBF6F2ADB21F
:10F4B00006FB121145EA014507FB02F7AF4208D9E6
:10F4C0002C1902F1FF3180F09680A74240F2938020
:10F4D000023A42EA004210461946BDE8F00F704772
:10F4E00000231A4610461946BDE8F00F7047C6F1D2
:10F4F000200522FA05F4B3401C434FEA144821FAD0
:10F5000005F301FA06F720FA05F5B3FBF8FC2F43E3
:10F5100008FB1C333D0C1FFA84FA45EA03430AFB3F
:10F520000CF9994502FA06FB04D91B190CF1FF32BC
:10F530006DD39446C9EB0303B3FBF8F508FB153311
:10F54000BFB247EA03470AFB05F8B84504D93F199B
:10F5500005F1FF3361D31D4645EA0C4CACFB0B2390
:10F56000C8EB07079F424FF0000549D345D06246DC
:10F570002B4663E79440C2F1200321FA03FC260CDA
:10F5800020FA03F301FA02F5BCFBF6F843EA0501A1
:10F590000B0C06FB18CCA7B243EA0C4C07FB08F394
:10F5A000634500FA02F509D91CEB040C08F1FF329F
:10F5B0003AD2634538D9A8F10208A444C3EB0C0C35
:10F5C000BCFBF6F389B206FB13CC41EA0C4107FB06
:10F5D00003F28A4207D9091903F1FF3022D28A4285
:10F5E00020D9023B2144891A43EA084349E73A46B5
:10F5F0000CE733461FE70A466BE7B0409042B6D2AD
:10F600000CF1FF32002319E73346324616E79945DD
:10F610008FD9ACF1020C23448CE7B8459BD9023D4D
:10F62000274499E70346DEE79046C7E702382144BE
:10F630003AE700BF024B58221A604FF0FF30704784
:10F6400074520020024B58221A604FF0FF3070476E
:10F6500074520020F8B500BFF8BC08BC9E46704745
:10F66000F8B500BFF8BC08BC9E46704741534349FB
:10F6700049205461626C65207E2043686172616339
:10F68000746572204D6170002C206465633A20001F
:10F690002C206865783A20002C206F63743A200093
:10F6A0002C2062696E3A2000D0FA0100B0F6010009
:10F6B000355072696E74000030FB0100C4F6010021
:10F6C000A8F60100375753747265616D00000000A1
:10F6D00030FB0100DCF60100B8F60100313448616E
:10F6E00072647761726553657269616C0000000035
:10F6F0000000000024F7010091C901002DC801009D
:10F700004DC901005DC901006DC901007DC901003D
:10F7100049C90100000000003955415254436C6151
:10F720007373000030FB010018F70100D0F60100F0
:10F73000457863657074696F6E0030203D3D202808
:10F740002A67756172645F6F626A65637420262040
:10F750004358415F47554152445F4D41534B290047
:10F76000443A5C506F727461626C655C617264757E
:10F77000696E6F2D312E382E355C706F7274616238
:10F780006C655C7061636B616765735C5265644254
:10F790006561725C68617264776172655C6E524625
:10F7A00035323833325C302E302E325C636F726506
:10F7B000735C52424C5F6E524635323833325C6D68
:10F7C0006265645F6F735C706C6174666F726D5CB0
:10F7D00072657461726765742E637070004358417E
:10F7E0005F47554152445F494E49545F494E5F500F
:10F7F000524F4752455353203D3D20282A6775619B
:10F8000072645F6F626A6563742026204358415FAB
:10F8100047554152445F4D41534B29004F7065722B
:10F8200061746F72206E6577206F7574206F66202B
:10F830006D656D6F72790D0A004F70657261746F3E
:10F8400072206E65775B5D206F7574206F66206D2A
:10F85000656D6F72790D0A005F707472203D3D20F6
:10F860002854202A29265F6461746100443A5C5060
:10F870006F727461626C655C61726475696E6F2D24
:10F88000312E382E355C706F727461626C655C70FD
:10F8900061636B616765735C526564426561725C4C
:10F8A00068617264776172655C6E524635323833D6
:10F8B000325C302E302E322F636F7265732F5242BE
:10F8C0004C5F6E524635323833322F6D6265645F5D
:10F8D0006F732F706C6174666F726D2F53696E67F2
:10F8E0006C65746F6E5074722E68003A2570006DEE
:10F8F000626564206173736572746174696F6E20F0
:10F900006661696C65643A2025732C2066696C65B4
:10F910003A2025732C206C696E65202564200A002E
:10F92000696E746572727570745F656E61626C6524
:10F930005F636F756E746572203C2055494E543379
:10F94000325F4D415800443A5C506F727461626C92
:10F95000655C61726475696E6F2D312E382E355C71
:10F96000706F727461626C655C7061636B61676516
:10F97000735C526564426561725C68617264776150
:10F9800072655C6E524635323833325C302E302E22
:10F99000325C636F7265735C52424C5F6E524635E7
:10F9A000323833325C6D6265645F6F735C706C61BA
:10F9B00074666F726D5C6D6265645F6372697469B1
:10F9C00063616C2E6300696E746572727570747316
:10F9D0005F64697361626C6564000000B0040000DC
:10F9E00000F004006009000000D00900C01200000F
:10F9F00000B01300802500000050270040380000B0
:10FA000000003B00004B000000A04E008070000092
:10FA100000F07500127A00000000800000960000DF
:10FA200000509D00C0DA00000010E50000E1000079
:10FA300000F0EB00002C010000903A0100C2010030
:10FA400000E0D7010084030000B0AF0390D00300B2
:10FA5000000000040008070000705F0700100E009F
:10FA600000D0BE0E40420F00000000100B0C0D0E27
:10FA70000F1011121314161718191A1B03041C1D4A
:10FA80001E1F050607080215090A000129D30100F7
:10FA90002DD3010041D3010051D3010035D3010022
:10FAA0008CFA01001452002095D0010099D0010079
:10FAB000B1D00100C1D00100A5D00100A8FA010019
:10FAC0001C5200200000000000000000F8FA0100B5
:10FAD00015D5010029D50100E1D70100E5D70100C6
:10FAE00055D50100D3D401003BD501007BD50100E1
:10FAF00007D501000000000030FB010004FB0100FD
:10FB00008CFB01004E31305F5F637878616269760B
:10FB10003131375F5F636C6173735F747970655FF8
:10FB2000696E666F450000000000000058FB010090
:10FB3000B5D50100C9D50100E1D70100E5D7010025
:10FB400055D50100D3D401008BD601000FD601009A
:10FB5000DBD501000000000030FB010064FB010068
:10FB6000F8FA01004E31305F5F6378786162697640
:10FB70003132305F5F73695F636C6173735F747997
:10FB800070655F696E666F4500000000D0FA010085
:10FB900094FB0100537439747970655F696E666F08
:10FBA0000000000000000000000000008CFB0100CD
:10FBB000D5D70100EDD70100E1D70100E5D701005D
:10FBC0002FD80100E9D70100D0FA0100FCFB0100A9
:10FBD0004E31305F5F637878616269763131395FC9
:10FBE0005F666F726569676E5F657863657074697B
:10FBF0006F6E4500D0FA0100D0FB01004E31305F3E
:10FC00005F637878616269763131355F5F666F7204
:10FC10006365645F756E77696E644500000000007F
:10FC200000000000000000000000000000000000D4
:10FC300000000000000000000000000000000000C4
:10FC400000000000000000000000000000000000B4
:10FC500000000000000000000000000000000000A4
:10FC60000000000000000000000000000000000094
:10FC70000000000000000000000000004300000041
:10FC800014500020232D302B2000686C4C0065663A
:10FC900067454647003031323334353637383941DD
:10FCA00042434445460030313233343536373839F3
:0CFCB000616263646566000000000000F3
:10FCBC0008B10181B0B000840000000008B10181DE
:10FCCC00B0B000840000000008B10181B0B0008425
:10FCDC000000000008B10181B0B0008400000000F9
:10FCEC0008B10181B0B000840000000008B10181AE
:10FCFC00B0B000840000000008B10181B0B00084F5
:10FD0C000000000008B10181B0B0008400000000C8
:10FD1C0008B10181B0B000840000000008B101817D
:10FD2C00B0B000840000000008B10181B0B00084C4
:10FD3C000000000008B10181B0B000840000000098
:0CFD4C0008B10181B0B00084000000008C
:10FD5800FCC6FF7F0100000068C7FF7FB0B0A88025
:10FD680000C8FF7F01000000BCCAFF7FAB08B1805C
:10FD7800D6CAFF7FB0B0AA80EECAFF7F38FFFF7FE8
:10FD8800EECAFF7F3CFFFF7FF0CAFF7FA908B18062
:10FD980014CBFF7FB0A90A8048CBFF7FAB08B180A6
:10FDA8007CCBFF7F0100000078CBFF7FA908B180E2
:10FDB80084CBFF7F18FFFF7F88CBFF7F0100000007
:10FDC80084CBFF7F14FFFF7F8CCBFF7F18FFFF7F63
:10FDD80094CBFF7F1CFFFF7F9CCBFF7F20FFFF7F23
:10FDE800A8CBFF7F24FFFF7FB0CBFF7F010000007F
:10FDF800B4CBFF7FA908B180D8CBFF7FB0B0AA8071
:10FE080018CCFF7F0100000052CCFF7F08FFFF7F66
:10FE180058CCFF7F0100000094CCFF7F04FFFF7FD8
:10FE280098CCFF7F0100000090E4FF7FB0A902801A
:10FE380034E5FF7FB0B0A88084E5FF7F01000000B3
:10FE480090E5FF7FB0B0AA80C8E5FF7FAE71B280B1
:10FE58009CE6FF7F0100000098E6FF7FAB3F3880FB
:10FE6800F0E6FF7F01000000FCE6FF7FB0B0AA804B
:10FE780038E7FF7F0100000044E7FF7FB0FEFF7F07
:10FE88004CE7FF7F01000000E4E7FF7FAB0EB28084
:10FE98004CE8FF7FB0AF0A8028EBFF7F010000002D
:10FEA80038EBFF7FAC3F03807CEDFF7F0100000053
:10FEB80054EFFF7F0084048068EFFF7F010000009B
:10FEC80064EFFF7FB0AD0480E8F1FF7F0084048019
:10FED8000CF2FF7F64FEFF7F10F2FF7F68FEFF7F5A
:08FEE8001CF2FF7F0100000085
:10FEF000210000000090D0037852002019D70100A3
:10FF000055CA0100000000001CFC01003CFC01007F
:10FF10005CFC010000000000000000000000000088
:10FF2000000000007CFC0100000000000000000058
:10FF300000000000000000000000000000000000C1
:10FF400000000000000000000000000000000000B1
:10FF500000000000000000000000000000000000A1
:10FF6000000000001450002025C4010029CA01002F
:08FF700001C4010000000000C3
:10FF78000000000000000000000000000000000079
:10FF88000000000000000000000000000000000069
:10FF98000000000000000000000000000000000059
:10FFA8000000000000000000000000000000000049
:10FFB8000000000000000000000000000000000039
:10FFC8000000000000000000000000000000000029
:10FFD8000000000000000000000000000000000019
:10FFE8000000000000000000000000000000000009
:08FFF800000000000000000001
:020000022000DC
:1000000000000000000000000000000000000000F0
:1000100000000000000000000000000000000000E0
:1000200000000000000000000000000000000000D0
:1000300000000000000000000000000000000000C0
:1000400000000000000000000000000000000000B0
:040000031000C569BB
:00000001FF
