:020000021000EC
:10C0000000000120DDC501001DC601001FC60100A2
:10C0100021C6010023C6010025C601000000000062
:10C02000000000000000000000000000FDE1010031
:10C0300029C60100000000001DE201002DC601001C
:10C040002FC601002FC60100C9CC01002FC6010078
:10C050002FC601002FC601002FC601002FC6010008
:10C060002FC601002FC601002FC601002FC60100F8
:10C070002FC601002FC601002FC601002FC60100E8
:10C080002FC6010005E001002FC601002FC60100E8
:10C090002FC601002FC601002FC601002FC60100C8
:10C0A0002FC601002FC601002FC601002FC60100B8
:10C0B0002FC601002FC60100000000000000000094
:10C0C0002FC601002FC601002FC601002FC6010098
:10C0D0002FC601002FC601002FC60100000000007E
:10C0E0000000000000000000000000000000000050
:10C0F0000000000000000000000000000000000040
:10C10000000000000000000000000000000000002F
:10C11000000000000000000000000000000000001F
:10C40000044B05481B1A062B02D9044B03B11847ED
:10C41000704700BF43390020403900200000000071
:10C4200005490648091A891001EBD171491002D05B
:10C43000034B03B1184770474039002040390020B2
:10C440000000000010B5064C237843B9FFF7D8FF71
:10C45000044B13B10448AFF300800123237010BDD7
:10C460004039002000000000A012020008B5084B6F
:10C470001BB108490848AFF300800848036813B9A6
:10C48000BDE80840CCE7064B002BF9D09847F7E70A
:10C490000000000044390020A01202003C390020B6
:10C4A00000000000154B002B08BF134B9D46A3F561
:10C4B000803A00218B460F461348144A121A01F0A5
:10C4C00074FF0F4B002B00D098470E4B002B00D071
:10C4D00098470020002104000D000D48002802D0DC
:10C4E0000C48AFF3008001F01FFF2000290000F08E
:10C4F00013FC01F005FF00BF000008000000012050
:10C50000000000000000000040390020403B0020F7
:10C51000000000000000000010B5064C4FF416515A
:10C52000204600F07FFA20460349BDE8104000F0A5
:10C5300007BA00BF5C390020D80D020010B5184CB6
:10C540001848217800F0A6FA1749164800F0E9F9D2
:10C550000A222168134800F057FA1449114800F0E4
:10C56000E0F9102221680F4800F04EFA10490D48FA
:10C5700000F0D7F9082221680A4800F045FA0D4971
:10C58000084800F0CEF902222168064800F03EFA81
:10C5900023687E2B00D1FEE70133236010BD00BF6E
:10C5A000803800205C390020F40D0200FC0D0200F0
:10C5B000040E02000C0E020008B50121112000F04B
:10C5C00037F8112000F068F81320012100F030F84E
:10C5D0001320BDE8084000F05FB800000A490B4A8C
:10C5E0000B4B9B1A03DD043BC858D050FBDC0948B9
:10C5F00009494FF0AD32026004300439FBD100F03C
:10C6000089F8FFF74FFF0000AC12020080380020CD
:10C610004039002000F8002000080000FEE7FEE797
:10C62000FEE7FEE7FEE7FEE7FEE7FEE7FEE7FEE7E2
:10C630001F281BD80E4B53F82030032916D8DFE8EB
:10C6400001F0020E060A03F5E07300210AE003F58B
:10C65000E0730C2106E003F5E073042102E003F52A
:10C66000E07303214FF0A04242F82310704700BF4F
:10C67000140E02001F280CD8064B53F8200001238B
:10C680004FF0A042834011B9C2F80C357047C2F890
:10C6900008357047140E02000021FFF7EBBF0000C1
:10C6A000094B1B78062B0CD1084B1B681A0708D1C5
:10C6B000074B186800F0F000A0F1300358425841D1
:10C6C00070470020704700BFE00F00F0E40F00F05B
:10C6D000E80F00F00C4B1B78062B10D10B4B1B689E
:10C6E0001A070CD10A4B186800F0F003302B08D061
:10C6F00000F0E000A0F1400358425841704700208C
:10C7000070470120704700BFE00F00F0E40F00F019
:10C71000E80F00F008B5FFF7DDFF28B15A4B5B4A80
:10C720001B68C3F304231360FFF7BAFF10B1584B23
:10C73000584A1A60FFF7CEFF28B1574B574A1B687B
:10C74000C3F342331360FFF7ABFF20B1544AD36801
:10C7500023F08073D360FFF7BDFF40B14FF08043FB
:10C760000022C3F80C21C3F81021C3F83825FFF7C5
:10C7700097FF10B14B4B03221A60FFF791FF40B1B6
:10C78000494B05221A6001229A6700229A603F22D3
:10C790005A60464B1B78062B09D1454B1B6819077D
:10C7A00005D1444B1B6803F0F003502B24D0FFF756
:10C7B00091FF28B1404B414A1B6803F04F031360BF
:10C7C000FFF788FF48B14FF08043D3F80024D20729
:10C7D00044BF6FF00102C3F80024394AD2F8883010
:10C7E00043F47003C2F88830BFF34F8FBFF36F8FED
:10C7F000344B354A1A6008BD4FF08052334BD2F8A3
:10C800000414C3F82015D2F80814C3F82415D2F87C
:10C810000C14C3F82815D2F81014C3F82C15D2F84C
:10C820001414C3F83015D2F81814C3F83415D2F81C
:10C830001C14C3F84015D2F82014C3F84415D2F8DC
:10C840002414C3F84815D2F82814C3F84C15D2F8AC
:10C850002C14C3F85015D2F83014C3F85415D2F87C
:10C860003414C3F86015D2F83814C3F86415D2F83C
:10C870003C14C3F86815D2F84014C3F86C15D2F80C
:10C880004424C3F8702592E724030010403501408A
:10C8900074C007400DF0ADBA440200103C050040E2
:10C8A000F0ED00E0A005004010560040E00F00F061
:10C8B000E40F00F0E80F00F058020010E40E004012
:10C8C00000ED00E0843800200090D00300C000405C
:10C8D0002DE9F04106460D4601EB02080C464445A1
:10C8E000A4EB050707D0336814F8011B1B6830461A
:10C8F00098470028F3D13846BDE8F08170B5054669
:10C900000C46084649B102F089FA2B6802462146D6
:10C9100028465B68BDE87040184770BD03685B68D7
:10C92000184708B5FFF7EAFF08BD03681B681847FA
:10C9300008B50249FFF7E2FF08BD00BFE60E02009E
:10C9400038B50546FFF7DAFF04462846FFF7F0FF43
:10C95000204438BD0EB430B5C2B045AB054653F8DF
:10C96000042B01934FF4807102A802F08BFA02A904
:10C97000044602462846FFF7D1FF204642B0BDE8F4
:10C98000304003B07047F0B58BB000238DF82430F1
:10C99000012A98BF0A220DF12305B1FBF2F402FB34
:10C9A0001416F3B2092E94BF30333733DBB22F465F
:10C9B000214605F80139002CEFD13946FFF79EFFDB
:10C9C0000BB0F0BD2DE9F04107460E4615462AB9D9
:10C9D0000368C9B21B68BDE8F04118470A2A02D1B2
:10C9E000002901DA04E0D2B2BDE8F041FFF7CBBF85
:10C9F0002D21FFF79AFF2A46044671423846FFF779
:10CA0000C2FF2044BDE8F081FFF7DCBF38B5054622
:10CA1000FFF7D8FF04462846FFF78AFF204438BDB9
:10CA20000120704703681322DB69184790F85C30D7
:10CA30005AB2520910B4012120320F4C03F01F03E7
:10CA400001FA03F344F8223003695DF8044B042231
:10CA5000C3F8082300225960D960C3F800254FF0BD
:10CA6000FF32C3F80C251430C3F81425C3F8082589
:10CA7000C3F8102501F03ABA00E100E0143001F0EB
:10CA800035BA143001F044BA143001F047BA14300A
:10CA900001F030BA38B5044600230D464FF0FF329E
:10CAA0001946406E00F038FB2269C2F81C55D2F8D6
:10CAB0001C31002BFBD00023C2F81C3119461A464A
:10CAC000606E00F05BFA012038BD000038B50269E5
:10CAD00090F85E30C2F80C3590F85D30C2F814352D
:10CAE00090F86130012B044601BF90F85F00C2F856
:10CAF000100594F86000C2F8080518BF0023B1F5CE
:10CB0000966FC2F86C352ED9B1F5166F2ED9B1F5E6
:10CB1000965F2ED9B1F5165F2DD9B1F5615F2CD98D
:10CB2000B1F5964F2BD9B1F5E14F2AD9B1F5164F92
:10CB300029D9B1F5614F29D9B1F5963F29D9B1F578
:10CB4000E13F28D9B1F5613F28D9374B994228D91F
:10CB5000B1F5E12F28D9B1F5612F8CBF4FF080538B
:10CB60004FF0706322E04FF49E231FE04FF41D232B
:10CB70001CE02E4B1AE02E4B18E02E4B16E02E4BED
:10CB800014E02E4B12E04FF41D030FE04FF46B0343
:10CB90000CE02B4B0AE04FF0EB7307E04FF06C73A7
:10CBA00004E04FF0806301E04FF0E863C2F8243501
:10CBB00000210423C2F80035C2F80811C2F81C1184
:10CBC000012111609160C2F8043394F85C2053B2E3
:10CBD000D2B202F01F055809A9406030194D002B50
:10CBE00045F8201006DA184B02F00F0213446022B9
:10CBF0001A7606E003F1604303F56143602283F88F
:10CC0000002394F85C300F495AB20125520903F011
:10CC10001F0305FA03F341F82230284600F02EFAEC
:10CC200084F86250606638BD90D0030000B01300F5
:10CC30000050270000F03A0000A04E0000C0750030
:10CC400000903A0100E100E0FCEC00E02DE9F04149
:10CC50001E464FF47A7300258360104B45600446EE
:10CC600040F8143B1746884601F02AF90C4AC4F8EC
:10CC7000108052F8263084F85D309DF8183084F822
:10CC80005C7052F8233084F85E3084F86150656639
:10CC900084F862502046BDE8F08100BFA80E020073
:10CCA000140E02000369D3F8082110B504464AB1F6
:10CCB000D3F818151430C9B201F00DF92369002218
:10CCC000C3F8082110BD00000148FFF7EBBF00BF0B
:10CCD0005C39002007B5062300930222082303498C
:10CCE0000348FFF7B3FF03B05DF804FB00200040EA
:10CCF0005C39002008B5FFF70FFC064C4FF080555B
:10CD0000FFF71CFC656040BFBFF34F8FBFF36F8F11
:10CD1000F6E700BF00ED00E01FB500F033F8FFF7C5
:10CD20004BFC114B114C13B1AFF300802060104944
:10CD300001910023012122880393029300910D4861
:10CD40000D4900F0F9FA01F09DF800F0D7FBBFF3B0
:10CD50004F8F0A490A4BCA6802F4E0621343CB6062
:10CD6000BFF34F8F00BFFDE70000000088380020B0
:10CD7000C4390020F5CC0100D00E020000ED00E027
:10CD80000400FA05114BD3F84025114B1A604FF0FF
:10CD900080430122C3F818259A600E4B4FF40031EE
:10CDA000C3F8801003F1C04303F53C534FF48031C6
:10CDB000C3F84813C3F808135A609A604FF0A043B1
:10CDC0004FF0FF32C3F80825704700BF00A00040B5
:10CDD000C839002000E100E038B51546026C044671
:10CDE00032B9056845BB406800F03AFE656024E052
:10CDF0006DB9806801F0CEFAA268236C13446268B2
:10CE0000A360934218D32368A360284615E0C06846
:10CE100001F0C0FA236CE26821685B421A448A423E
:10CE2000E2603EBF62689B18E360022D04D1A36BF1
:10CE300013B1A36B013BA3630020A36B0133A36376
:10CE400038BD034610B41A6C084662B1D9685C68F4
:10CE50001144A142D96024BF1968D960D9685DF82E
:10CE6000044B01F097BA5DF8044B704738B504469F
:10CE700001F0B0F804F12405A36C002B0BDD636A0C
:10CE80004BB1284600F024FD08B100F08BFDA36CE7
:10CE9000013BA364F0E74FF0FF33A36401F0A4F873
:10CEA00001F098F804F11005636C002B0BDD236989
:10CEB0004BB1284600F00CFD08B100F073FD636C27
:10CEC000013B6364F0E74FF0FF336364BDE8384033
:10CED00001F08AB838B504460D4601F07BF8206CA5
:10CEE000E36B2268A2604343D1181B1A13446160AC
:10CEF000E36000214FF0FF33A1636364A3648DB945
:10CF00002369BBB104F1100000F0E2FC012811D14B
:10CF10000A4B4FF080525A6040BFBFF34F8FBFF3B0
:10CF20006F8F07E004F1100001F0A8F904F124006C
:10CF300001F0A4F901F058F8012038BD00ED00E03F
:10CF4000F8B5064617460D4611B14843013000E0DA
:10CF50000846543000F036FF044668B10DB9206031
:10CF600002E000F154030360E663256401212046DA
:10CF7000FFF7B0FF84F850702046F8BD2DE9FF4759
:10CF80000026DFF8F4A00192044689461F46B04609
:10CF900001F020F8A26BE36B9A4201D3022F1BD160
:10CFA0003A4649462046FFF717FF636A33B104F15A
:10CFB000240000F08DFC01280AD100E040B12E4B86
:10CFC0004FF080525A6040BFBFF34F8FBFF36F8F57
:10CFD00001F00AF801204BE0019D1DB901F004F8B1
:10CFE000284645E016B902A800F0AAFC00F0FCFFB4
:10CFF00000F0B0FA00F0EEFF636C013308BFC4F834
:10D000004480A36C013308BFC4F8488000F0ECFFF3
:10D0100001A902A800F0A0FC20BB00F0DBFFA66B7A
:10D02000E56B00F0E1FFAE4216D1019904F110006A
:10D0300000F016FC2046FFF719FF00F019FB08B1BD
:10D040000126A5E74FF08053CAF8043040BFBFF374
:10D050004F8FBFF36F8FF3E72046FFF707FF00F016
:10D0600007FBEDE72046FFF701FF00F001FB002082
:10D0700004B0BDE8F08700BF00ED00E070B50646E3
:10D08000542000F09FFE0446D8B101230025C3635D
:10D090004FF0FF33856345604364056083648560BA
:10D0A000C560056480F85060103001F0E7F804F1C5
:10D0B000240001F0E3F82B462A4629462046FFF7D4
:10D0C0005DFF204670BD70B504461546EFF311862E
:10D0D000402282F31188806BE26B904201D3022BD5
:10D0E00016D11A462046FFF777FEA36C01330AD10A
:10D0F000636A5BB104F1240000F0EAFB30B12DB1AA
:10D100000120286005E0A36C0133A364012000E046
:10D11000002086F3118870BD2DE9FF470026DFF857
:10D1200018A10192044688469946374600F052FFFE
:10D13000A36B6BB341462046E568FFF782FEB9F169
:10D14000000F10D1A36B013BA363236813B900F058
:10D15000B1FC60602369BBB104F1100000F0B8FBC2
:10D16000012811D107E0636AE5606BB104F1240086
:10D1700000F0AEFB40B1304B4FF080525A6040BFE0
:10D18000BFF34F8FBFF36F8F00F02EFF012050E0F1
:10D19000019D1DB900F028FF28464AE016B902A8F3
:10D1A00000F0CEFB00F020FF00F0D4F900F012FFF9
:10D1B000636C013308BF6764A36C013308BFA764C5
:10D1C00000F012FF01A902A800F0C6FB58BB00F056
:10D1D00001FFA56B00F008FFFDB9236833B900F02B
:10D1E000F9FE606800F004FC00F0FEFE019904F115
:10D1F000240000F035FB2046FFF738FE00F038FA37
:10D2000008B1012692E74FF08053CAF8043040BFBE
:10D21000BFF34F8FBFF36F8FF3E72046FFF726FE74
:10D2200000F026FAEDE72046FFF720FE00F020FA96
:10D23000002004B0BDE8F08700ED00E0054B1A685F
:10D2400012B19A682AB9012243F8321003EBC203E3
:10D2500058607047203B002038B504460D4600F06A
:10D26000B9FE636C013304BF00236364A36C013314
:10D2700004BF0023A36400F0B7FEA36B23B92946C3
:10D2800004F1240000F00EFB2046BDE83840FFF713
:10D29000EDBD0000074B1B68D86A48B9064B1B68F8
:10D2A000012B06D8054A064B1B681068181A7047F0
:10D2B00000207047803A0020083A00209C3A002065
:10D2C0008C380020064A13681968064B11B94FF0D4
:10D2D000FF3203E01268D268D26852681A60704761
:10D2E000D03900208C3800200E4B1A6810B55060E1
:10D2F0000D4A12689042044607D20C4A1068196819
:10D30000BDE81040043100F0D3BF094A1068196825
:10D31000043100F0CDFF074B1A68944238BF1C60FF
:10D3200010BD00BF803A00209C3A0020A03A0020A7
:10D33000D03900208C3800202DE9F84F9A460C9BFC
:10D340000A9F81460E4615463BB9900000F03AFD13
:10D350008346002800F0B18000E09B46542000F096
:10D3600031FD044688B1AD002A46C0F830B0A52191
:10D37000584601F01AF8236B043D1D4425F00705BB
:10D38000731E04F13302073605E0584600F026FD0F
:10D3900093E0B34206D013F8011F02F8011F197879
:10D3A0000029F6D1042F4FF00008BB4604F1040613
:10D3B00028BF4FF0040B304684F83B80C4F82CB0F3
:10D3C000C4F844B0C4F8488000F063FF04F11800CA
:10D3D00000F05FFFCBF10503A361C4F84C8024612A
:10D3E000646284F8508052464946284600F0BAFDEF
:10D3F0000B9B206003B11C6000F0ECFD314A324D04
:10D400001368DFF8EC90013313602B683BBB2C6092
:10D410001268012A2BD1984609EB080008F114087C
:10D4200000F02CFFB8F1640FF6D1DFF8C8A0DFF8E8
:10D43000C880504600F022FF404600F01FFF2348FE
:10D4400000F01CFF224800F019FF224800F016FFF0
:10D45000214BC3F800A0214BC3F8008007E0204B0C
:10D460001B6823B92B68DB6A9F4228BF2C601D4ACA
:10D470001368013313601C4AE3631168E36A1420E4
:10D480008B4200FB0390314688BF136000F004FF1D
:10D4900000F0AAFD124B1B6863B12B68DB6A9F4248
:10D4A00008D9124B4FF080525A6040BFBFF34F8FE4
:10D4B000BFF36F8F0120BDE8F88F4FF0FF30BDE85C
:10D4C000F88F00BFA83A0020803A0020843A00205C
:10D4D0006C3A0020B03A0020D0390020A03A002059
:10D4E000D4390020A43A0020C43A002000ED00E026
:10D4F000083A0020DC390020F03900201FB5002454
:10D500000F4B0193039402940094234664220D4927
:10D510000D48FFF711FF01280FD100F021FB012872
:10D520000BD1402383F31188084B1860084B1C6013
:10D5300004B0BDE8104000F027BD04B010BD00BF2E
:10D54000AC3A0020D50E020045D70100D4390020A6
:10D550009C3A0020024A136801331360704700BFF1
:10D56000983A0020014B1868704700BF9C3A002091
:10D57000024A136818441060704700BF9C3A0020AC
:10D580002DE9F84F2F4B1B6823BB2F4B1A68013234
:10D590001A601F685FB92D4A2D4B1168186810601A
:10D5A0002C4A1960136801331360FFF78BFE2A4E73
:10D5B00033689F424FF000043BD3DFF89080DFF8E0
:10D5C000A890DFF8A8B0D8F800301B6843B94FF036
:10D5D000FF330CE0214A136801331360002428E074
:10D5E000D8F80030DB68DD686B689F4201D2336099
:10D5F0001FE005F1040A504600F072FEAB6A1BB151
:10D6000005F1180000F06CFEEB6AD9F80020142038
:10D61000934200FB03B0514688BFC9F8003000F0C8
:10D620003BFE0F4BEA6A1B68DB6A9A4228BF012463
:10D63000C9E70C4B1B68002B18BF01242046BDE82E
:10D64000F88F00BF983A00209C3A0020D039002083
:10D65000A03A0020CC3900208C380020043A002069
:10D66000803A0020C83A0020C43A0020083A00203E
:10D670002DE9F04100F0AEFC294B1A68013A1A601E
:10D680001B680BB1002446E0264B1B68002BF9D029
:10D69000254D264EDFF8A8802B68F3B1EB68DC68D7
:10D6A000271D04F1180000F01BFE384600F018FE9C
:10D6B000E36A32681420934200FB0380394688BF36
:10D6C000336000F0E9FD1A4BE26A1B68DB6A9A429C
:10D6D000E2D3184B01221A60DCE7174C23686BB9C0
:10D6E000144B1C68012CCDD1144B4FF080525A6062
:10D6F00040BFBFF34F8FBFF36F8F0CE00D4D01267E
:10D700002368002BECD0FFF73BFF00B12E602368AD
:10D71000013B2360F4E700F067FC2046BDE8F081A0
:10D72000983A0020A83A0020843A0020C43A002009
:10D73000803A0020C83A0020043A002000ED00E0C2
:10D74000083A0020F8B5214D2E46214F2B68F3B141
:10D75000FFF700FF3C68FFF78BFF002CF6D000F0CE
:10D7600039FC1B4BDB68DC68201D00F0B9FD194A51
:10D770001368013B13603368013B336000F034FCF5
:10D78000206B00F02BFB204600F028FBDEE7124B5D
:10D790001B68012B08D9114B4FF080525A6040BFD3
:10D7A000BFF34F8FBFF36F8F00F0CAFBFFF772FD1F
:10D7B0000128CAD9FFF7CEFEFFF76CFD012801D979
:10D7C00000F076FCFFF754FFBFE700BFD839002018
:10D7D0006C3A0020A83A0020083A002000ED00E052
:10D7E00038B51A4B1A681A4B12B101221A6038BDAB
:10D7F000184C1A602268236812681B6B9A4204D87E
:10D8000020682168343100F091FB134A1348142535
:10D81000136812496B43C3581BB91368013B13606B
:10D82000F6E70D4B1A6814235343C81808334568AC
:10D830006D6845600B449D4204BF6B6843601423D0
:10D8400003FB02125368DB68236038BD983A00205E
:10D85000C83A0020803A0020C43A0020083A00204C
:10D8600038B50D4C0D462168183100F021FD2068B7
:10D87000043000F035FD6B1C06D1216807480431E7
:10D88000BDE8384000F008BD054B18682844BDE8E5
:10D890003840FFF729BD00BF803A0020B03A002091
:10D8A0009C3A002038B5084C0D462168183100F02C
:10D8B000F3FC2068043000F013FD044B1868284482
:10D8C000BDE83840FFF710BD803A00209C3A0020A8
:10D8D00038B5C368DC6804F11805284600F000FD7F
:10D8E000114B1B687BB9251D284600F0F9FC0F4A37
:10D8F000E36A11688B4288BF13600D4A14202946E1
:10D9000000FB032001E00B48294600F0C5FC0A4B50
:10D91000E26A1B68DB6A9A4285BF084B012000203F
:10D920001860FFF7CFFC38BD983A0020C43A0020B9
:10D93000083A0020843A0020803A0020C83A0020AB
:10D94000034B1B680360034B1B684360704700BFB9
:10D95000CC3900209C3A002038B504460D4600F032
:10D9600039FB0E4B18682B685A1C10D00C4A2168E2
:10D9700012689142626801D090420AD2811A8B42A9
:10D9800007D9121A13442B602046FFF7D9FF002451
:10D9900000E0012400F028FB204638BD9C3A00201E
:10D9A000CC390020014B01221A607047C83A002090
:10D9B000054B1B682BB9054B1868B0FA80F040097D
:10D9C00070470020704700BF843A0020C83A00200A
:10D9D000054B1B6833B1054B1B68002B0CBF0220A5
:10D9E0000020704701207047D4390020983A002069
:10D9F000F8B5044600282CD0164DC36A2A68D26AAE
:10DA0000934226D28269002AA1BF2A68D26AC2F153
:10DA1000050282611048142202FB030362699A42E4
:10DA2000064613D1271D384600F05AFC2B680B4AD6
:10DA3000DB6A1168E3628B4200D913601420394617
:10DA400000FB0360BDE8F84000F026BC2B68DB6AF1
:10DA5000E362F8BD803A0020083A0020C43A002072
:10DA600038B5044608B9002038BD836CC16A426CE1
:10DA7000013B91428364F6D0002BF4D1051D28466A
:10DA800000F02EFC636CE362C3F10502A261074A59
:10DA900011688B4288BF1360054A142000FB0320E5
:10DAA000294600F0F9FB012038BD00BFC43A002030
:10DAB000083A0020044B1A681AB119688A6C0132BE
:10DAC0008A641868704700BF803A0020F8B50F4C90
:10DAD00000F080FA2568ADB90D4F0E4E384600F0C3
:10DAE000CDFB304600F0CAFB0B4B1F600B4B2A46A8
:10DAF000102120201E60FFF723FA206010B1084992
:10DB0000FFF79CFBBDE8F84000F06EBAFC3A00203D
:10DB1000D03A0020E43A0020CC3A0020003B00201C
:10DB2000E90E0200914208B54160006106D8D21AA0
:10DB300083699A420DD2011D074B05E09A4201D23A
:10DB4000994206D2054B011D186800F0B1FB002078
:10DB500008BD012008BD00BF003B0020CC3A0020DA
:10DB60001FB5FFF7B3FF094B1868002350B1084AEF
:10DB7000019202220092039302936422054906480F
:10DB8000FFF7DAFB05B05DF804FB00BFFC3A0020AC
:10DB9000043B0020EE0E020051DC01007FB50F4C6B
:10DBA0000546206816461A46A8B105298DE84200A8
:10DBB00002950CDCFFF70CFF0023022808BF089A2F
:10DBC000206818BF1A466946FFF7D8F903E000231A
:10DBD0006946FFF778FA04B070BD00BFFC3A002038
:10DBE0002DE9F743184E4FF00008374633681A689E
:10DBF0000AB3DB68DC681D6804F10409484600F0DC
:10DC00006FFB636A20469847E369012BEED1A36955
:10DC10002B449D4206D2636024614946386800F077
:10DC200047FBE3E70023CDF800802A46194620464B
:10DC3000FFF7B4FFDAE7054A03491068086013608C
:10DC400003B0BDE8F08300BFCC3A0020003B0020C9
:10DC50002DE9F04786B0DFF868A1DAF800301C68DB
:10DC600014B1DB681D6800E02546524FFFF772FCD7
:10DC7000FFF778FC3B6898420646B84604D2FFF7A7
:10DC8000AFFF4FF0010901E04FF000093E604A4F3D
:10DC9000B9F1000F34D114B3AE4220D3FFF7E8FC42
:10DCA000DAF80030DB68DC68201D00F019FBE3695E
:10DCB000012B10D1A1692B46324629442046FFF79B
:10DCC00031FF012807D1CDF800904B462A4649463E
:10DCD0002046FFF763FF636A204698471DE0A91BB3
:10DCE0003868FFF7B9FAFFF7C3FCB0B9334B4FF010
:10DCF00080525A6040BFBFF34F8FBFF36F8F0CE06D
:10DD0000FFF7B6FC09E0029B002B03DA05990498A3
:10DD1000039B9847029B002B08DA00231A4602A9AE
:10DD20003868FFF7F9F90028EDD194E7049C63699E
:10DD300013B1201D00F0D4FAFFF714FCD8F800301E
:10DD40009842054601D2FFF74BFF029AC8F80050EF
:10DD5000092AE2D80123934013F4047621D113F069
:10DD6000C70F05D19B06D8D5204600F037F8D4E779
:10DD7000A169039B2A4619442046FFF7D3FE0128D8
:10DD8000CBD1636A20469847E369012BC5D1A269CC
:10DD9000039900960A44334631462046FFF7FEFEBB
:10DDA000BBE70399A1612B462A4629442046FFF789
:10DDB000B9FEB2E7F83A0020FC3A002000ED00E09E
:10DDC000CC3A002010B50446FFF7C4FB204600F013
:10DDD000D1FA0446FFF74CFC204610BD10B50446AE
:10DDE00040B1FFF7B7FB204600F0CCFABDE8104089
:10DDF000FFF73EBC10BD10B50446FFF7E9FD012852
:10DE0000204603D1BDE8104000F0BCBABDE8104088
:10DE1000FFF7E4BF30B51A4D85B000234FF0FF3255
:10DE200003A92868FFF778F90028F6D00398037A49
:10DE30004468052B1AD8DFE803F00305080C10141A
:10DE4000A04713E0C068A04710E00169C068A04780
:10DE50000CE00C3007C8A04708E00C300FC8A04702
:10DE600004E0C36900930C300FC8A047039B1868F7
:10DE700008B1FFF7C0FF0398FFF7BDFFCDE700BF74
:10DE8000083B00207FB5002204211420FFF758F83A
:10DE9000084B0949186005AA00230192022200924A
:10DEA000039302934FF480620448FFF745FA07B0EA
:10DEB0005DF804FB083B0020F60E020015DE0100B1
:10DEC00010B540220446002100F06FFA00232364BD
:10DED0006364204610BD026C10B5531C446C03F003
:10DEE0003F039C421CBF8154036410BD00230364A4
:10DEF00043647047436C026C93421FBFC25C0133A2
:10DF000003F03F03436414BF10464FF0FF307047E7
:10DF1000036C406C181A48BF40307047436C026C69
:10DF2000934214BFC05C4FF0FF3070470A4602486E
:10DF30000249FEF70FBD00BF5C3900204D0F020003
:10DF400008B5024B0BB1AFF3008008BD0000000024
:10DF5000014B01221A7070470C3B0020402383F3D1
:10DF60001188FEE74FF0807300E90A00054B40F886
:10DF70000C3C6FF0020340F8202C40F8243C44385D
:10DF8000704700BF5DDF01000F4C08B5E02384F847
:10DF9000223000F071F80D4B00221A60D4F888305E
:10DFA0000B4A43F47003C4F88830536843F040438D
:10DFB0005360236943F01003236100F00DF94023FF
:10DFC00083F31188FEE700BF00ED00E0103B002066
:10DFD00030EF00E0402383F31188024A13680133D5
:10DFE00013607047103B0020034A1368013B136025
:10DFF0000BB983F311887047103B002048DF70474E
:10E0000012DF704773B5194B00221A601B68019329
:10E01000019BEFF31186402383F31188144BD3F84F
:10E020000445C3F8002103F580731B680093009B2F
:10E03000FFF798FA201A20F07F44012C04D9FFF74B
:10E04000C7FC022818BF0124002514F1FF3403D3B4
:10E05000FFF796FA0543F8E725B1064B4FF08052DB
:10E060005A6040BF86F3118802B070BD4011014074
:10E070000010014000ED00E00A4B0B491F22C3F8DD
:10E0800008250122C3F804230A601A600222C3F89B
:10E090004423064BE02283F811234FF400321A6028
:10E0A000704700BF001001400810014000E100E08F
:10E0B000F0B5074685B0EFF3108272B63F4CA36807
:10E0C0008BB90123A3603E4B3E49D3F88000014049
:10E0D00021603C49C3F88010D3F8841061604FF090
:10E0E000FF31C3F8841002B962B6374ED6F8045532
:10E0F000FFF75EFC334600284ED0344887423A464C
:10E1000028BF0246A91821F07F410120C6F8080364
:10E11000C6F840152E4900260E6008680190019847
:10E120004FF48030C3F80403BFF34F8F9AB104A8B3
:10E1300000F8046DFFF764FF9DF80C0008B9204853
:10E1400002E0FFF75BFF06E020BFD0F80071D0F8D7
:10E1500004613E43F8D04FF48030C3F80803002038
:10E1600008600968039103991A49086009680291D7
:10E1700002990121C3F80413D3F80405104B401B86
:10E1800020F07F4090424FF4003128BF1046C3F882
:10E19000801108B1FFF7ECF9A368084A5BB1EFF30F
:10E1A000108372B606491068086050684860002104
:10E1B000916003B962B605B0F0BD00BF303B0020EE
:10E1C00000E100E0FC06FFBC00100140FDFFFF0085
:10E1D00040110140001101400748006880F30888A1
:10E1E00062B661B6BFF34F8FBFF36F8F4FF4F0701D
:10E1F00080F3118800DF00BF00C00100064B1968E2
:10E200000868B0E8F04F80F30988BFF36F8F4FF0D4
:10E21000000080F311887047803A0020EFF30980F6
:10E22000BFF36F8F144B1A681EF0100F08BF20ED5C
:10E23000108A20E9F04F10604DF8043D4FF0400087
:10E2400080F31188BFF34F8FBFF36F8FFFF7C8FACA
:10E250004FF0000080F3118808BC19680868B0E826
:10E26000F04F1EF0100F08BFB0EC108A80F3098841
:10E27000BFF36F8F704700BF803A002000F10803A2
:10E2800043604FF0FF32C36003610023826003608C
:10E29000704700230361704743684B609A688A6047
:10E2A0009A685160996003680861013303607047A0
:10E2B0000A68531C30B501D1036907E000F1080377
:10E2C0005C682568AA4201D32346F9E75A684A6088
:10E2D00091608B605960036808610133036030BD51
:10E2E0004168826803698A6082685160596888421F
:10E2F00008BF5A6000220261186801381860704730
:10E3000008B5074B044613B10021AFF30080054B5D
:10E310001868836A03B19847204602F04FFD00BF9A
:10E3200000000000E010020070B50E4B0E4CE41A25
:10E33000A41000251E46A54204D056F82530984763
:10E340000135F8E702F03CFD084C094BE41AA41033
:10E3500000251E46A54204D056F8253098470135C1
:10E36000F8E770BD2C3900202C3900203839002006
:10E370002C390020024B0146186800F065B800BF38
:10E38000F0380020024B0146186800F017B800BFB3
:10E39000F038002010B5431E0A44914204D011F811
:10E3A000014B03F8014FF8E710BD024403469342C6
:10E3B00002D003F8011BFAE77047000030B50029CE
:10E3C0003ED051F8042C0B1F1E49002AB8BF9B18E1
:10E3D0000A680C4612B95A600B6030BD9A420ED9D9
:10E3E00019685818824204BF106852685A6004BF06
:10E3F00009181960236030BD994203D80A46516854
:10E400000029F9D1146815199D420AD11B682344CB
:10E41000D0188142136013D10868034413604B681D
:10E420000DE002D90C23036030BD18681C18A1420E
:10E4300004BF0C684968596004BF00191860536034
:10E4400030BD00BF183B002070B5CD1C25F0030582
:10E4500008350C2D38BF0C25002D064603DA0C2399
:10E460003360002070BDA942F9D81F4B1C681A46C2
:10E470002146A1B10B685B1B0ED40B2B03D90B609B
:10E48000CC18CD501EE08C420DBF63684B686360B2
:10E49000136018BF0C4615E00C464968E9E7134CB9
:10E4A00023681BB9304600F0A9FC2060294630469D
:10E4B00000F0A4FC431CD2D0C41C24F00304A042EE
:10E4C0000AD1256004F10B00231D20F00700C31AB8
:10E4D00009D05A42E25070BD211A304600F08EFC3D
:10E4E0000130EED1BBE770BD183B0020143B00208B
:10E4F0002DE9FF4755EC104B0D9FDDF830A0002DA6
:10E500000E4691461946B8BF22462B4627F02007F3
:10E51000BBBF05F100431D4600232D23B8BF1446A1
:10E52000462F0B7003D0452F03D1013601E00321A4
:10E5300000E0022103AB019302AB00933246534645
:10E5400045EC104B00F03CFD472F804602D119F0FE
:10E55000010F28D0462F08EB060911D198F800309A
:10E56000302B0AD1002200232046294602F0BEFBB0
:10E5700018B9C6F10106CAF80060DAF8003099440B
:10E58000002200232046294602F0B0FB08B93022C1
:10E5900002E0CDF80C9006E0039B994503D9591C85
:10E5A00003911A70F8E7039B0E9AC8EB03034046E9
:10E5B000136004B0BDE8F08773B503460029B8BF07
:10E5C000494203F8022BB4BF2D222B2209294270A5
:10E5D00019DD0DF1070216460A2591FBF5F405FB3E
:10E5E00014113031092C02F8011D2146F5DC3031BF
:10E5F000541E02F8011CB4421A460AD214F8012B28
:10E6000003F8012BF7E730241A46214402F8024BA5
:10E610005970101A02B070BD2DE9F04F8BB00C4646
:10E6200016461F46DDF85080054601F069FAD0F81D
:10E6300000B0584600F0F2FB00230893D8F80030F1
:10E640000490073323F0070303F1080294F81890AD
:10E65000C8F80020D3E90023C4E9122394ED120B7B
:10E6600000F0A0FB012819D100220023D4E91201F7
:10E6700002F046FB10B12D2384F84330974B984AA3
:10E68000B9F1470F8CBF9046984603232361236856
:10E6900023F0040323604FF0000A8EE094ED120B88
:10E6A00000F080FB226860B98E4B8F4922F0040293
:10E6B000B9F1470F8CBF8846984603232361226037
:10E6C000E9E761684B1C94ED120B08A801D1062301
:10E6D00009E0B9F1670F02D0B9F1470F04D1002961
:10E6E00040F0AF8101236360002342F48062039312
:10E6F00007AB0290009322600DF11B03CDF804904C
:10E7000061682846FFF7F4FE09F0DF03472B8046D7
:10E7100009D1079BD81C02DB6268934230DDA9F166
:10E7200002095FFA89F9B9F1650F079912D8013921
:10E730004A4604F150000791FFF73EFF089A8318FC
:10E74000012A8246236102DC2268D1072FD50133DA
:10E7500023612CE0B9F1660F14D10029636807DD4D
:10E76000216113B92268D2071DD501330B4419E08A
:10E7700013B92268D00701D5023313E0012311E059
:10E780004FF06709079B089A934205DB22682361D3
:10E79000D10708D5013305E0002BD4BFC3F1020334
:10E7A000012313442361079BA3654FF0000A9DF8E2
:10E7B0001B3013B12D2384F843300097334609AA48
:10E7C0002146284600F052F9013002D14FF0FF30C7
:10E7D00048E123685A0501D4236965E0B9F1650F62
:10E7E00040F2D48000220023D4E9120102F07EFA24
:10E7F00078B301233D4A31462846B8470130E5D079
:10E80000089B079A9A420BDB2368D80708D4236831
:10E810009B0740F110814FF0000804F1190905E150
:10E82000049B5A4631462846B8470130CED04FF0B7
:10E83000000804F11A09089B013B9845E7DA012317
:10E840004A4631462846B8470130BFD008F1010892
:10E85000F1E7079B002B29DC0123244A3146284697
:10E86000B8470130B2D0079B23B9089B13B923687E
:10E87000D907CCD5049B5A4631462846B8470130C3
:10E88000A4D04FF0000904F11A0A079B5B42994596
:10E8900009DA0123524631462846B847013095D05F
:10E8A00009F10109F1E7089B4246A6E0089AA36D29
:10E8B0009A42A8BF1A46002A914607DC04F11A03BF
:10E8C0004FF0000A29EAE97905931BE01346314627
:10E8D00042462846B8470130F0D177E7E4100200FD
:10E8E000E8100200EC100200F0100200F410020028
:10E8F0000123059A31462846B84701303FF466AFF8
:10E900000AF1010AA36DC9EB03029245F0DB08EBA3
:10E910000309079A089B9A420FDB2368DA070CD495
:10E92000089B079A9844C9EB08089B1A9845A8BF0A
:10E930009846B8F1000F08DC0FE0049B5A463146B8
:10E940002846B8470130EBD140E743464A463146B6
:10E950002846B84701303FF439AF4FF0000928EAA4
:10E96000E87804F11A0A09E00123524631462846A4
:10E97000B84701303FF42AAF09F10109079A089B13
:10E980009B1AC8EB03039945EEDB40E7089A012A7E
:10E9900001DCDB0738D50123424631462846B8471B
:10E9A00001303FF413AF049B5A4631462846B8471E
:10E9B00001303FF40BAF00220023D4E9120102F032
:10E9C00095F920B14FF0000804F11A090EE0089BF8
:10E9D00008F10102013B19E001234A46314628466D
:10E9E000B84701303FF4F2AE08F10108089B013B43
:10E9F0009845F1DB534604F1500231462846B847AA
:10EA000001307FF404AFE1E6012342463146284657
:10EA1000B8470130EED1D9E601234A4631462846AF
:10EA2000B84701303FF4D2AE08F10108E368099A13
:10EA30009B1A9845F0DBE068099B9842B8BF1846DE
:10EA400010E0002342F48062039307AB029000932E
:10EA50002260CDF804900DF11B032846FFF748FD16
:10EA6000804656E60BB0BDE8F08F00BF2DE9F047B9
:10EA700091461F460A698B68DDF820809342B8BF33
:10EA80001346C9F8003091F8432006460C4612B1EF
:10EA90000133C9F800302368990642BFD9F8003025
:10EAA0000233C9F80030256815F0060510D104F1CD
:10EAB000190A07E00123524639463046C047013063
:10EAC0001AD00135E368D9F800209B1A9D42F1DB8A
:10EAD00094F843302268003318BF012392060FD503
:10EAE000E1185A1C302081F84300224494F8451064
:10EAF00082F84310023303E04FF0FF30BDE8F087A7
:10EB000004F1430239463046C0470130F4D0226850
:10EB1000D9F80050E36802F00602042A08BF5D1B22
:10EB20002269A3680CBF25EAE57500259342C4BF9E
:10EB30009B1AED184FF000091A344D4509D00123F6
:10EB4000224639463046C0470130D5D009F1010987
:10EB5000F3E70020BDE8F0872DE9F04317460A7E71
:10EB600085B06E2A984606460C460C9B01F1430E72
:10EB700000F0AE8011D8632A22D009D8002A00F014
:10EB8000BB80582A40F0CA8081F84520834955E06F
:10EB9000642A1ED0692A1CD0C0E0732A00F0B0801D
:10EBA00009D86F2A2ED0702A40F0B8800A6842F047
:10EBB00020020A603EE0752A24D0782A3AD0ADE0DF
:10EBC0001A6801F14205111D1960136884F842307A
:10EBD000A8E021681A6811F0800F02D0111D196099
:10EBE00008E011F0400F02F10401196002D0B2F9FF
:10EBF000003000E01368002B3CDA2D225B4284F8E1
:10EC0000432037E021681A6811F0800F02D0111DEF
:10EC1000196007E011F0400F02F10401196001D002
:10EC2000138800E01368227E5C496F2A14BF0A2211
:10EC300008221BE078225A4984F845202268186887
:10EC400012F0800F00F104051D6003D1550601D5B7
:10EC5000038800E00368D00744BF42F0200222602E
:10EC60001BB9226822F0200222601022002084F8C2
:10EC7000430001E049490A226568A560002D08DBD0
:10EC8000206820F0040020602BB9002D7DD175464E
:10EC90000CE0002B79D07546B3FBF2F002FB103389
:10ECA000CB5C05F8013D03460028F5D1082A0BD1BD
:10ECB0002368DA0708D5236962689A42DEBF3023E9
:10ECC00005F8013C05F1FF35C5EB0E0323612EE08D
:10ECD00008681A68496910F0800F03D0101D186089
:10ECE000136808E010F0400F02F104001860136888
:10ECF00001D0198000E0196000232361754616E0F9
:10ED00001A68111D1960156862680021284600F014
:10ED1000FFFE08B1401B6060636804E004F1420537
:10ED200084F8422001232361002384F84330CDF886
:10ED300000803B4603AA21463046FFF797FE01308C
:10ED400002D14FF0FF3026E023692A46394630468B
:10ED5000C0470130F5D023689B0710D5002504F18A
:10ED6000190907E001234A4639463046C0470130B9
:10ED7000E7D00135E368039A9B1A9D42F2DBE06815
:10ED8000039B9842B8BF184605E00B7884F84230E0
:10ED900004F142058AE705B0BDE8F083F6100200F1
:10EDA0000711020053EC102B33F0004210B510EEA7
:10EDB000100A1BD00F49A3F580148C4210D903F11F
:10EDC000FF430C4903F5E0038B4209D9B2F5801FDC
:10EDD00008D3094B9A4207D1B0FA80F0400910BD20
:10EDE000042010BD032010BD002010BD0028E6D176
:10EDF000022010BDFFFFDF7F0000F07F38B5064C1A
:10EE0000002305460846236001F0CAFF431C02D1D7
:10EE1000236803B12B6038BD3C3B0020034613F848
:10EE2000012B002AFBD1181A0138704730B5141E87
:10EE300005469BB0184604DA8B232B604FF0FF3059
:10EE40001DE04FF40273ADF80C3014BF04F1FF3332
:10EE50002346029305934FF6FF7300910491ADF89A
:10EE60000E3002461E9B6946284601F005FA431CF7
:10EE7000BCBF8B232B6014B1009B00221A701BB007
:10EE800030BD000007B5009313460A46014603480B
:10EE90000068FFF7CBFF03B05DF804FBF0380020FB
:10EEA0002DE9F74F03690C699C42804600F383808B
:10EEB000013C01F114074FEA840E00F1140657F8E3
:10EEC000245006EB0E030193013556F82430B3FBB2
:10EED000F5F507EB0E09002D39D04FF0000A384642
:10EEE000B446D34650F8042B93B205FB03A34FEA74
:10EEF000134A9BB2C3EB0B03120CBCF800B005FB2A
:10EF000002A213FA8BF34FEA124A1FFA82FBDCF8D3
:10EF10000020CBEB124202EB23429BB243EA0243B6
:10EF200081454FEA224B4CF8043BDBD256F80E30B9
:10EF30006BB9019B043B9E421A4602D3C8F81040AD
:10EF400005E01268043B002AF8D1013CF3E7404693
:10EF500001F03BF800282CDB013530464FF0000E65
:10EF600057F8041BD0F800C08AB2C2EB0E03090C9C
:10EF700013FA8CF3C1EB1C4202EB23429BB243EA2F
:10EF80000243B9454FEA224E40F8043BE8D256F816
:10EF9000242006EB840362B9043B9E421A4602D346
:10EFA000C8F8104005E01268043B002AF8D1013C83
:10EFB000F3E7284600E0002003B0BDE8F08F000032
:10EFC0002DE9F04F59EC108B97B0456A06918246B7
:10EFD00009921093209CCDE9008945B91020FFF7D4
:10EFE000C9F9CAF82400456085600560C560DAF893
:10EFF0002430196859B15A684A60012393408B60E4
:10F00000504600F00AFEDAF8243000221A60019B14
:10F010009F4A002BBFBF01232360019B23F00043C5
:10F02000B8BF0193019FA4BF0023236027F00043D2
:10F030001B0D1B0593421DD1109A42F20F731360F2
:10F04000009B43B9934A944BC7F31300002814BFA5
:10F050001846104600E09048219B002B00F04A859E
:10F06000C37813B100F1080300E0C31C219A1360B8
:10F0700000F040BDDDE9004500220023204629467E
:10F0800001F034FE804658B1109A01231360219B91
:10F09000002B00F0228581481860013800F02ABD5D
:10F0A00014AA15A945EC104B504601F009F8C7F316
:10F0B0000A5602905EB1C5F3130343F07F51204618
:10F0C00041F44011A6F2FF36CDF844801DE0159BB7
:10F0D000149E1E4406F23243202B0ADD009A06F2EB
:10F0E0001240C3F1400322FA00F007FA03F3184379
:10F0F00004E0C3F12000009B03FA00F001F018FBCC
:10F100000123A1F1F871013E11930022644B01F03B
:10F11000D1F959A3D3E9002301F080FB58A3D3E927
:10F12000002301F0C9F9044630460D4601F010FBFA
:10F1300055A3D3E9002301F071FB02460B4620469C
:10F14000294601F0B9F904460D4601F001FE0022FE
:10F15000834600232046294601F0D2FD58B1584687
:10F1600001F0F6FA02460B462046294601F0BEFDA4
:10F1700008B90BF1FF3BBBF1160F0DD8494901EB64
:10F18000CB01DDE90023D1E9000101F0D7FD30B169
:10F190000BF1FF3B002300E001230D9300E00D90F5
:10F1A000149B9E1B731E059343BFC3F100090023EC
:10F1B00005934FF00009BBF1000F07DB059BCDF86D
:10F1C00030B05B4405930023079306E0CBF10003C6
:10F1D00007930023CBEB09090C93069B092B27D837
:10F1E000052BC4BF043B0693069BA3F10203CCBFCF
:10F1F00000250125032B20D8DFE803F0060E0204CA
:10F20000012302E0012308E000230893099B002B5F
:10F210001CDD039398461EE000230893099B5B4482
:10F2200003F1010803934346012BB8BF012312E009
:10F23000012500230693089501E0012308934FF070
:10F24000FF33039398460022122303E00123039324
:10F2500098461A460992DAF8244000226260042196
:10F2600001F114029A421FD86268013262604900BB
:10F27000F6E700BFAFF3008061436F63A787D23F1B
:10F28000B3C8608B288AC63FFB799F501344D33F95
:10F290000000F07F1811020021110200F510020099
:10F2A0000000F83F901102006168504600F080FCB9
:10F2B000DAF8243020601B680493B8F10E0F00F2D6
:10F2C0005D81002D00F05A819DED007BBBF1000FA8
:10F2D0008DED0E7B31DDA04A0BF00F0302EBC30373
:10F2E00093ED007B4FEA2B14E2068DED0A7B0CD5E3
:10F2F0009A4BDDE90E01D3E9082301F0B9FB04F0D4
:10F300000F04CDE90001032600E00226934D6CB105
:10F31000E30708D5DDE90A01D5E9002301F07EFA0B
:10F32000CDE90A01013664100835F0E7DDE90A236A
:10F33000DDE9000101F09CFB20E0CBF1000404B307
:10F34000854B864D04F00F0203EBC203D3E9002383
:10F35000DDE90E0101F062FACDE90001241100237C
:10F36000022654B1E70705D5D5E9002301F056FA86
:10F370000136012364100835F3E71BB1CDE9000124
:10F3800000E002260D9BEBB1DDE900450022744B45
:10F390002046294601F0B4FCA0B1B8F1000F11D00D
:10F3A000039B002B40F3E6800BF1FF330A9300220E
:10F3B0006C4B2046294601F031FA0136CDE90001B7
:10F3C000039F02E0CDF828B04746304601F0C0F96F
:10F3D000DDE9002301F022FA0022634B01F06CF812
:10F3E0000446A1F15075CFB90022604BDDE9000160
:10F3F00001F060F822462B46CDE9000101F09EFCA9
:10F40000002840F04182224605F10043DDE9000179
:10F4100001F076FC002840F02E82ABE0089A4E4BBB
:10F42000791E002A4AD003EBC103D3E90023002050
:10F430004F4901F01DFB22462B4601F03BF8049C8E
:10F4400005460E46DDE9000101F082FC129001F054
:10F450007FF902460B46DDE9000101F02BF8129B13
:10F46000303304F8013B2A463346CDE9000101F070
:10F4700047FC002840F02183DDE9002300203849C3
:10F4800001F018F82A46334601F03AFC002840F013
:10F49000D280049BE31ABB426CDA0022314B28462F
:10F4A000314601F0BBF9002205460E462D4BDDE941
:10F4B000000101F0B3F9CDE90001C3E703EBC1019D
:10F4C00022462B46D1E9000101F0A8F9049BCDE9C1
:10F4D0001201DC191D46DDE9000101F039FC064688
:10F4E00001F036F9303602460B46DDE9000100F046
:10F4F000E1FF05F8016BAC42CDE900014FF00002DD
:10F5000023D11B4BDDE9120100F0D6FF02460B466A
:10F51000DDE9000101F012FC002840F08C80DDE9FB
:10F5200012230020124900F0C5FF02460B46DDE918
:10F53000000101F0E5FBE8B114F8013C302B04F1C7
:10F54000FF3240F0BA821446F6E7064B01F066F946
:10F55000CDE90001BFE700BF901102005812020080
:10F560000000F03F0000244000001C400000144058
:10F570000000E03FDDE90E34CDE90034159B002B9F
:10F580007CDBBBF10E0F79DC8F4B03EBCB03D3E9B4
:10F590000067099B002B14DAB8F1000F11DC40F072
:10F5A0006C810022894B3046394601F037F9DDE99C
:10F5B000002301F0B9FB45464646002840F05F8134
:10F5C00066E1049C32463B46DDE9000101F050FA59
:10F5D00001F0BEFB054601F0BBF832463B4601F0A8
:10F5E0001DF90B460246DDE9000100F063FF05F15D
:10F5F000300E04F801EB049BC3EB040EF045CDE99B
:10F6000000012ED102460B4600F056FF8046894687
:10F6100002460B463046394601F072FB78B9424645
:10F620004B463046394601F061FB002800F0478226
:10F63000E90704D443E2DDF828B000E01C4614F8E2
:10F64000012C392A04F1FF3307D1049A9A42F5D1EB
:10F65000049930220BF1010B0A701A7801321A70EA
:10F660002DE200225A4B01F0D9F800220023CDE907
:10F67000000101F03BFB0028A4D020E2089A002AF8
:10F680002DD0069A012A0ADC119A12B103F23343F3
:10F6900002E0149BC3F13603079D4C4615E0079B1F
:10F6A00008F1FF35AB42BFBF079B0795EA1A0C9BD9
:10F6B000B7BF9B185D1B0C930025B8F1000FB9BFB5
:10F6C000C8EB090400234C464346059A01211A441D
:10F6D00050469944059200F03FFB064602E0079D24
:10F6E000089E4C465CB1059B002B08DDA342059AA1
:10F6F000A8BF2346C3EB0909E41AD31A0593079B55
:10F70000002B1DDD089BABB185B131462A46504622
:10F7100000F0BCFB029A01460646504600F025FB6D
:10F7200002990746504600F078FA0297079B5A1B49
:10F7300006D000E0079A0299504600F0A7FB02901D
:10F740000121504600F008FB0C9B05465BB31A46AE
:10F750000146504600F09AFB069B012B054618DC3B
:10F76000009B83B9019BC3F3130373B9019B23F07F
:10F7700000473F0D3F054FB1059B013309F10109DA
:10F780000593012702E0002700E0009F0C9B73B166
:10F7900000E000272B6905EB8303186900F08FFA5E
:10F7A000C0F1200004E0069B012BD9DD0C9F012055
:10F7B000059B184410F01F000ED0C0F12003042B4D
:10F7C00008DDC0F11C0008E09011020000001440A8
:10F7D0000000244006D018461C30059B0344814499
:10F7E00004440593B9F1000F05DD4A4602995046DD
:10F7F00000F09AFB0290059B002B05DD29461A4676
:10F80000504600F091FB05460D9BEBB1294602984E
:10F8100000F0DBFB002817DA00230A220299504689
:10F8200000F012FA089B02900BF1FF3B002B00F056
:10F830005881002331460A22504600F005FA039B06
:10F84000002B064637DC33E0B8F1000F2ADC069BBC
:10F85000022B27DDCDF80C80039B83B929460522B6
:10F86000504600F0F1F901460546029800F0ADFB64
:10F8700000280DDC03E03D4600E000252E46099BF4
:10F88000049C6FEA030B0AE0DDF828B03D463E46D3
:10F89000049B049A5C1C312313700BF1010BB046DE
:10F8A0000026F7E0089BCDF80C8023B9049CB1E05A
:10F8B000069B022BD0DC002C05DD3146224650464B
:10F8C00000F032FB06469FB17168504600F070F9B7
:10F8D000326902320446920006F10C010C30FEF748
:10F8E00059FD01222146504600F01EFB804600E0F3
:10F8F000B046009BDDF8109003F001030593294604
:10F900000298FFF7CDFA3146044600F1300702981D
:10F9100000F05BFB424600902946504600F071FB28
:10F92000C36802463BB901460790029800F04DFBC0
:10F93000079A034600E0012311465046079300F062
:10F940006CF9079B4BB9069A3AB9059A2AB9392F2F
:10F9500028D0009B002B1ADC1BE0009A002A04DB55
:10F960001AD1069AC2B9059AB2B9002B11DD01224B
:10F970000299504600F0D8FA2946029000F025FB83
:10F98000002802DC05D1FA0703D5392F0AD004F18B
:10F99000310709F101040CE0002B09F101040BDD32
:10F9A000392F05D1392389F8003009F1010954E0D4
:10F9B000013789F800706DE0049B039A04F8017C1C
:10F9C000E31A9342A1463AD000230A2202995046F4
:10F9D00000F03AF9464502904FF000034FF00A025A
:10F9E0003146504604D100F02FF90646804686E79E
:10F9F00000F02AF94146064600230A22504600F04C
:10FA000023F980467BE700230A220299504600F042
:10FA10001BF9029029460298FFF742FA00F13007DD
:10FA200004F8017B049B039AE31A9342EBDB049BEB
:10FA3000012AACBF9B180133B0469946002601222B
:10FA40000299504600F070FA2946029000F0BDFA83
:10FA5000002802DC15D1FB0713D54C4614F8013CF5
:10FA6000392B04F1FF3209D1049B934204D10BF1ED
:10FA7000010B3123049A02E01446EFE701331370BF
:10FA800008E04C4614F8013C302B04F1FF3201D160
:10FA90001446F7E72946504600F0BFF8B8F1000FCA
:10FAA0000DD02EB1464503D03146504600F0B5F892
:10FAB0004146504600F0B1F801E0DDF828B0029967
:10FAC000504600F0AAF80023109A23700BF10103AE
:10FAD0001360219B1BB11C6001E008480AE00498F8
:10FAE00008E0039B002B3FF7E1AE069B022B7FF75C
:10FAF000DDAEB1E617B0BDE8F08F00BFF410020034
:10FB000000487047F43800200000000000000000AA
:10FB100001F0FF01102A2BDB10F0070F08D010F8BE
:10FB2000013B013A8B422DD010F0070F42B3F6D1C2
:10FB3000F0B441EA012141EA014122F007047FF0DB
:10FB400000070023F0E80256083C85EA010586EA32
:10FB5000010685FA47F5A3FA87F586FA47F6A5FA6E
:10FB600087F68EB9EED1F0BC01F0FF0102F007027A
:10FB700032B110F8013B013A83EA010313B1F8D125
:10FB80000020704701387047002D06BF3546033806
:10FB9000073815F0010F07D1013015F4807F02BF3F
:10FBA000013015F4C03F0130F0BC0138704700BF90
:10FBB00070B5456A04460E463DB91020FEF7DAFBE3
:10FBC0006062456085600560C560656AEB6843B149
:10FBD000636ADB6853F8260078B1026843F8262090
:10FBE00017E021220421204600F0B8FA636AE86099
:10FBF000DB68002BECD1002070BD012101FA06F575
:10FC00006A1D9200204600F0A9FA0028F3D0466051
:10FC1000856000230361C36070BD70B5446A064609
:10FC20000D463CB91020FEF7A5FB7062446084606D
:10FC30000460C4603DB1736A6A68DB6853F82210DF
:10FC4000296043F8225070BD2DE9F0410D691F462F
:10FC500006460C4601F1140E0023DEF8000081B2C6
:10FC600002FB01710F0C000C02FB007089B2013322
:10FC700001EB00419D424FEA10474EF8041BECDCBB
:10FC8000D7B1A3689D4212DB616830460131FFF7AE
:10FC90008FFF2269023204F10C01804692000C3081
:10FCA000FEF778FB21463046FFF7B7FF444604EBEA
:10FCB000850301355F6125612046BDE8F081030CB5
:10FCC0001B0413B90004102300E0002310F07F4F41
:10FCD00004BF0002083310F0704F04BF000104336A
:10FCE00010F0404F04BF80000233002803DB4200C5
:10FCF00003D5581C7047184670472020704703688A
:10FD000013F007020BD0D90722D49A074BBF5B0828
:10FD10009B08036003604CBF01200220704799B22A
:10FD200009B91B0C102213F0FF0F04BF1B0A083285
:10FD3000190704BF1B090432990704BF9B0802324C
:10FD4000D90702D45B0805D0013203601046704722
:10FD5000002070472020704710B50C460121FFF7A6
:10FD600027FF01224461026110BD2DE9F74F1446BF
:10FD70000A6923699A42B8BF0B468846BCBFA046B1
:10FD80001C46D8F81070D4F81090D8F80830D8F87D
:10FD9000041007EB09069E42C8BF0131FFF708FFB8
:10FDA00000F1140505EB860C2B460022634502D2B8
:10FDB00043F8042BFAE704F1140208F1140102EBF2
:10FDC000890301EB87070093009B0192934257D967
:10FDD000B2F800B0BBF1000F23D08946AE464FF019
:10FDE000000859F8044BBEF800A0A3B20BFB03A314
:10FDF0004FEA144ADEF8004043444FEA14480BFB34
:10FE00000A8404EB1344F2469BB243EA04434F4591
:10FE10004FEA14484AF8043B01D9D646E1E7CEF848
:10FE20000480019BB3F802A00432BAF1000F21D084
:10FE30002B682C4689464FF00008B9F800E0B4F86A
:10FE400002B00AFB0EBEF044A3469BB243EA08434D
:10FE50004BF8043B59F8043BB4F804E01B0C0AFBD4
:10FE600003E303EB18434F454FEA134801D95C46BF
:10FE7000E3E763600435A7E75CF8043D13B9013E8E
:10FE8000002EF9DC066103B0BDE8F08F2DE9F843E0
:10FE9000154612F0030206460F4607D0013A214CE0
:10FEA000002354F82220FFF7CFFE0746AD1036D0CE
:10FEB000746A3CB91020FEF75DFA70624460846099
:10FEC0000460C460D6F82480D8F808404CB940F2E9
:10FED00071213046FFF740FF0023C8F808000446B0
:10FEE00003604FF00008EB070AD53946224630463A
:10FEF000FFF73BFF394681463046FFF78EFE4F46FF
:10FF00006D100CD0206808B10446ECE7224621466B
:10FF10003046FFF72AFF2060C0F80080F4E738463B
:10FF2000BDE8F883801202002DE9F0470C464FEA45
:10FF3000621A26694968A368564407469146751CAB
:10FF4000AB4202DA01315B00FAE73846FFF730FED8
:10FF50000023804600F114011A46534503DA41F8A4
:10FF600023200133F9E72AEAEA73206901EB8303CE
:10FF700019F01F0904F1140101EB800E14D0C9F12E
:10FF8000200C0022086800FA09F002439A4643F860
:10FF9000042B51F8042B8E4522FA0CF2F2D8CAF841
:10FFA000042042B1B51C06E0043B51F8042B43F891
:10FFB000042F8E45F9D8013D3846C8F81050214627
:10FFC000FFF72BFE4046BDE8F08703690A699B1ADC
:10FFD00010B511D192001430143183180A4453F82B
:10FFE000044D52F8041D8C4202D007D3012010BDED
:10FFF0009842F4D3002010BD184610BD4FF0FF30DA
:020000022000DC
:1000000010BD2DE9F8430C4607461146204615461B
:10001000FFF7DBFF061E08D131463846FFF7C8FD63
:10002000012303614661BDE8F883BCBF23462C462B
:1000300038466168BABF1D4601260026FFF7B8FDA5
:100040002B69C660266905F11409143404EB860790
:1000500009EB830800F114054FF0000C54F8043B41
:1000600059F8042B1CFA83F11FFA82FE120CCEEB16
:100070000101C2EB134303EB214389B24FEA234C46
:10008000C84541EA0343A64645F8043BE6D8BE45C9
:100090000ED25EF8041B1CFA81F2131403EB114319
:1000A00092B242EA03424FEA234C45F8042BEEE7B2
:1000B00055F8043D0BB9013EFAE70661BDE8F88347
:1000C0002DE9F7430E46012159EC108B1546FFF739
:1000D0006FFDC9F30A540746C9F313030CB143F487
:1000E00080130193B8F1000F19D002A840F8088DD1
:1000F000FFF705FE009B48B1019AC0F1200102FA0A
:1001000001F10B43C2407B61019200E07B61019BE6
:10011000BB61002B14BF02210121396107E001A856
:10012000FFF7EDFD019B7B6101213961203034B186
:10013000A4F2334404443460C0F1350009E007EB15
:100140008103A0F2324030601869FFF7B8FDC0EBC0
:1001500041102860384603B0BDE8F08338B502FB93
:1001600001F42146FEF770F9054618B12246002138
:10017000FEF71BF9284638BDF8B5074615460E466A
:1001800021B91146BDE8F840FEF75EB91AB9FEF78D
:1001900015F92846F8BD00F07EF985420ED92946AA
:1001A0003846FEF751F9044650B131462A46FEF76B
:1001B000F1F831463846FEF701F901E03046F8BD66
:1001C0002046F8BD2DE9F0478E689E4282460C46D7
:1001D000914698463ED88A8912F4906F3AD02568A5
:1001E00009696F1A6569022305EB450595FBF3F56F
:1001F0007B1C43449D4238BF1D4653050FD52946FD
:10020000FEF722F9064698B13A462169FEF7C2F890
:10021000A38923F4906343F08003A38113E02A466B
:10022000FFF7AAFF064670B921695046FEF7C6F8E7
:100230000C23CAF80030A38943F04003A3814FF098
:10024000FF30BDE8F087266165613E44ED1B266006
:10025000A5604646464528BF464632464946206880
:1002600000F0FEF8A3689B1BA36023681E44266071
:100270000020BDE8F08700002DE9F04F9DB08046DA
:1002800003938B891C060D4616460DD50B695BB989
:100290004021FEF7D9F82860286118B90C23C8F866
:1002A0000030CDE040236B610023099320238DF8BB
:1002B0002930DFF89CB130238DF82A3037463C4690
:1002C00014F8013B1BB9B7EB060910D003E0252B4E
:1002D000F9D02746F3E74B46324629464046FFF71A
:1002E00071FF013000F0A780099B4B4409933B78D4
:1002F000002B00F0A08000234FF0FF3204930793FF
:10030000059206938DF853301A9301260522217821
:100310004E48FFF7FDFB671C049B38B14B4A801A1F
:1003200006FA00F0184304903C46EFE7D90644BFB4
:1003300020228DF853201A0744BF2B228DF853201A
:1003400022782A2A03D0079A00210A200BE0039A78
:10035000111D12680391002A10DA524243F0020084
:10036000079204900BE0274601343B78303B092B81
:1003700003D800FB02320121F5E701B107923B7877
:100380002E2B1ED17B782A2B0AD1039B1A1D1B68AA
:100390000392002BB8BF4FF0FF330237059310E0F4
:1003A00000230593781C19460A24074601303A7841
:1003B000303A092A03D804FB01210123F5E703B1F0
:1003C0000591032239782248FFF7A2FB40B1402370
:1003D000CBEB000003FA00F0049B184304900137B4
:1003E00039781C488DF8281006227E1CFFF790FBF8
:1003F00088B1194B33B9039B073323F00703083344
:10040000039314E003AB00932A46144B04A940461F
:10041000FEF702F907E003AB00932A460F4B04A94D
:100420004046FEF799FBB0F1FF3F824603D0099B9F
:100430005344099342E7AB895B0601D4099801E074
:100440004FF0FF301DB0BDE8F08F00BF8C120200EE
:10045000921202009612020019E60100C501020084
:10046000884210B501EB020301D8421E0BE098420E
:10047000FBD28118D21AD34204D013F8014D01F8EF
:10048000014DF8E710BD994204D011F8014B02F874
:10049000014FF8E710BD51F8040C0028BEBF091841
:1004A00051F8043CC01804387047000081F0004146
:1004B00002E000BF83F0004330B54FEA41044FEA49
:1004C000430594EA050F08BF90EA020F1FBF54EAE4
:1004D000000C55EA020C7FEA645C7FEA655C00F080
:1004E000E2804FEA5454D4EB5555B8BF6D420CDD51
:1004F0002C4480EA020281EA030382EA000083EAD4
:10050000010180EA020281EA0303362D88BF30BD73
:1005100011F0004F4FEA01314FF4801C4CEA1131C9
:1005200002D0404261EB410113F0004F4FEA033328
:100530004CEA133302D0524263EB430394EA050FB3
:1005400000F0A780A4F10104D5F1200E0DDB02FA22
:100550000EFC22FA05F2801841F1000103FA0EF2B6
:10056000801843FA05F359410EE0A5F120050EF17C
:10057000200E012A03FA0EFC28BF4CF0020C43FAAD
:1005800005F3C01851EBE37101F0004507D54FF0BA
:10059000000EDCF1000C7EEB00006EEB0101B1F50A
:1005A000801F1BD3B1F5001F0CD349085FEA300050
:1005B0004FEA3C0C04F101044FEA445212F5800F5B
:1005C00080F09A80BCF1004F08BF5FEA500C50F1F8
:1005D000000041EB045141EA050130BD5FEA4C0CDB
:1005E000404141EB010111F4801FA4F10104E9D164
:1005F00091F0000F04BF01460020B1FA81F308BF5B
:100600002033A3F10B03B3F120020CDA0C3208DD26
:1006100002F1140CC2F10C0201FA0CF021FA02F101
:100620000CE002F11402D8BFC2F1200C01FA02F171
:1006300020FA0CFCDCBF41EA0C019040E41AA2BF96
:1006400001EB0451294330BD6FEA04041F3C1CDA5E
:100650000C340EDC04F11404C4F1200220FA04F07E
:1006600001FA02F340EA030021FA04F345EA030128
:1006700030BDC4F10C04C4F1200220FA02F001FAEA
:1006800004F340EA0300294630BD21FA04F029466C
:1006900030BD94F0000F83F4801306BF81F4801105
:1006A0000134013D4EE77FEA645C18BF7FEA655C78
:1006B00029D094EA050F08BF90EA020F05D054EA4A
:1006C000000C04BF1946104630BD91EA030F1EBF4F
:1006D0000021002030BD5FEA545C05D14000494153
:1006E00028BF41F0004130BD14F580043CBF01F546
:1006F000801130BD01F0004545F0FE4141F470012C
:100700004FF0000030BD7FEA645C1ABF1946104606
:100710007FEA655C1CBF0B46024650EA013406BF07
:1007200052EA033591EA030F41F4002130BD00BFC6
:1007300090F0000F04BF0021704730B54FF4806483
:1007400004F132044FF000054FF0000150E700BF04
:1007500090F0000F04BF0021704730B54FF4806463
:1007600004F1320410F0004548BF40424FF0000150
:100770003EE700BF42004FEAE2014FEA31014FEA93
:1007800002701FBF12F07F4393F07F4F81F06051E2
:10079000704792F0000F14BF93F07F4F704730B551
:1007A0004FF4607401F0004521F0004120E700BFE4
:1007B00050EA010208BF704730B54FF000050AE06B
:1007C00050EA010208BF704730B511F0004502D56C
:1007D000404261EB41014FF4806404F132045FEA6E
:1007E000915C3FF4DCAE4FF003025FEADC0C18BF13
:1007F00003325FEADC0C18BF033202EBDC02C2F109
:10080000200300FA03FC20FA02F001FA03FE40EA9A
:100810000E0021FA02F11444C1E600BF70B54FF09A
:10082000FF0C4CF4E06C1CEA11541DBF1CEA13557C
:1008300094EA0C0F95EA0C0F00F0DEF82C4481EAE4
:10084000030621EA4C5123EA4C5350EA013518BF04
:1008500052EA033541F4801143F4801338D0A0FBF1
:1008600002CE4FF00005E1FB02E506F00042E0FB9E
:1008700003E54FF00006E1FB03569CF0000F18BFA4
:100880004EF0010EA4F1FF04B6F5007F64F540744C
:1008900004D25FEA4E0E6D4146EB060642EAC621DF
:1008A00041EA55514FEAC52040EA5E504FEACE2E4C
:1008B000B4F1FD0C88BFBCF5E06F1ED8BEF1004F4F
:1008C00008BF5FEA500E50F1000041EB045170BDCB
:1008D00006F0004646EA010140EA020081EA03010F
:1008E000B4EB5C04C2BFD4EB0C0541EA045170BD0B
:1008F00041F480114FF0000E013C00F3AB8014F185
:10090000360FDEBF002001F0004170BDC4F10004CD
:10091000203C35DA0C341BDC04F11404C4F120054E
:1009200000FA05F320FA04F001FA05F240EA0200A9
:1009300001F0004221F0004110EBD37021FA04F6DF
:1009400042EB06015EEA430E08BF20EAD37070BD99
:10095000C4F10C04C4F1200500FA04F320FA05F0F8
:1009600001FA04F240EA020001F0004110EBD370FA
:1009700041F100015EEA430E08BF20EAD37070BD6A
:10098000C4F1200500FA05F24EEA020E20FA04F343
:1009900001FA05F243EA020321FA04F001F00041F2
:1009A00021FA04F220EA020000EBD3705EEA430E63
:1009B00008BF20EAD37070BD94F0000F0FD101F092
:1009C0000046400041EB010111F4801F08BF013CCB
:1009D000F7D041EA060195F0000F18BF704703F009
:1009E0000046520043EB030313F4801F08BF013D90
:1009F000F7D043EA0603704794EA0C0F0CEA13554C
:100A000018BF95EA0C0F0CD050EA410618BF52EA05
:100A10004306D1D181EA030101F000414FF000000B
:100A200070BD50EA410606BF1046194652EA430619
:100A300019D094EA0C0F02D150EA013613D195EA8D
:100A40000C0F05D152EA03361CBF104619460AD1D5
:100A500081EA030101F0004141F0FE4141F47001DF
:100A60004FF0000070BD41F0FE4141F4780170BDCF
:100A700070B54FF0FF0C4CF4E06C1CEA11541DBF34
:100A80001CEA135594EA0C0F95EA0C0F00F0A7F836
:100A9000A4EB050481EA030E52EA03354FEA013163
:100AA00000F088804FEA03334FF0805545EA131376
:100AB00043EA12634FEA022245EA111545EA10653E
:100AC0004FEA00260EF000419D4208BF964244F1D5
:100AD000FD0404F5407402D25B084FEA3202B61AF4
:100AE00065EB03055B084FEA32024FF480104FF4C8
:100AF000002CB6EB020E75EB030E22BFB61A75463C
:100B000040EA0C005B084FEA3202B6EB020E75EBCE
:100B1000030E22BFB61A754640EA5C005B084FEA36
:100B20003202B6EB020E75EB030E22BFB61A754603
:100B300040EA9C005B084FEA3202B6EB020E75EB0E
:100B4000030E22BFB61A754640EADC0055EA060ECF
:100B500018D04FEA051545EA16754FEA06164FEA12
:100B6000C30343EA52734FEAC2025FEA1C1CC0D1BE
:100B700011F4801F0BD141EA00014FF000004FF04B
:100B8000004CB6E711F4801F04BF01430020B4F10C
:100B9000FD0C88BFBCF5E06F3FF6AFAEB5EB030CC4
:100BA00004BFB6EB020C5FEA500C50F1000041EBC1
:100BB000045170BD0EF0004E4EEA113114EB5C048E
:100BC000C2BFD4EB0C0541EA045170BD41F4801161
:100BD0004FF0000E013C90E645EA060E8DE60CEA69
:100BE000135594EA0C0F08BF95EA0C0F3FF43BAF86
:100BF00094EA0C0F0AD150EA01347FF434AF95EA3D
:100C00000C0F7FF425AF104619462CE795EA0C0F20
:100C100006D152EA03353FF4FDAE1046194622E7ED
:100C200050EA410618BF52EA43067FF4C5AE50EAC7
:100C300041047FF40DAF52EA43057FF4EBAE12E7B7
:100C40004FF0FF3C06E000BF4FF0010C02E000BF98
:100C50004FF0010C4DF804CD4FEA410C7FEA6C5C7B
:100C60004FEA430C18BF7FEA6C5C1BD001B050EA1E
:100C7000410C0CBF52EA430C91EA030F02BF90EA09
:100C8000020F0020704710F1000F91EA030F58BFC8
:100C9000994208BF90422CBFD8176FEAE37040F02A
:100CA000010070474FEA410C7FEA6C5C02D150EAC8
:100CB000013C07D14FEA430C7FEA6C5CD6D152EA83
:100CC000033CD3D05DF8040B704700BF8446104648
:100CD00062468C461946634600E000BF01B5FFF747
:100CE000B7FF002848BF10F1000F01BD4DF808ED17
:100CF000FFF7F4FF0CBF012000205DF808FB00BFE8
:100D00004DF808EDFFF7EAFF34BF012000205DF841
:100D100008FB00BF4DF808EDFFF7E0FF94BF01208E
:100D200000205DF808FB00BF4DF808EDFFF7CEFF8F
:100D300094BF012000205DF808FB00BF4DF808EDCE
:100D4000FFF7C4FF34BF012000205DF808FB00BF9F
:100D50004FEA410212F5001215D211D56FF47873E3
:100D6000B3EB625212D94FEAC12343F0004343EA86
:100D7000505311F0004F23FA02F018BF4042704761
:100D80004FF00000704750EA013005D111F00040EB
:100D900008BF6FF0004070474FF00000704700BF81
:100DA000044A05491368002B08BF0B46184410601D
:100DB000184670471C3B0020403B0020FEE700BF68
:100DC000F8B500BFF8BC08BC9E467047F8B500BF38
:100DD000F8BC08BC9E4670474153434949205461C2
:100DE000626C65207E204368617261637465722065
:100DF0004D6170002C206465633A20002C206865EA
:100E0000783A20002C206F63743A20002C2062690D
:100E10006E3A200000000000010000000200000007
:100E200003000000040000000500000006000000B0
:100E30000700000008000000090000000A00000090
:100E40000B0000000C0000000D0000000E00000070
:100E50000F00000010000000110000001200000050
:100E60001300000014000000150000001600000030
:100E70001700000018000000190000001A00000010
:100E80001B0000001C0000001D0000001E000000F0
:100E90001F000000252E306600253032580000006B
:100EA000000000000000000095CA0100D1C8010048
:100EB00083CA01008FCA010089CA01007DCA0100EE
:100EC00025CA0100CDCA01002DCA010021CA0100B6
:100ED0006C6F6F700049444C450009256309257506
:100EE0000925750925750D0A00546D725100546D60
:100EF00072205376630043616C6C6261636B002502
:100F0000356C75202F2025356C7520282530326CE6
:100F10007525252900256C75007C20252D35737CD1
:100F200020307825303458202D2030782530345822
:100F3000207C20252D313973207C0A004661696CA4
:100F4000656420746F204D616C6C6F6300257320A5
:100F5000537461636B204F766572666C6F772021E6
:100F6000212100205F5F5F5F5F5F5F5F5F5F5F5FAB
:100F70005F5F5F5F5F5F5F5F5F5F5F5F5F5F5F5F81
:100F80005F5F5F5F5F5F5F5F5F5F5F5F5F5F5F5F71
:100F90005F5F007C204E616D65207C20416464723F
:100FA0002030783230303078787878207C20557353
:100FB0006167652020202020202020202020202064
:100FC00020207C007C202D2D2D2D2D2D2D2D2D2D07
:100FD0002D2D2D2D2D2D2D2D2D2D2D2D2D2D2D2D41
:100FE0002D2D2D2D2D2D2D2D2D2D2D2D2D2D2D2D31
:100FF0002D2D2D7C00537461636B0048656170007A
:101000004273730053313332007C5F5F5F5F5F5F19
:101010005F5F5F5F5F5F5F5F5F5F5F5F5F5F5F5FE0
:101020005F5F5F5F5F5F5F5F5F5F5F5F5F5F5F5FD0
:101030005F5F5F5F5F5F5F5F7C0A005461736B207F
:1010400020202053746174652020205072696F2025
:1010500020537461636B4C656674204E756D002D72
:101060002D2D2D2D2D2D2D2D2D2D2D2D2D2D2D2DB0
:101070002D2D2D2D2D2D2D2D2D2D2D2D2D2D2D2DA0
:101080002D2D00425350204C6962726172792020EC
:101090002020203A20302E382E33004669726D779A
:1010A00061726520202020202020203A2025730A0C
:1010B0000053657269616C204E6F20202020202033
:1010C000203A2025730A002530386C583A00253024
:1010D000306C58002530326C583A20004300000034
:1010E00090380020494E4600696E66004E414E0021
:1010F0006E616E0030003031323334353637383976
:101100004142434445460030313233343536373876
:101110003961626364656600496E66696E697479F7
:10112000004E614E000000000000000000000000C2
:1011300000000000000000000000000000000000AF
:10114000000000000000000000000000000000009F
:10115000000000000000000000000000000000008F
:10116000000000000000000000000000000000007F
:10117000000000000000000000000000000000006F
:101180000000000000000000504F534958002E009E
:10119000000000000000F03F0000000000002440BC
:1011A00000000000000059400000000000408F4097
:1011B000000000000088C34000000000006AF84002
:1011C0000000000080842E4100000000D012634126
:1011D0000000000084D797410000000065CDCD419C
:1011E000000000205FA00242000000E8764837427D
:1011F000000000A2941A6D42000040E59C30A2421B
:101200000000901EC4BCD64200003426F56B0C438F
:101210000080E03779C3414300A0D8855734764336
:1012200000C84E676DC1AB43003D9160E458E14397
:10123000408CB5781DAF154450EFE2D6E41A4B440C
:1012400092D54D06CFF08044F64AE1C7022DB54451
:10125000B49DD9794378EA440080E03779C34143AB
:10126000176E05B5B5B89346F5F93FE9034F384D0C
:10127000321D30F94877825A3CBF737FDD4F1575B8
:1012800005000000190000007D000000232D302B18
:101290002000686C4C00656667454647000000000A
:0412A000000000004A
:0812A40000B2FF7F0100000011
:1012AC00210000000090D00300060000FFFFFFFFAC
:1012BC000000000028110200481102006811020011
:1012CC000000000000000000000000000000000012
:1012DC00DC10020000000000000000000000000014
:1012EC0000000000000000000000000000000000F2
:1012FC0000000000000000000000000000000000E2
:10130C0000000000000000000000000000000000D1
:10131C00903800208E110200E80E0200E80E020048
:10132C00E80E0200E80E0200E80E0200E80E0200D1
:10133C00E80E0200E80E0200E80E0200FFFFFFFFBD
:10134C00FFFFFFFFFFFFFFFFFFFF00006DC4010069
:10135C00D5CC010051DF010045C4010000000000A4
:040000031000C5DD47
:00000001FF
