:020000021000EC
:10C00000B8AA0020F92402002125020023250200FD
:10C010002525020027250200292502000000000036
:10C02000000000000000000000000000912C020051
:10C030002D25020000000000B12C02003125020075
:10C04000332502003325020001430200332502009C
:10C050003325020033250200332502003325020078
:10C060003325020033250200332502003325020068
:10C070003325020033250200332502003325020058
:10C0800033250200992A02003325020033250200DD
:10C09000332502003325020005DC010033250200B0
:10C0A0003325020033250200332502003325020028
:10C0B00033250200332502000000000000000000CC
:10C0C0003325020033250200332502003325020008
:10C0D0003325020033250200332502000000000052
:10C0E0000000000000000000000000000000000050
:10C0F0000000000000000000000000000000000040
:10C10000000000000000000000000000000000002F
:10C11000000000000000000000000000000000001F
:10C40000044B05481B1A062B02D9044B03B11847ED
:10C41000704700BFFF390020FC39002000000000F9
:10C4200005490648091A891001EBD171491002D05B
:10C43000034B03B118477047FC390020FC3900203A
:10C440000000000010B5064C237843B9FFF7D8FF71
:10C45000044B13B10448AFF300800123237010BDD7
:10C46000FC390020000000009498020008B5084B39
:10C470001BB108490848AFF300800848036813B9A6
:10C48000BDE80840CCE7064B002BF9D09847F7E70A
:10C4900000000000003A002094980200F8390020C3
:10C4A00000000000154B002B08BF134B9D46A3F561
:10C4B000803A00218B460F461348144A121A08F09E
:10C4C000CAFA0F4B002B00D098470E4B002B00D020
:10C4D00098470020002104000D000D48002802D0DC
:10C4E0000C48AFF3008008F04BFA2000290007F059
:10C4F00039FF08F01FFA00BF00000800B8AA0020AA
:10C500000000000000000000FC390020584200201C
:10C51000000000000000000008B5112006F042F9FC
:10C52000B0FA80F14909112006F02AF914210248D5
:10C53000BDE8084000F01AB90C3D0020044B186813
:10C540003723584340F2762390FBF3F080B27047D4
:10C55000283A002010B5114C2046383C00F088F8ED
:10C560000F49204600F0D0F820460E4900F0CAF8E6
:10C570002046012100F0CDF820464FF448624FF4E8
:10C58000A07100F0BBF820460A2100F0B5F8204663
:10C590001421BDE8104000F0E9B800BF443D002080
:10C5A000183A002019C5010010B5124C00220121D3
:10C5B000204601F0D9F92046002101F0DFFA6FF0A2
:10C5C0001301204601F0B8FA20460B4C0B4901F04C
:10C5D0008FFA4C21204601F043FCFFF7AFFF4D21BD
:10C5E0000246204601F03EFCFFF7B4FFBDE81040D4
:10C5F00007F0EEBE303A0020183A0020E47B02003B
:10C600007047000007B56FF03F03009300231A4600
:10C610000349044801F017FC03B05DF804FB00BFB8
:10C6200084380020183A002072DF704773DF7047AB
:10C6300074DF70470022C2770270704770B51D46E4
:10C64000C37F0E461146EA181D2A04460EDC184424
:10C650006A1CE254023000F8016C2A4608F0D5F951
:10C66000E27F0232AB18E377012070BD002070BD7D
:10C6700010B588B06946044620220A4801F04CFAF9
:10C68000E27F13181D2BC4BFC2F11D02D0B20346B6
:10C69000CCBF082109216A462046FFF7CFFF08B02A
:10C6A00010BD00BF303A002007B502AA012302F8EE
:10C6B000011D1946FFF7C2FF03B05DF804FB00231C
:10C6C000C3770370704708B50346FFF7B3FF012136
:10C6D000002283F8211020219984F420198583F801
:10C6E00020201E21D88483F822205985DA859A8556
:10C6F0001A635A63184608BD418570478184C28415
:10C7000001857047016370470B460146184601F0EA
:10C71000AEBB80F82110704770B5044686B00E4657
:10C72000154600211822684608F095F994F8203043
:10C730008DF800306846ADF81060ADF81250FFF784
:10C7400075FF70B9084801F031FBE28D26859542EE
:10C750004FF0010094BF521B921A84F82200E28528
:10C7600000E0002006B070BD303A002038B50C4D16
:10C77000C185818595F83333C17F05F5457204463F
:10C78000FFF752FF50B92846FA2101F0FAF9628DFD
:10C79000A18C2046BDE83840FFF7BEBF002038BD61
:10C7A000303A002008B50346FFF742FF30B983F85E
:10C7B0002200034801F00BFB012008BD002008BD4A
:10C7C000303A002038B50B88112B044612D01B2BB1
:10C7D00024D0102B59D18D7D012D56D1002380F806
:10C7E00022302A4801F0F3FA29462848BDE83840AB
:10C7F00001F0F9BA8988254800F0F5FB012844D1F9
:10C800000021224801F0EFFA94F82130002B3CD0AF
:10C81000A18D2046BDE83840FFF7A8BF0B7A002B5A
:10C8200033D180F822304FF4FA71184801F0A9F999
:10C83000A38D23B9636B03B19847002205E0E38D14
:10C840004BB1636B03B19847E28DE18C2046BDE8A4
:10C850003840FFF761BF0D4801F0B9FA236BA3B16F
:10C8600007F002F901284FF0100002D108F0AEF8ED
:10C8700001E007F01DFB0023226B0372036043728B
:10C880004260BDE8384007F081BB38BD303A002037
:10C8900010B5044607F0E8F80128204603D1BDE8AA
:10C8A000104008F093B8BDE8104007F001BB10221B
:10C8B000028018224280002242608260704700009D
:10C8C000014800F02BBB00BF983D0020F7B50F8852
:10C8D0008C88102F05460E4602D0112F19D038E053
:10C8E00021461D4800F07FFB022832D16B6883B3DC
:10C8F0003846FFF7CDFF00226968026042720122CC
:10C90000027202AA034642F8084D41601068D860DE
:10C9100019E02146104800F066FB0228074618D1AE
:10C92000AB68B3B11420FFF7B3FFA96841600022E0
:10C93000026042720772327A019200946A4603469C
:10C9400003CAD8601961184603B0BDE8F04007F08B
:10C950001DBB03B0F0BD00BF303A0020A2DF70471E
:10C96000A3DF7047A4DF7047A5DF7047704710B59D
:10C97000044607F042FD204610BD000070B55A4B3A
:10C9800004461B680361061D96B0304600F041FF67
:10C9900094F8223013F0320101BF94F8232061F3A0
:10C9A000030261F3071284F8232013F00C0101BF86
:10C9B00094F8242061F3030261F3071284F8242021
:10C9C00013F030050ED04FF00003012262F3420352
:10C9D0008DF80630454B1B788DF8043094F82330E1
:10C9E0008DF805301C2200210FA808F034F894F8C7
:10C9F00022308DF83C3000230DB91A4600E001AA20
:10CA0000ADF8083014924FF00003012262F34203A4
:10CA100060698DF80A3094F823308DF8083058B1E9
:10CA200003784BB1109008F0FCFE02AB80B2ADF879
:10CA30004400ADF846001393A37E13B104F11A032A
:10CA40001293142200210DEB020008F004F804F107
:10CA50002303069394F825300596DB0754BFE3893A
:10CA60000023ADF81C30E389ADF8203005AA04F1AD
:10CA700026030FA90020FFF771FF054670BB637EF8
:10CA800033B30346012262F342038DF80E3094F86B
:10CA90002330ADF80C008DF80C30154B186804905D
:10CAA000142229460AA807F0D6FF0223ADF8303039
:10CAB000ADF8343004AB0A9303AB0B930DF10202D3
:10CAC00004F118030AA928460E93FFF749FF40B95D
:10CAD000257B2DB92146074800F0E8FC284600E0F8
:10CAE000002016B070BD00BF2C3A0020F27B02007F
:10CAF000F47B02000C3B00200B88502B73B50546DD
:10CB00000C4614D0512B2CD18B79022B03D1436BC3
:10CB10000BB108319847A379012B22D12B6B03B3BA
:10CB200004F10801284602B0BDE870401847CA88E1
:10CB3000C38C9A4205D1866B1EB1CB890A8A123109
:10CB4000B047E2886B8D9A420BD1EB6B4BB1628A96
:10CB5000ADF80620BDF80610284602B0BDE87040CA
:10CB6000184702B070BD00001422C281104A12782A
:10CB700080F8242080F8232001214FF001020023B7
:10CB800061F342020373036143610383C0F81A3007
:10CB9000C0F81E3080F8223080F82520C384038539
:10CBA00083854385036343638363C363704700BF27
:10CBB000F27B020013B504468DE8060023460649C1
:10CBC00043F8041B9DE8030083E805002046FFF7B7
:10CBD000CBFF204602B010BD007C0200012303738E
:10CBE000704780F822107047C181704790F8253057
:10CBF00019B1C1816FF3000301E043F0010380F834
:10CC0000253070470A1C90F82530416318BF012277
:10CC100062F3041380F82530704751F8263F036013
:10CC20004B684360704713B5C4890191A24228BF85
:10CC3000224600230093C18CADF800204FF6FF7010
:10CC40006A46FFF78FFE10B9BDF8000000E01846F5
:10CC500002B010BD07B502AB022223F8021D19462F
:10CC6000FFF7E1FF03B05DF804FB000030B50546B7
:10CC700085B0114800F0A4FFE0B1688DD0B1022367
:10CC8000002402940C48ADF808300DF1060303931C
:10CC900000F0AEFF02AA698DFFF766FE43F2014382
:10CCA000984202D1ADF8064002E008B180B201E03E
:10CCB000BDF8060005B030BD303A002008B590F848
:10CCC000222002F0100202F0FF0322B1FFF7CEFF94
:10CCD00000F0010008BD184608BD96DF704798DFD8
:10CCE000704799DF704710B5044606F0BDFE012875
:10CCF000204603D1BDE8104007F068BEBDE81040F3
:10CD000007F0D6B8002383827047806900F0F6B838
:10CD1000808A70472DE9FF410B88CF88382B044665
:10CD20000D4674D0392B03D0362B40F0E180B9E0AA
:10CD30008B7B012B02D0022B32D0D9E0C36A002BAF
:10CD400000F0D68090F8342012F0010F0A8A24D027
:10CD50001046FFF7C8FF0646002800F0C9802A8A5F
:10CD600005F1120107F051FE1820FFF7BCFFE26A3F
:10CD7000426000224272032202722A8A06600392F3
:10CD80000194029601AA034603CAD860196110688B
:10CD90005861184607F0FAF8AAE012319847A7E060
:10CDA000036B002B00F0A48090F834208E8812F0E2
:10CDB000020F0A8A24D01046FFF795FF0746002885
:10CDC00000F096802A8A05F1120107F01EFE182055
:10CDD000FFF789FF226B4260002242720322027237
:10CDE0002A8A076003920194029701AA034603CAA4
:10CDF000D860196110685861184607F0C7F801E05B
:10CE000012319847A9893046FFF76BFF70E017B1E0
:10CE100004F11C006AE000F11C064A8A30463946DB
:10CE200001F039FA95F80E80B8F1010FF0D0B8F1A1
:10CE3000040F5DD1A06900F061F801462E4800F0B2
:10CE4000E3F8228DA38A053880B2904228BF1046AD
:10CE5000B0B101972A8AADF806306B8AADF80A00A6
:10CE60001344ADF80830A069636A8DF80480039319
:10CE700000F044F801A9FFF732FF002838D00FE096
:10CE80000522029003908DF80420A069ADF80630C9
:10CE900001228DF8052000F031F801A9FFF71FFFEE
:10CEA000304623E0806900F029F80146124800F07E
:10CEB000ABF80646002FABD104F11C072A8A05F116
:10CEC0001201384601F0E7F9238D73B1033E2B8A36
:10CED000B6B2013EB34208DBA06900F00FF8628DE4
:10CEE000A18A92B2FFF7F9FE10B1384601F0EBF9D2
:10CEF00004B0BDE8F08100BF303A00208088704760
:10CF000010B50446043001F07AF9012323804FF66E
:10CF1000FF73638000232375204610BD017D10B58B
:10CF2000044621B9043001F06EF90123237510BDC8
:10CF3000007D70470B88322B10B5044611D0332B7F
:10CF40001BD0302B26D1CB8833B98B8923B10A2251
:10CF50000C31201D01F09FF9201DBDE8104001F0AB
:10CF6000B2B9CB88002BF7D18A89002AF4D0013AD4
:10CF700002EB820252000C320AE0CB88002BEBD18C
:10CF80008A89002AE8D0013A02EB420252000832B4
:10CF900092B2DDE710BD7FDF704786DF704762DF4A
:10CFA000704710B5C822044600210C3007F053FD2D
:10CFB000172303222380E3804FF0010362F306135B
:10CFC00084F8D430072384F8D530102384F8D63081
:10CFD00084F8D72084F8D820204610BD282303FBEE
:10CFE0000101487B7047282303FB0101887B7047C0
:10CFF00010B5282303FB021252F8123F03609388F6
:10D0000083809379837110BD282303FB0101088A73
:10D0100070470000F0B587B004AC16461F460D46B9
:10D0200020464FF4285100F0DBFB8DE8C0004FF69E
:10D03000FF7303930123029394E80C0029460248EE
:10D0400000F0F6F807B0F0BD0C3B0020F0B58E887C
:10D050004FF6FF739E4218BF28240B881ABF04FBAB
:10D0600006040C340024132B95B007460D4643D01C
:10D0700007D8102B0ED0112B32D0012B40F0C080DE
:10D08000AEE0192B66D01A2B00F09880142B40F0DC
:10D09000B78078E0012323708B7DA37055F8082FAB
:10D0A000C4F80620AA886281AA7922731723A38074
:10D0B00069463046FFF773FF9DF80010084605F0FB
:10D0C000F9FEF6B2282303FB06766061B37B012BE1
:10D0D0000CBF3879B87A014605F0ECFEA0618FE00C
:10D0E000002560696570257006F090F86561A0699B
:10D0F00006F08CF8A56183E006F0B6FC01284FF03D
:10D10000500002D107F062FC01E006F0D1FE0546B6
:10D110002061002874D05022002107F09CFC4FF6BB
:10D12000FF732022E3810021684607F094FC05F19B
:10D130001C030493A3780095012B05F138050CBF5F
:10D1400007F1D40200226B46002130460595FFF717
:10D1500022FF55E00B7A43B92269A078012363705E
:10D16000538AE381314601F031F9256906F07CFCF0
:10D170000128284602D107F031FC01E006F0A4FEA8
:10D18000002323613CE050220021684607F063FC45
:10D190006A46298AA07801F045F90346A88843B178
:10D1A00000230EAA6946FFF7F8FEBDF81230E381AE
:10D1B00026E01A461946FFF7F0FE21E00B7A112B04
:10D1C00006D0E289A078314601F0B8F901236370F6
:10D1D000606AA8B100231A46194605F075FE0FE0F3
:10D1E00063696BB100262A7AF3B29A4206F101060E
:10D1F00006D900231A461946606905F065FEF2E774
:10D2000015B0F0BD95DF704738B50446F82500F538
:10D21000F87000F0F4FF2A460021204607F01BFCBE
:10D220002A460021601907F016FC204638BD000090
:10D23000F0B585B08DE80C00BDF83030ADF80C309D
:10D24000BDF83430ADF80E300F466E4600F5F87577
:10D25000284601F01EF8044628B1124800F0CFFC21
:10D2600005F068F9F4E70121284600F0CCFFBDF88D
:10D270002C200A99284600F0DBFF03AA31463846E5
:10D28000FFF7C0FF28B94FF4FA71284600F0D5FF28
:10D290000446284600F0C0FF24EAE47080B205B0DE
:10D2A000F0BD00BF303A00202DE9F04F0D888F8887
:10D2B000A5F11003012B87B004460E4612D84FF09B
:10D2C000000822785FFA88F39A420BD99B00234426
:10D2D000112D586803680CBF1B685B68984708F1FC
:10D2E0000108EEE7704800F083FC874217D14FF049
:10D2F00028094FF0000A09FB07F90AE0502D13D066
:10D30000512D04D1B6F80880B8F1000F0FD10AF101
:10D31000010A94F854205FFA8AF39A42EED804F591
:10D32000A67A4FF000091FE0B6F80680ECE7163346
:10D33000684654F823B05946FFF76FFCBDF800204B
:10D34000424500F08E80594602A8FFF766FCBDF802
:10D350000C204245DBD184E05AF8040FFFF7D5FCDE
:10D36000874206D009F1010994F84C319945F3DB65
:10D3700016E0382D03D0392D01D0362DF2D1B6F874
:10D380000C80B8F1000FEDD0DAF800B05846FFF786
:10D39000BFFC8045E6D131465846FFF7BBFCE1E7CC
:10D3A000112D26D1002594F8F820EBB29A4201D82D
:10D3B000002618E004EB8303D3F8FC008388BB420B
:10D3C00002D103681B6898470135ECE704EB85053B
:10D3D000D5F85001FFF799FC874203D1D5F85001E9
:10D3E000FFF790FC013694F84C31F5B2AB42EDD822
:10D3F00057E0532D0FD0552D1FD0352D51D1B38966
:10D400004BB104F5F874F2897169204600F043FFCE
:10D41000204600F058FF244A282307FB0333134417
:10D420001446586820B100231A46194605F04CFDF1
:10D43000282202FB0747012310E01B4A282307FB91
:10D44000033313441446586820B100231A46194682
:10D4500005F03AFD282202FB0747002387F8283011
:10D460001FE0DBF800205846D268314690470E484E
:10D4700000F0C1FB00283FF44AAF502D7FF447AFC6
:10D48000594604A8FFF7C9FBBDF8143043457FF4A3
:10D490003EAF054B4B4439465A8B987B00F0DAFF80
:10D4A00035E707B0BDE8F08F303A002090F85430EF
:10D4B000282B1FBF5A1C163380F8542040F8231025
:10D4C00014BF0120002070470378132B9FBF5A1C04
:10D4D000027000EB8300416094BF01200020704780
:10D4E0008ADF704710B5044606F0BEFA01282046D0
:10D4F00003D1BDE8104007F069BABDE8104006F05E
:10D50000D7BC0000002330B501220370C3708380B4
:10D510000373836003614361054B427080220446BC
:10D52000827000F118050FCB85E80F00204630BD52
:10D53000107C020010B5044681841830FFF7D0FF3C
:10D5400028B9044800F032FC0120207010BD0020F2
:10D5500010BD00BF303A002038B59DF81450C2B15C
:10D5600048780C78984204D1013C0231E4B206D1EB
:10D5700011E0E04302440134D2B22144EFE715B197
:10D58000AC4228BF2C462246049807F03EFA2046BB
:10D5900038BD104638BD084638BD37B50C7A9DF801
:10D5A000185009318DE828001346E208FFF7D4FF30
:10D5B00003B030BD2DE9F04F8FB002AC804620465D
:10D5C000894684E80C0000F016F9C0B2102807D193
:10D5D00002238DF8143003238DF81530274606E01A
:10D5E00006238DF81430039F07238DF8153000268D
:10D5F000C508B2461F22002106A807F02CFA05AB89
:10D600004946F25CCDF800A006AB4046FFF7C5FFE7
:10D610000DF1180B04465CB12A463946584607F00E
:10D62000E5F908B9012007E0641BAB44E4B2F2E776
:10D630000136022EDED120460FB0BDE8F08F00008B
:10D640002DE9FF410B88112B04460D4669D002D805
:10D65000102B59D087E01B2B75D01D2B40F08380F9
:10D6600090F9022091F90F309A427CDC037B01F1A2
:10D67000080613B9E378BBB925E04FF00008237B17
:10D680005FFA88F7BB420BD9A36803EBC7030CCB47
:10D6900031462046FFF78EFF08F101080028EED042
:10D6A000237BBB42E6D15EE002230093FF2203AB63
:10D6B00031462046FFF771FF002854D0A288BDF8FC
:10D6C0000C309A424FD12820FFF70CFF3035074627
:10D6D000034656F8042B43F8042BAE42F9D12369D4
:10D6E000002B40D01020FFF7FDFE2269426000228F
:10D6F00042720122027204AA076042F8047D0346C6
:10D700001068D86018462CE08B7D022B2BD10023AB
:10D710000370164800F05BFB0121144800F063FB26
:10D7200021E089881148FFF75EFC02281BD121788F
:10D73000C9B90E4800F057FB6378A3B1A18C20460D
:10D74000FFF7F8FE0FE00B7A022B0CD1436953B1BF
:10D750001020FFF7C7FE002261690260416042723B
:10D76000027206F013FC04B0BDE8F081303A0020EC
:10D77000A0DF70477047000037B500F10805044688
:10D78000284600F046F829460DF106020120FFF771
:10D79000EFFF054628B9044B04481C602146FFF7FB
:10D7A00093FE284603B030BD2C3A00200C3B0020ED
:10D7B00013B504468DE806002346064943F8081BC6
:10D7C0009DE8030083E8050000232046A38002B003
:10D7D00010BD00BF287C020063DF704764DF704724
:10D7E000012383700023018043607047002383700E
:10D7F0000380416070478378012B06D0426832B9BC
:10D80000012B8CBF802000207047102070478020A3
:10D81000704708B58378024653B9406840B1911CFF
:10D82000FFF7DAFF10205168BDE80840FFF7D6BFC8
:10D83000002008BD52DF704710DF704775DF70476A
:10D8400076DF704777DF704778DF70477ADF7047A1
:10D850007CDF70477DDF7047A9DF704760DF70476E
:10D8600061DF70477047122004F0C8BF37B50E4C17
:10D870000E4DD4F8980300234FF0FF32194605F0FF
:10D8800015FC0028F5D001A8FFF7D4FF10B105283A
:10D89000F9D1EEE70198831E012BF4D8002DF2D0C8
:10D8A00004F036FFEFE700BF303A002011270200F6
:10D8B00010B5044606F0D8F80128204603D1BDE88B
:10D8C000104007F083B8BDE8104006F0F1BA10B57B
:10D8D0000446FFF766FB04F1DC00FFF795FC04F556
:10D8E0003770FEF7F0FE04F54570FEF7A3FE04F571
:10D8F0004D70FFF707FE04F55770FEF7D8FF04F5EB
:10D900005A70FFF7FDFA04F5697000F0CBFB4FF495
:10D910000062C4F88023012284F8A0234FF6FF722E
:10D920000023A4F8F4231022C4F88433A4F88A2333
:10D9300084F88533182284F8843384F8883384F893
:10D94000893384F89033C4F89433C4F89833C4F816
:10D950009C33A4F88C23A4F88E33C4F8F833C4F8AD
:10D96000FC33204610BD000070B580F8881390B0DD
:10D97000054680F8892354490020FFF75DFF002801
:10D9800040F0A080514B0693014614220BA807F0EB
:10D9900062F89DF8383043F001038DF8383095F87F
:10D9A0008533ADF82C3095F88833003318BF012348
:10D9B0008DF8343095F88933002B14BF04230023ED
:10D9C0008DF8353014BF012300238DF8363006A9B9
:10D9D000D5F880330F930BA8FFF740FF002871D1D3
:10D9E000C8230A90ADF82A30B5F88A33ADF8243050
:10D9F00009A8B5F88C33ADF82630FFF727FF0028CB
:10DA000060D1334B33491B7810A80B2200F82C3D12
:10DA1000FFF71EFF0446002853D1FFF715FF044609
:10DA200000284ED1FFF70EFF00284BD105F5697095
:10DA300000F05AFB95F889331BB105F55770FEF7D6
:10DA40003FFF03220021012005F016FAC5F89403D8
:10DA500008B9042036E0002407AB032601934FF4F5
:10DA6000C06223461C490394029400961B4805F0AB
:10DA700043FC32462146012005F0FEF9C5F8980323
:10DA80000028E6D008AB0193C8222346144903942A
:10DA900002940096134805F02FFC134BC02283F824
:10DAA00016234FF480021A60104B00930122234684
:10DAB0004FF48071204606F0BDF8C5F89C0300F0D5
:10DAC0006FFC204610B070BD65D801008038002082
:10DAD000347C0200507C02005C7C02006DDD0100A1
:10DAE000637C02006DD8010000E100E067D801000E
:10DAF00037B5084B02AC1B7804F8043D08460D46C8
:10DB000007F08FFE294682B22046FFF7A1FE03B040
:10DB100030BD00BF347C020007B5084602A921F8D9
:10DB2000022DFFF797FE10B99DF8060000E00020D7
:10DB300003B05DF804FB000030B50F4C85B005461E
:10DB40000A462068616801AB03C3217A197000237B
:10DB500001A9C856904204D00133092BF9D1002005
:10DB600007E01046FFF76EFE0028F8D185F89023F5
:10DB7000012005B030BD00BF357C020080F8A01345
:10DB8000704773B50446D0F89C030E4606F084F93E
:10DB900000230546B6024FF47A720093B6FBF2F208
:10DBA0000421D4F89C0306F063F83DB900952B4698
:10DBB0002A460321D4F89C0306F05AF802B070BD3F
:10DBC000B0F8F4034FF6FF73C01A18BF0120704776
:10DBD000B0F8F40308B54FF6FF73984206D013214E
:10DBE000FFF72EFEB0FA80F0400908BD012008BD05
:10DBF000B0F8F4037047B0F8F413FFF7EFB9B0F8DA
:10DC00008E03704710B5064C0021D4F8980305F038
:10DC100029FAD4F894030021BDE8104005F022BA97
:10DC2000303A002073B504460D468E88FFF70EFA91
:10DC3000294604F53770FEF7C5FD04F54D702946F9
:10DC4000FFF7FEFCB4F8F4032B88864205D0102BB6
:10DC500001D01B2B60D1112B01E0112B3DD002D83C
:10DC6000102B0AD058E0122B33D0522B54D1002362
:10DC70001A461946FFF7F0FD4EE0AB7D012B4BD164
:10DC80002B8BB4F88A23A888A4F8F4039A42A4F84A
:10DC90008E3363D8B4F88C2393425FD8D4F8F8332A
:10DCA000002B39D01020FFF703FE0022D4F8F81320
:10DCB000026042720122027202AA4160B4F8F413B7
:10DCC00042F8081D03461068D860184606F05EF951
:10DCD00022E02B89A4F88E331EE0D4F8FC33BBB1CC
:10DCE0001420FFF7E5FD0022D4F8FC130260427215
:10DCF000022202724160B4F8F42300922A7A01925F
:10DD00006A46034603CAD8601961184606F03EF910
:10DD10004FF6FF73A4F8F43394F8893363B1B4F881
:10DD2000F433B34203D14FF6FF739E4204D1294628
:10DD300004F55770FEF7CAFD04F55A763046FFF732
:10DD4000F7F818B129463046FFF7F4F8294604F1F0
:10DD5000DC0002B0BDE87040FFF7A6BA0021FFF773
:10DD60006DFD00289AD002B070BD000030B50E4D98
:10DD700095B000234FF0FF321946D5F8940305F013
:10DD800095F90028F5D047240DF1060102A8ADF859
:10DD90000640FFF765FD20B902A90348FFF742FFDF
:10DDA000F2E70528E5D0EFE7303A002090F8A033FD
:10DDB00013B553B1D0F89C4305F0B4FB00230246E1
:10DDC00000930121204605F053FF02B010BD07B5B6
:10DDD000002300931A460321D0F89C0305F048FF66
:10DDE00003B05DF804FB90F8A03313B1122004F0E7
:10DDF000C7BC704710B5054C2046FFF768FD2046AC
:10DE0000034A0449BDE8104006F062BD303A0020E4
:10DE10008038002019DE010010B5054BC0F8A4338E
:10DE2000044600F56D70FEF7A1FD204610BD00BF51
:10DE3000F87D02004C23038000234360438103816B
:10DE4000CA230373704738B51D46FFF7F3FF4160DF
:10DE500052BA02816DBA9DF910304581037338BD05
:10DE60000180704749BA018152BA4281704770B54A
:10DE7000044688B008460D46FEF721FC1922002111
:10DE800001A806F0E8FD02238DF8063015238DF871
:10DE900007302388ADF804302389ADF81830638942
:10DEA000ADF81A30237B8DF81C30636802AC03F1A7
:10DEB000100618685968224603C20833B342144654
:10DEC000F7D106212846FEF7EFFB192301AAFF210F
:10DED0002846FEF7B3FB08B070BD44DF704745DF4E
:10DEE000704711DF704713DF7047A8DF7047AADF64
:10DEF00070470000F0B59DB00C8807460D460146FE
:10DF000008A8FEF78AFEBDF82030A34240F0B68094
:10DF1000AB79043B022B40F2B180594E3046FFF7FB
:10DF200067FE1022044600210DEB020006F093FD6F
:10DF3000022338468DF81030FEF7C0FE40B940F29B
:10DF4000FD1304A92046ADF81430FFF7CEFF95E08D
:10DF5000002304A92046ADF81430FFF7C6FF2F7B3D
:10DF6000012F40F08B80474D19463E22284606F08F
:10DF700072FD1CAA082322F8623D43493B46204615
:10DF8000FFF7B5FF224631466846FFF731F80098A3
:10DF90002860BDF804209DF80630AB71AA802146A8
:10DFA0003046FFF71BF810B3282303FB046408AACC
:10DFB000618B384600F036FAC8B11AAC94E8030019
:10DFC000324AA980090C2860A97116AD2B4603CBF3
:10DFD000A342106051601D4602F10802F6D108AC60
:10DFE0000FCC2B4D0FC594E8070085E807002548A6
:10DFF000284C4FF6FF7110F8012B82EA112383EAB7
:10E0000013139AB243EA012383EA023383EA4213E9
:10E01000A04299B2EFD11B4B19489987FFF7D8FD61
:10E020001D48FEF7BFFBFF20FFF759FFB120FFF7A8
:10E0300054FF18BBFFF755FF00BB184A136823F0C5
:10E0400001031360164B4FF48002C3F880210124B2
:10E05000420900F01F012032013004FA01F12728A3
:10E0600043F82210F4D14FF010235869FFF73BFF1B
:10E0700020B980F31488586900F0B6F81DB0F0BDDF
:10E08000303A0020807F0020B47F0020877F00206E
:10E09000987F0020BC7F00200C3D002010E000E0B5
:10E0A00000E100E073B505460C496846FFF79EFBAA
:10E0B0002E469DE806002846FFF77AFB084B46F8F7
:10E0C000103B68460749FFF791FB9DE80600304684
:10E0D000FEF770FD284602B070BD00BFCF7D020084
:10E0E000F87D0200DF7D020030B5A3B00446FFF7E3
:10E0F00043FB00284FD112AD29492846FFF776FB94
:10E1000095E8060002A8FEF755FD02A8FEF766FD99
:10E11000042102A8FEF765FD02A81421FEF764FDA4
:10E1200002A8FEF72BFC88BB103418212046FEF70E
:10E1300058FD17212046FEF757FD20461949FEF7E6
:10E1400061FD2046FEF71AFC00BB17496846FFF741
:10E150004DFB9DE806002846FEF72CFD2846FEF7FD
:10E160003DFD02212846FEF73CFD02212846FEF730
:10E170003DFD2846FEF702FC044618B90121284659
:10E18000FEF768FD2846FEF7F1FB00E0044602A812
:10E19000FEF7ECFB00E00446204623B030BD00BF94
:10E1A000047E0200F5DE0100147E0200F0B5034695
:10E1B000186880F308885868FF2464B2EFF3058577
:10E1C000002D01D1A64600472546064621273FBA25
:10E1D000F0B40024002500260027F0B4F92040B256
:10E1E000004700BFF0BD00BFFFF7E0BF0123037091
:10E1F0000023437043608360C3818381704708B507
:10E20000FFF7F4FF08BD10B50446217019B90A20C4
:10E2100004F050FE606010BD037810B5044613B9D9
:10E22000406804F0F3FF2046BDE81040FFF7DEBF72
:10E23000002381608281C3817047037870B50546F1
:10E240000C467BB901236B700023A4024FF47A7251
:10E250001946B4FBF2F2686804F028FF68B94FF081
:10E26000FF340CE003220021012004F005FE686069
:10E270000028E7D14FF0FF3070BDEC89A4B22B78B5
:10E2800000266E701BB1686804F0C0FF6E60204607
:10E2900070BD4078704738B585899542044628BFDF
:10E2A000154619B12A46806806F0AFFBA3682B44D7
:10E2B000A360A3895B1BA381E38915FA83F39BB257
:10E2C000E381284638BD406820B100231A4619462C
:10E2D00004F0FABD7047A9DF7047AADF704700005D
:10E2E00010B4054B054C01290CBF214619465DF8B9
:10E2F000044B07F037BA00BF3D7E0200247E0200C7
:10E3000010B5044605F0B0FB0128204603D1BDE856
:10E31000104006F05BBBBDE8104005F0C9BD10B56C
:10E32000044605F0A1FB0128204603D1BDE81040BA
:10E3300006F054BBBDE8104005F0C6BD2DE9F04124
:10E340008AB00AAD0E46002125F81E1D032307469C
:10E35000904630462A46FFF7C0FFBDF80A00FFF797
:10E36000CFFF0446B8B1014603232A463046FFF7E3
:10E37000B4FF68B94246394603A8FFF7B1FF7022DF
:10E380000092BDF80A300548224603A900F0B2F910
:10E390002046FFF7C4FF0AB0BDE8F081303E002000
:10E3A00010B5074C204600F00FF90649204600F052
:10E3B00031F920460449BDE8104000F02BB900BFF8
:10E3C000303E0020567E02006A7E0200F0B506460E
:10E3D00085B050200D461746FFF792FF0446E8B17E
:10E3E0003946502206F011FB1820FFF789FF0C4A2E
:10E3F0004260002242720322027201960295039447
:10E4000001AA0346046003CAD86010685861184620
:10E41000196105B0BDE8F04005F0B8BD05B0F0BD2C
:10E42000A1E4010010B58AB014460A46014603A8CB
:10E43000FFF756FF002300932246502303A9044808
:10E4400000F02EF9003018BF01200AB010BD00BF47
:10E45000303E00207FB54FF6FF739A4206460D46C8
:10E46000144619D01820FFF74BFF002202604272B9
:10E47000032202720196029503940849416001AAA1
:10E48000034603CAD860106858611846196104B081
:10E49000BDE8704005F07ABD04B070BD3DE30100F9
:10E4A00030B514469BB001280CBF528AE28D0D4650
:10E4B00001460BA8FFF714FF2022002112A806F046
:10E4C000CAFA202312AA29461A48FEF7A3FD0222FF
:10E4D0000BA905A800F05AF905A800F069F918B3CE
:10E4E0005022214605A800F037F99DF848309BB925
:10E4F00094F84910039194F84A10029194F84B1043
:10E50000019194F84C10009194F84D3094F84E20FD
:10E51000094912A807F026F9202212A905A800F03F
:10E520001BF905A800F049F905A800F053F91BB044
:10E5300030BD00BF303A00208D7E020070B58EB035
:10E540000E46014607A8FFF7CBFE012207A901A846
:10E5500000F01CF901A800F02BF908B9002423E011
:10E5600001A800F04CF9B0F17004F7D02046FFF795
:10E57000C7FE05460028F1D0702101A800F059F926
:10E580002246294601A800F081F948B1A2B203232E
:10E5900029463046FFF79FFEB0FA80F4640900E098
:10E5A00004462846FFF7BBFE01A800F006F92CB987
:10E5B0002346224621463046FFF78DFE01A800F093
:10E5C00009F920460EB070BD30B504789BB0054601
:10E5D000ECB90123037003F067FF00F025FC6860CD
:10E5E000A8B9072302AA01A9019302F049FE6860B5
:10E5F00068B902A800F00BFC0128686003D102A8EA
:10E6000000F0F9FB68606C68B4FA84F46409204691
:10E610001BB030BDF8B5074608460D4607F001F9B6
:10E62000441C05F021FA0128204602D106F0CEF95B
:10E6300001E005F03DFC0446284607F0F2F8002111
:10E64000421C20466E1C06F006FA30462F2107F0C9
:10E65000ADF8064648B1421B2946204606F0D5F9DA
:10E66000204600F005FA0136EFE7284600F000FAF0
:10E67000786005F0F9F90128204602D106F0AEF9DC
:10E6800001E005F021FC7868B0FA80F04009F8BD9F
:10E69000024B00225A601A70704700BF303E0020C3
:10E6A000F0B587B005461646684601221F460C9C09
:10E6B00000F06CF8684600F07BF808B9002413E01D
:10E6C0005CB93A463146684600F0E0F8059B6B605D
:10E6D0000446684600F071F806E02146684600F0FE
:10E6E000A8F80028EDD1E9E7684600F073F8204665
:10E6F00007B0F0BDF0B587B005460C9C16466846DD
:10E7000002221F4600F042F86CB93A46314668468C
:10E7100000F022F8059B6B60041C684618BF0124BA
:10E7200000F04BF806E02146684600F082F8044607
:10E730000028EAD1684600F04DF8204607B0F0BD49
:10E7400013B502AB026803F8011D54681946012293
:10E75000A04702B010BD704738B5044600691546A1
:10E7600000F05AF9002860610CBF2846002038BD2F
:10E7700010B504460846114604F1100200F025F9D0
:10E780006061B0FA80F0400910BD000038B54FF468
:10E790007A7500238560054D43600446056003617A
:10E7A0004361FFF7E5FF204638BD00BFBC7E020095
:10E7B0000069003018BF0120704710B50446006999
:10E7C00000F010F900236061B0FA80F02361400985
:10E7D00010BD0000044B10B50360036904460BB183
:10E7E000FFF7EBFF204610BDBC7E020010B50446CB
:10E7F000FFF7F0FF204605F000FE204610BD13B5E0
:10E8000002A90023044641F8043D006900F025F9FF
:10E810006061019802B010BD006900F015B938B50B
:10E820000546FFF7ECFF04462846FFF7F5FF201AE0
:10E8300038BD38B50C1E054604DAFFF7E0FF013499
:10E84000211800E02146286900F0F3F86861B0FA69
:10E8500080F0400938BD70B504460E460569FFF7E3
:10E86000DBFF811B284600F0E4F86061B0FA80F01D
:10E87000400970BD38B50368DB680446984701213C
:10E8800005462046FFF7E7FF284638BD13B5044686
:10E8900002AB1046002243F8042D0A4601462069C7
:10E8A00000F0A9F86061019802B010BD07B501221F
:10E8B0000DF10701FFF7EAFF01280CBF9DF80700E3
:10E8C0004FF0FF3003B05DF804FB000038B504469C
:10E8D00068B1074B1D6845B12146286806F074FFF2
:10E8E00008B9686838BDED68F5E7284638BD38BD19
:10E8F000383E002070B5064605462B4613F8014BFE
:10E9000084B13A2C01D01D46F7E7AD1BEDB2681C6F
:10E9100006F05CF8044628B12A46314606F075F840
:10E9200000236355204670BD38B503461C4613F8D6
:10E93000012B7AB13A2AF9D10134204606F071FF51
:10E94000054606F043F82A46214606F05EF8002206
:10E95000425538BDBDE8384006F048BF0D2070472D
:10E960000D2070470D2070470D2070470D20704717
:10E970000D2070470D2070470D2070470D20704707
:10E980000D2070470D2070470D2070470D207047F7
:10E990000D2070470D20704708B500F093F8024B2A
:10E9A000002808BF184608BD9438002008B5FFF7B6
:10E9B000A1FF10B1FFF78AFF02E000F079F818B963
:10E9C000BDE80840FFF7E8BF08BD70B504460D4636
:10E9D0001646FFF7EBFF3246036829462046BDE89E
:10E9E0007040184710B5044600F07CF84368204694
:10E9F000BDE8104018472DE9F04105460E46174680
:10EA0000984600F06FF8846843463A4631462846F7
:10EA1000A446BDE8F041604770B504460D46164671
:10EA200000F060F83246C36829462046BDE87040D1
:10EA3000184770B504460D4600F054F8294603699E
:10EA40002046BDE87040184710B5044600F04AF86B
:10EA500043692046BDE81040184770B504460D468E
:10EA600000F040F8294683692046BDE87040184709
:10EA700010B50446FFF79AFF436A2046BDE81040F0
:10EA800018470000F8B5094B1F6806463C461D466E
:10EA900034B1F16BE06B06F097FE28B1246CF7E718
:10EAA00037642E602046F8BD0B20F8BD3C3E0020A8
:10EAB000034B186818B1036C002B18BF0020704777
:10EAC0003C3E002038B5064B1C68054634B129464B
:10EAD000E06B06F079FE08B1246CF7E7204638BDFC
:10EAE0003C3E002008B1006870470148704700BFF5
:10EAF0009438002010B5044604F0B6FF01282046E3
:10EB000003D1BDE8104005F069BFBDE8104005F035
:10EB1000DBB910B5044604F0A7FF0128204603D155
:10EB2000BDE8104005F052BFBDE8104005F0C0B987
:10EB3000084808B500234FF0FF321946006804F07A
:10EB4000B5FA28B9044B054A05488C2105F0C6FEE4
:10EB500008BD00BF403E00201D7F0200E37E020092
:10EB60003D7F0200074808B500231A461946006891
:10EB700004F0AAF928B9044B044A0548952105F088
:10EB8000ADFE08BD403E00201D7F0200ED7E02006C
:10EB90003D7F020010B50446FFF7CAFF0CB1636861
:10EBA00033B9074B074A084840F2722105F096FE38
:10EBB0005C68FFF7D7FF2046BDE8104001F066BB58
:10EBC000AD7F02000A7F02003D7F020010B50446BF
:10EBD000FFF7AEFFA468FFF7C5FF204610BD000099
:10EBE000F8B504460D4616461F46FFF7A1FF0CB1C7
:10EBF000606830B9084B094A09484FF4167105F0AE
:10EC00006DFE3B463246294601F0E3FF0446FFF71E
:10EC1000A9FF2046F8BD00BFAD7F0200F97E0200CB
:10EC20003D7F020010B50446FFF782FF204600F04A
:10EC3000D3FD0446FFF796FF204610BD38B50446C5
:10EC40000D46FFF775FF2946204600F0A9FD044652
:10EC5000FFF788FF204638BD70B504460D46FFF724
:10EC600067FF02F005FB60B12046FFF75DFE294615
:10EC7000064600F06BFD044626B13046FFF73AFF2A
:10EC800000E00D24FFF76EFF0CB100232B6020463F
:10EC900070BD10B50446FFF74BFF02F0E9FA28B14A
:10ECA0002046002102F07AFC044600E00D24FFF724
:10ECB00059FF204610BD38B504460D46FFF738FF12
:10ECC00002F0D6FA28B12046294602F011FC04468B
:10ECD00000E00D24FFF746FF204638BD10B504467E
:10ECE000FFF726FF02F0C4FA20B1204602F0EFFB46
:10ECF000044600E00D24FFF735FF204610BD38B56F
:10ED000004460D46FFF714FF2946606801F006FD32
:10ED10000446FFF727FF204638BD38B504460D46A8
:10ED2000FFF706FF2946204600F062FE0446FFF783
:10ED300019FF204638BD70B504460D461646FFF74C
:10ED4000F7FE02F095FA30B120463246294603F02C
:10ED5000A1F8044600E00D24FFF704FF204670BD33
:10ED6000F8B504460D4616461F46FFF7E1FE3B4642
:10ED700032462946204600F04AFE0446FFF7F2FEDE
:10ED80002046F8BD10B5044638B1FFF7D1FE204645
:10ED900000F060FE0446FFF7E5FE204610BD73B5A7
:10EDA00005460C461646FFF7C3FE02F061FA88B12D
:10EDB0002846FFF7B9FD22460146054601A800F0A6
:10EDC000A1FD044668B9019B33607DB12846FFF779
:10EDD00091FE00E00D24FFF7C5FE4CB10023336027
:10EDE00006E0002DF2D1FFF7BDFEF7E7FFF7BAFE10
:10EDF000204602B070BD10B50446FFF799FE2046CC
:10EE000000F03AFF0446FFF7ADFE204610BD10B5F6
:10EE10000446FFF78DFE204602F066FF0446FFF72A
:10EE2000A1FE204610BD000038B500F0F9FB00F04F
:10EE3000E5FB012004F0C8F82B4B186000284ED0E9
:10EE40002A4D2B4C2868FFF755FEA0680001FFF7FC
:10EE500060FE286008B9052038BD264D2868FFF7F8
:10EE600049FE236818205843FFF753FE2860002806
:10EE7000F1D0214D2868FFF73DFE63680C20584310
:10EE8000FFF747FE28600028E5D01C4D2868FFF7F3
:10EE900031FE236924205843FFF73BFE28600028F9
:10EEA000D9D0174D2868FFF725FE60694001FFF7AC
:10EEB00030FE28600028CED0124D2868FFF71AFED9
:10EEC000E0680001FFF725FE28600028C3D002F0AB
:10EED00033F9044628B90C48FFF7D4FD01E00A20B5
:10EEE00038BD204638BD00BF403E0020CC40002049
:10EEF0000C410020D4400020084100203C4000206C
:10EF0000D040002004410020D83800200268094B7E
:10EF10009A420DD14268084B9A4209D18268074B48
:10EF20009A4205D1C36806481B1A58425841704797
:10EF300000207047E2318AB98C42B07F5382E0AC46
:10EF40008EFC85B108B50146FFF7E0FF20B1C87D12
:10EF5000A0F1FF035842584108BD007D431E5842AE
:10EF60005841704738B50C46054618220021204606
:10EF700005F071FD074B08480849094A84E80F006D
:10EF80006B68236101232375AB7B6375AB89E375E4
:10EF900038BD00BF8EFC85B1E2318AB98C42B07FAA
:10EFA0005382E0AC42688068101A70472DE9F04344
:10EFB000164B1E78164B1B6800221433B24221DA1E
:10EFC000571CA3F1140C1D463C46B44217DAAE465A
:10EFD00033F8088CBEF80C90C14505F114050CD12E
:10EFE000DCF80850DEF808309D4235BF048002800E
:10EFF0000A800C800020BDE8F0830134E5E714337B
:10F000003A46DBE70620BDE8F08300BFC840002099
:10F01000D840002008B5044803F0FAF918B10023DD
:10F0200003604360836008BDDC40002010B50446E7
:10F03000406801F03DF928B9054B064A06482B21E6
:10F0400005F04CFC21460548BDE8104003F0F8B936
:10F05000F77F0200B680020022800200DC40002020
:10F0600013B50446FFF7D6FF01A9206001F08AFF1F
:10F070000028F7D1019802B010BD10B51423144632
:10F0800000F0FAFC30B9206801F012F900280CBF3A
:10F090000920002010BDF7B50446008A14300F4641
:10F0A00015460DF1030101AA80B21E4601F08AFF48
:10F0B000C8B91423224601999DF8030000F008FD09
:10F0C00088B9238A33B99DF803302B70019B3360D4
:10F0D000002008E001999DF803003A46143100F041
:10F0E000F7FC0028EFD003B0F0BD000008B583683E
:10F0F0002BB90B4B0B4A0C48D82105F0EFFB0268EB
:10F100005B6852680A6042684B60C3688A8113B9C1
:10F110004FF0FF3300E05B688B60038A0B8208BD11
:10F1200098800200E47F02002280020030B504468D
:10F1300089B048680D4601F0BBF830B9124B134A4C
:10F1400013484FF4AB7105F0C9FB284601F0F8F8FD
:10F1500010B12560062015E002AA0DF10701A8688C
:10F1600000F020FD03AA02999DF80700FFF785FF34
:10F1700040B9BDF81C30BDF8182025606260A06061
:10F18000E060238209B030BDF77F0200CC8002002E
:10F190002280020073B51D4603680C4616460DF129
:10F1A000030101AA986800F0FDFC01999DF8030095
:10F1B0001431214433462A46019100F05DFC02B02F
:10F1C00070BD10B500218468FF2000F0D7FC231A21
:10F1D0005842584110BD000030B5054689B0486816
:10F1E0000C4601F065F830B91D4B1E4A1E484FF41D
:10F1F000C67105F073FB2046FFF7E3FF20B1002046
:10F200002C60A860E86028E002AA0DF10701A06860
:10F2100000F0C8FC03AA02999DF80700FFF72DFF34
:10F22000D8B9BDF81C30BDF818202C60A860E86083
:10F230002B826A60049801F055F8B0FA80F4A86057
:10F240000598431C4FEA541401D1204605E001F013
:10F250005FF8E8600028F8D1012009B030BD00BF98
:10F26000F77F0200EF8002002280020030B587B0F5
:10F27000054601F065F838B1284601F0B5F8284692
:10F28000FFF7D4FE012014E0294601A8FFF7A4FFF0
:10F29000012804460CD8039B23B11A69954204BF88
:10F2A000049A1A61284601F09FF82846FFF7BEFE2F
:10F2B000204607B030BD000010B50446A16959B121
:10F2C0000B684A680BB15A6000E0E2614A68034883
:10F2D000136003F0B5F8F1E710BD00BF84400020D3
:10F2E00010B5044638B1FFF7E7FF21460248BDE8F4
:10F2F000104003F0A5B810BD1840002010B5084814
:10F3000003F086F8044640B12422002105F0A3FB57
:10F310002346002243F8182FE361204610BD00BFAA
:10F320001840002010B5054803F072F8044618B1E3
:10F330002022002105F08FFB204610BD84400020D4
:10F3400008B5FFF7EFFFB8B90C4B5B685B6818684E
:10F3500060B1836943B1FFF7AFFFFFF7E3FF58B92F
:10F36000074B084A3F2104E04368EFE7064B074A92
:10F37000E621074805F0B2FA08BD00BF1C3900209D
:10F38000A9810200EB8102001D890200D1810200E7
:10F390003381020083690BB90B6007E0DB690B6006
:10F3A000C3695B6819680B8BC9690B4413607047AC
:10F3B000094A13682BB199688842196802D00B4634
:10F3C000F8E77047586809B1486000E050605A6833
:10F3D00018461160FFF784BF1C390020F8B5284D8E
:10F3E0002C6807460E4624B1A3689E4243D0246889
:10F3F000F9E7FFF783FF0446E0B96B685B681868BC
:10F4000018B9204B204A802111E0036842680BB1F3
:10F410005A6001E01A494A6042681360FFF760FFD2
:10F42000FFF76CFF044628B9164B174A8821174886
:10F4300005F054FA24220021204605F00CFB314649
:10F4400004F1080001F078FB064670B904F12001D0
:10F45000A06801F039F9064638B92B68236003B972
:10F46000074B5C602C60656005E02046FFF738FFC5
:10F4700000233B6001E03C6000263046F8BD00BF41
:10F480001C390020A88002000A810200338102009A
:10F49000074B10B51C6820464CB1FFF70DFFA16863
:10F4A00004F1080001F048FB08B92468F3E710BD37
:10F4B0001C39002032B100230B60C3694B60196016
:10F4C000C161704783690B600BB1596000E0C16195
:10F4D00040F8181F486070472DE9F043036A89B06F
:10F4E000064689461746002B7BD002AA01A9FFF7E2
:10F4F00051FF029D7DB1019B4B4504D98369D3F82F
:10F500001480DD690BE04D4505D9C3695B681C6853
:10F51000D4F8088004E0B368356AD3F8108000247A
:10F52000019B9D4219D834B1314B324A324840F2E6
:10F53000A91105F0D3F9FFF703FF4146044608304F
:10F54000FFF74AFE00284FD1238BED1A0246E561F2
:10F5500021463046FFF7AEFF00E01CB1E569D4F864
:10F5600014800AE0414603A8FFF736FE00283BD18D
:10F57000BDF81C30DDF81880ED1A4D452BD834BB92
:10F58000FFF7DEFE0DF10C0C044600F1080EBCE89E
:10F590000F00AEE80F00DCF80030CEF80030B369A1
:10F5A000E56163B1F3695A68126892683AB19045AF
:10F5B00005D1002284E80C001C60F46107E03046AD
:10F5C000FFF77AFE002221463046FFF773FF57B15E
:10F5D0003C60002008E0002CA2D063685B681C68D7
:10F5E0009EE7062000E0384609B0BDE8F08300BF82
:10F5F000BD810200238102003381020010B5074C57
:10F60000206850B1036842680BB15A6000E0626044
:10F6100042681360FFF764FEF2E710BD1C3900205A
:10F620000F4B1A680AB964221A605A6812B90C4A58
:10F63000642151609A6812B9094A042191601A69DB
:10F6400012B9074A042111615A6912B9044A4021CA
:10F650005161DB6813B9024B0422DA60704700BFC6
:10F660000C4100202DE9F0410646884617461C460D
:10F67000ACB1B4F5807F254628BF4FF480752B468A
:10F68000094A3946404600F0F7F958B930462A464B
:10F69000054902F00BFF2F440646641BE8E7069B72
:10F6A00020461E80BDE8F081244100200146122240
:10F6B000002002F0FBBEF0B585B005460E461746A9
:10F6C000FFF7F4FF04AC2B8A24F8020D07F11402B3
:10F6D00000943146FFF7C6FF28B9BDF80E006B8ACB
:10F6E000181A18BF012005B0F0BD38B504460D4604
:10F6F000FFF7DCFF228A294602F0D8FE608238BD7F
:10F70000F0B585B005460E461746FFF7CFFF04ACAF
:10F710006B7C24F8020D07F1140200943146FFF7C8
:10F72000A1FF28B9BDF80E006B8A181A18BF012076
:10F7300005B0F0BD38B504460D46FFF7B7FF627C53
:10F74000294602F0B3FE608238BD000073B50E4654
:10F7500001A901F0B1FE0446B0B9019B586800F060
:10F7600095FD98B10C4802F053FE054680B1102279
:10F77000214605F070F90198686000F0E3FF074B3F
:10F78000AC60EC602B603560204602E0042000E0B5
:10F79000052002B070BD00BF40400020D8380020D6
:10F7A00070B50446C0680E4610B963681D6903E071
:10F7B000C56800F0DBFF60B9E56015B9356006206B
:10F7C00070BD284600F0BEFF024B44F8083F002001
:10F7D000346070BDD838002010B5044608B9002048
:10F7E00010BDC06820B9606800F0C0FF60B904E0D7
:10F7F00000F0BCFF0028F6D010BD2146034802F0FF
:10F800001FFE0028EBD00A2010BD00BF40400020A2
:10F810002DE9F04188B0054601A80E4617469846E6
:10F8200000F00AFF044600285AD102AA0DF1030194
:10F8300007F1140001F0C6FB0446002850D1142241
:10F84000FF2103A805F007F9B8F1000F01D0284AFD
:10F8500000E0284A1368591C116003934FF0FF32EF
:10F860000023ADF81830059205B16A68049231465C
:10F8700003A88DF81C308DF81D70FFF75BFF029B0D
:10F880009DF80320314603A800F0F2FE044638BB81
:10F89000019E039B736002999DF8030000F06EF9CE
:10F8A000B060019801230375046135B10146284613
:10F8B00001F0AAF9044698B90AE0039B2BB10E4B5C
:10F8C0000E4A0F487E2105F009F8202101F000FBC7
:10F8D000019800F04DFD0E9B019A1A60002003E094
:10F8E000019800F025FE204608B0BDE8F08100BF79
:10F8F0002842002034420020048202009F8202003D
:10F900002A8202002DE9F041804690078AB00F4616
:10F91000164663D012F00C0303D091075ED50C2B72
:10F920005CD0314802F074FD0546002858D0102202
:10F93000002105F090F8394605A801F078FD03AAEA
:10F9400004A905A801F078FD062804460ED1059B00
:10F95000022B3DD1B2073BD50398002838D02B1D90
:10F9600000939DF820200799002311E080BB049BA1
:10F97000586800F08BFC50BB33070ED5384601F0B9
:10F98000A6FD2B1D9DF82020079903980093234680
:10F99000FFF73EFF0446D8B901E0049B6B6006F018
:10F9A000040303F0FF023BB105F10801686800F0B1
:10F9B000B5FE044660B900E0AA60686800F0C2FEC7
:10F9C0000A4B2E732B600020C8F8005009E0042475
:10F9D0002946054802F034FD204602E0042000E0FC
:10F9E00005200AB0BDE8F08164400020D83800202E
:10F9F00037B504460D46406801A900F08FFE20B9D6
:10FA0000019BAB422CBFA560032003B030BDF0B515
:10FA100085B005460E4617461C4601F029FC90B1FC
:10FA20002B7BDB0711D503AB009332463B46A9681D
:10FA3000686800F0FDFF58B9AB68039A1344AB60E7
:10FA40002CB1226004E00D2002E00C2000E02046F2
:10FA500005B0F0BD10B50446406800F087FE38B927
:10FA60002146044802F0ECFC00280CBF00200A20CC
:10FA700010BD00BF64400020F8B5104D2D788542C0
:10FA80001C4605D80E4B0F4A0F48312104F026FFC3
:10FA90000E4D00EB80002E68800035180C446F6816
:10FAA000BC4209D830580144E87B02F0DDFB002855
:10FAB00014BF02200020F8BD0320F8BDC84000207C
:10FAC000BE82020077830200D8820200D840002064
:10FAD000F8B5124C247884421D4605D8104B114AC3
:10FAE0001148582104F0FAFE104C00EB8000266803
:10FAF000800034180D446768BD420AD8A768B9422F
:10FB000007D330580144E07B02F0CEFB18B9A56062
:10FB1000F8BD0320F8BD0220F8BD00BFC84000209A
:10FB2000BE820200AD820200D8820200D8400020CE
:10FB30002DE9F843089C80460E4691461F46BCB10D
:10FB4000B4F5807F254628BF4FF480752B460A4ABE
:10FB500031464046FFF790FF58B92B46064A3946D2
:10FB60004846FFF7B5FF20B92E442F44641BE6E753
:10FB70002046BDE8F88300BF24410020B1F1807F1A
:10FB800008B505D3044B054A0548A62104F0A6FE96
:10FB900041EA006008BD00BF4E8302006883020096
:10FBA000D8820200030E20F07F400B701060704777
:10FBB0002DE9F041134F00EB80043B68A4001D19B0
:10FBC00086B0064688466A681959E87B02F08CFBC5
:10FBD000A0B9A86069462846FFF7C4F9B8F1000F3C
:10FBE00005D03B681C44FF23A381172300E01823A2
:10FBF0006A4600213046FFF76BFF00E0022006B0A6
:10FC0000BDE8F081D840002030B5164B1B78834208
:10FC100087B004460D4605D8134B144A14482521D5
:10FC200004F05CFE18236A460021FFF725FFB8B9EF
:10FC3000104A126804EB840302EB830368469D813B
:10FC4000FFF780F9014618B92046FFF7B1FF07E03A
:10FC500006AA012302F8015D17212046FFF738FFAD
:10FC600007B030BDC8400020BE820200878302007A
:10FC7000A5830200D84000202DE9F74F3B4E0746F0
:10FC800001F05AFA002333701A4601200C2505FBB7
:10FC900000714C686CB1B0F5807F5ED002EB420120
:10FCA00007EB810149688C4284BFC2B20123013055
:10FCB000EDE703B13270C0B201F0D2F9044600287A
:10FCC0004ED1DFF8B890DFF8B8A0B84605464FF03F
:10FCD000140B99F800309D4223DADAF80000D8F8C6
:10FCE00000200BFB05F143184250D8F8042031786E
:10FCF0005A6098F80820DA738D424FF000029A603B
:10FD00009A7306BFFF229A819D816B1A594259410D
:10FD1000E8B2FFF74DFF08F10C08044600BB0135BF
:10FD2000D7E701F00BF90446D0B9114B0093024616
:10FD300001231049FFF76CFD044688B901F0E8F98A
:10FD4000044668B901F0E2F8044648B901F0ACF99C
:10FD5000044628B9084B1F6004E003B13270042444
:10FD600001F0EAF9204603B0BDE8F08F38400020EA
:10FD7000004100206F940200A4400020C8400020F1
:10FD8000D8400020F0B585B00D4614460DF10B01AA
:10FD900003AA06460068FFF705FF0C4B9DF80B0011
:10FDA0001B68039904EB840203EB820322469F68DD
:10FDB00000953B46FFF7BCFE054620B93946204674
:10FDC000FFF7DCFE3060284605B0F0BDD8400020CB
:10FDD000F0B5044687B00E4617460025B5421AD244
:10FDE0002CB90E4B0E4A0F48842104F077FD2146B2
:10FDF00001A8FFF7F1F978B9BDF8141014313A46AB
:10FE000089B204F10800FFF7BDFF28B9BDF814302E
:10FE1000049C1D44E2E7002007B0F0BDA88002006A
:10FE20001C840200358402002DE9F04F95B0814614
:10FE300015461E46DDF878B011B91A462946B3E0DA
:10FE4000142200210AA804F006FE03F00DFE01288A
:10FE5000284602D104F0BAFD01E004F029F8074673
:10FE6000002800F08F80142200210AA804F0F3FD7E
:10FE7000514B1B680193A8464C46B8F1000F3AD08D
:10FE800021460FA8FFF7A8F9824600287CD1BDF8CB
:10FE90004C30C3EB08080F9B04AA98680DF10F01C2
:10FEA000FFF780FE0499BDF84C309DF80F00143127
:10FEB00007EB08020491FFF7DFFD8246002863D1BB
:10FEC000A1450DD0BBF1000F06D0DBF800309C42FD
:10FED00004BF2368CBF800302046FFF7C7F908E0DD
:10FEE0000DF13C0EBEE80F000AAC0FC4DEF8003086
:10FEF0002360129CC1E7DDF828B0BBF1000F05D1EB
:10FF00002E4B2F4A2F48E82104F0E8FC14224146EA
:10FF10000DEB020004F09FFDDBF8043005930B9B12
:10FF20000133ADF820300C9B5B68069314B94FF099
:10FF3000FF3300E063680793394605A8ADF8245005
:10FF4000FFF7D3FB019A06EB860302EB830A142327
:10FF5000DAF808400DEB030221463046FFF7B8FD02
:10FF6000824688B92B463A4604F114013046FFF721
:10FF7000AFFD824640B921463046FFF7FFFDC9F884
:10FF8000080001E04FF0050A03F06EFD0128384635
:10FF900002D104F023FD01E003F096FFBAF1050F52
:10FFA00005D1324629464846FFF712FF82465046A1
:10FFB00015B0BDE8F08F00BFD8400020A884020033
:10FFC0004E850200358402002DE9F04F814B8249B5
:10FFD0001E78824B0F781B6891B01A4602930590E9
:10FFE000012300248B46B34216DA9F4211D00299B6
:10FFF000906904EB840501EB85056968884207D8A0
:020000022000DC
:10000000A74205D092F82210A87B091A090600D54C
:10001000DCB201331432E6E7A74203D1704B714AD8
:10002000712148E0029B04EB840903EB89093846FF
:1000300099F80C10FFF7E8FD002840F0C780039006
:10004000694B039A1B689D5811E00026D5F8108073
:10005000B2463546B8F1000F7ED041460BA8FFF7F7
:10006000BBF800283CD0002840F0B080089D002D4F
:100070007DD02B686868089300F016F90028F5D049
:1000800009AA0DF11E01A868FFF78CFD9DF81E302E
:10009000A34213D0686800F0FFF80028E6D09BF870
:1000A00000306868049300F0F7F80028CDD14F4B7A
:1000B0004F4A4FF4A9714F4804F010FC29460BA891
:1000C0009BF8008000F038FD38B99DF838104246A2
:1000D000143105F10800FFF755FE0028DAD075E06D
:1000E0000AAA0DF11F01D8F80800FFF75BFD9DF883
:1000F0001F30A3421CD1404ABDF83C301288534403
:10010000002D08BF4546934203D8A84518BF0126D5
:100110001EE008AB00935246049B31462846FFF789
:1001200083FE00289FD1BDF83C30454606460FE0CF
:100130006DB108AB00935246049B31462846FFF749
:1001400073FE00288FD106460346054600E053465D
:10015000DDF838809A467DE7002D87D008AB009304
:100160005246049B31462846FFF75EFE7BE7039B21
:100170000433B3F5806F03937FF462AF029B07EB08
:10018000870703EB8707D9F80830BA689A4204D981
:100190001A4B1B4A40F2FD118DE799F80E300133DE
:1001A00089F80E3001212046FFF702FD70B9059B4A
:1001B0001BB1059A9BF8003013708BF80040FFF7D5
:1001C00067F918B90F4A13680133136011B0BDE81D
:1001D000F08F00BFC840002038400020D8400020E9
:1001E000C18402007F85020030420020E8840200C2
:1001F0006A85020035840200FC400020218502004F
:1002000046850200244200202DE9F843104FDFF814
:10021000449080460E4600253B789D4211DA3046D8
:10022000FFF7D2FE044678B93078D9F8003000EBF9
:10023000800003EB8000FEF7B5FE404504D2013597
:10024000EAE70820BDE8F8832046BDE8F88300BF50
:10025000C8400020D84000200B4B70B51D68C4B2C8
:10026000002255F824100B4663B15E68B04206D1F7
:1002700042B118681060196045F8243002E01A464F
:100280001B68F1E7184670BD30420020B0F1805F76
:100290002CBF00200120704700F17040B0F1E04F0A
:1002A0002CBF002001207047C043C00F70470000E2
:1002B000034B00F1004098428CBF002001207047A2
:1002C000FEFFFF7F064BC2B21B6853F8223023B1FA
:1002D0005A68904201D01B68F9E71846704700BF82
:1002E0003042002008B50346FFF7DEFF28B9054B72
:1002F000054A0648722104F0F1FA1846BDE80840A4
:10030000FFF7AABFBD85020093850200D7850200D2
:1003100008B5074B00F100429A4205D9054B064A41
:1003200006487D2104F0DAFABDE80840FFF794BFE3
:10033000FEFFFF7F4C860200A8850200D7850200E1
:1003400010B500218468FF20FFF718FC231A5842DB
:10035000584110BD10B5FFF7B5FF38B184680021D2
:10036000FF20FFF70BFC231A5842584110BD000034
:10037000416810B504460846FFF7A4FF18B1144BB6
:10038000144A9A2112E0144BCAB21B6853F8220097
:10039000206043F822400846FFF786FF70B1084608
:1003A000FFF7A0FF28B90D4B0A4AA3210C4804F01F
:1003B00095FA4021BDE8104000F08ABD0846FFF7DD
:1003C00081FF18B9074B034AA621EFE710BD00BF14
:1003D00066860200DF860200304200208C86020022
:1003E000D78502009086020038B543680446184657
:1003F000FFF75AFF054618468DB1FFF773FF054614
:1004000018B91C4B1C4AB32106E0402100F06BFDDB
:1004100060B91A4B184AB421194804F05FFAFFF783
:1004200051FF18B9174B144AB621F5E7164B60680F
:100430001A68C1B252F821309C4203D1236842F8B5
:10044000213006E01A68944201D01346FAE7226888
:100450001A60FFF729FF20B11DB14021284600F0A6
:100460003CFD6068FFF72EFF18B1084B024AC2211D
:10047000D2E738BD8C860200F0860200AE8602000C
:10048000D785020090860200304200206686020076
:1004900010B50B4C206804F0A1FA4FF4806004F012
:1004A00095FA206048B1002319462268D1500433E0
:1004B000B3F5806FF9D1002010BD052010BD00BF3D
:1004C0003042002073B516461D46CA18037B9A4277
:1004D0000C4606DD0C4B0D4A0D4840F2D12104F0CC
:1004E000FDF9036801AA0DF103019868FFF75AFBB3
:1004F00001999DF80300143121442B4632460191A5
:10050000FFF7BAFA02B070BDA5870200518702005A
:10051000D587020010B5054801F07AFF044618B1EE
:100520001822002104F097FA204610BDA8400020B0
:1005300010B50446B0B1437D5B0603D50A4B0B4AA8
:10054000382106E04068FFF7AFFE28B9084B074A9C
:100550003921084804F0C2F921460748BDE8104097
:1005600001F06EBF10BD00BF4B8802000E8B020071
:1005700085880200D5870200A840002070B50E468D
:10058000044620B9254B264A4FF4B27105E0037D9D
:1005900033B9244B224A40F26511234804F09EF9F6
:1005A000013BDBB20375002B33D14068FFF774FECB
:1005B000054630B36068FFF76FFEC0B1637D6068C9
:1005C00063F07F036375FFF767FE38B9174B184A6E
:1005D0004FF48671E1E7FEF749FE18B9206900285B
:1005E000F9D104E0012816D1AEB1002323612046E1
:1005F000FEF7DEFE2046FFF7F7FE2046FFF798FFE6
:1006000007E02046FFF7F0FE0A4B1A6822601C60E4
:1006100002E0002500E00546284670BDBF880200C4
:100620003A8B0200CB880200D5870200E8840200E2
:100630002F870200443E002013B50446FFF76AFFEF
:1006400001A9206000F09EFC0028F7D1019802B0BB
:1006500010BD10B514231446FFF70EFA30B9206808
:10066000FFF722FE00280CBF0920002010BD00006B
:100670002DE9F041047C34F0800405468846164696
:100680001F4605D00D4B0E4A0E48782104F026F97E
:100690000246142339463046FFF71AFA48B96B7CF4
:1006A00043B1424607F114013046BDE8F041FFF77F
:1006B0000FBA04462046BDE8F08100BFE78802007B
:1006C000558B0200D587020030B5044687B04068DC
:1006D0000D46FFF7E1FD28B90D4B0E4A0E48962155
:1006E00004F0FCF800232B602169A37569B101A80F
:1006F000FEF772FD50B92A68BDF81430049913440E
:100700002B60A37D0133A375F0E7084607B030BD29
:10071000E884020013870200D587020013B50C4657
:10072000014601A8FEF75AFE10B9019B1B6A23601F
:1007300002B010BD83680BB1586870474FF0FF30AE
:100740007047000008B530B9054B064A064840F22C
:10075000791104F0C3F8037D01330375002008BD4F
:10076000BF880200248B0200D58702000021FFF71A
:1007700005BF000030B5836889B0054633B91E4B0C
:100780001E4A1F4840F2D31104F0A8F802AA0DF146
:100790000701142000F016FC58BB2A686B685168EA
:1007A0000391013380216B608DF81C101269ADF844
:1007B00018304FF0FF33049302B153680593114989
:1007C000002303A88DF81D30FEF7B4FF029B9DF8AF
:1007D00007200C4903A8FFF74BFF2B680446586815
:1007E000FFF75AFD20B12A68537D63F07F035375EC
:1007F000204609B030BD00BF1F890200F28A020006
:10080000D58702006F94020038B503685B7D9B06B4
:10081000044604D4164B174A40F2463105E0856879
:1008200035B9154B134A4FF45271144804F056F879
:100830006868FFF72BFD20B9114B0E4A40F2493191
:10084000F3E72B692268934202D1DB682B6106E053
:10085000D9688A4201D00B46FAE7D268DA60236889
:100860000022DA605A7D22F020025A7538BD00BF9E
:1008700038890200DA8A020029890200D58702003D
:100880007B8902002DE9F843836804460F4616462B
:100890000BB1FFF7B9FF2268537D63F07F035375F7
:1008A00023685868FFF7F2FC78B324682046FFF706
:1008B0009BFD1B4B1A6822601C601D4698462C68E5
:1008C00044B36068FFF7E2FC30B9164B164A17488C
:1008D0004FF4D47104F002F8D8F8003020691B6896
:1008E000C8F8003068B1D0F80C9026B13368834264
:1008F00008BFC6F800903946FFF740FE68B9484681
:10090000F0E72046FFF714FED9E739462068FFF7E5
:1009100035FE10B90020BDE8F883BDE8F88300BFBC
:10092000443E0020AE89020070870200D587020095
:100930002DE9F047057B9542A8BF1546032D2C46AF
:10094000A8BF0324074690460D3022461E4689461E
:1009500004F06FFF30603068C0B9AC4219DAC4EB04
:10096000050ABAF1810F28BF4FF0800A53460C4A9E
:10097000E1B23846FFF7A6FD78B909EB040152460B
:10098000074804F056FF54443060E4E70020BDE817
:10099000F0873B7BC8EB03033360BDE8F08700BF03
:1009A000244100202DE9F047057B0B7B9D4228BFA9
:1009B0001D46032D2C46A8BF0324164680460F462D
:1009C00022460D310D3004F034FF3060306808BB32
:1009D000A54222DDC4EB0509B9F1810F28BF4FF014
:1009E00080095FFA84FA4B460F4A51464046FFF7AA
:1009F00069FDB8B94B460D4A51463846FFF762FDCE
:100A000080B90A494A46A1F1800004F012FF4C4423
:100A10003060DBE70020BDE8F08798F80C303A7BC7
:100A20009B1A3360BDE8F08724410020A4410020D8
:100A30002DE9F74F0C9E0F469A46144622B90EB97F
:100A4000002047E03260FBE701466846FEF7C6FC3F
:100A500000283FD1009B1A6A3C4494420DF10808DB
:100A600028BF1446C7EB040948F8040DA3464D46B9
:100A70005DB3019B2BB10198C3699F420AD8002145
:100A80000AE042460BF1FF310098FEF725FD0028F1
:100A9000F1D01FE0F91A89B2028B1344A342A2EBF2
:100AA000010292B282BFE31AD21892B2AD1A0AEBD7
:100AB00005030830C2EB0B0BFEF76CFB50B9019B32
:100AC0005B685B681B680193D2E7002EB8D0C6F85C
:100AD0000090284603B0BDE8F08F0A460021FFF7DA
:100AE000D1BE0A460121FFF7CDBE10B50446FFF77F
:100AF00041FE014620B92046BDE81040FFF7EDBF9A
:100B000010BD000038B5002185680446FF20FFF7BE
:100B100035F8854205D1637D43F0010363750120FB
:100B200038BD044B1B689C421ABF607D00F0010079
:100B3000002038BD0041002070B5044688B008464A
:100B40000E46FFF7DFFF054638B110220021204690
:100B500003F081FF0625266038E002AA0DF10701A7
:100B6000B068FFF71FF803AA02999DF80700FFF786
:100B700070FD50BB0498BDF818306360431C2660BC
:100B800001D1A56002E0FFF7ADFBA0609DF81D302C
:100B90002373032B0ED873B99DF91C30002B15DA83
:100BA0002268537D63F07F035375737D63F07F0389
:100BB00073750BE0032302999DF8070004F10D0201
:100BC0001431FEF759FF0028E6D00546284608B044
:100BD00070BDF0B585B00E460146684615461F4605
:100BE000FFF7AAFF70B99DF80C40B44228BF06F188
:100BF000FF3423462A4600216846FFF763FC08B904
:100C000028553C7005B0F0BDF0B507468BB0406884
:100C10000C46FFF73BFB20B91E4B1F4A40F21B312D
:100C200006E0637D9B0606D51C4B1B4A4FF44771BB
:100C30001B4803F053FE214602A8FFF77DFF38BB97
:100C40003D690646A5B1A54204D1164B124A40F2B1
:100C50002531EDE7294606A8FFF76EFFC0B901AAC6
:100C600006A902A8FFF79EFE90B9019B002B04DAAB
:100C700036B93B69E3603C6105E02E46ED68E1E78B
:100C8000F368E360F460637D43F020036375002044
:100C90000BB0F0BD7B890200C58A0200E189020029
:100CA000D5870200158A020070B505468CB04068F1
:100CB0000C461646FFF7EAFA60B1214641B18D4273
:100CC00006D007A8FFF738FF00286AD10999F5E791
:100CD0008D4263D0294603A8FFF72EFF002860D17C
:100CE000059B9C420DD013B103A8FFF78DFD0CB9F5
:100CF000059406E003992046FFF786FF0028F7D009
:100D00004FE026B1304604F08CFD044612E002AA02
:100D10000DF10701A8689DF81840FEF743FF0299FE
:100D2000214A9DF8070023461431FEF7A5FE00284E
:100D300037D11D4E04F1140002AA0DF1070180B253
:100D400000F040F9024660BB6B680793049B03A860
:100D50000133ADF82830FFF7EDFC2B6908908DF8D2
:100D60002C208DF82D4013B15B685A1C01D14FF037
:100D7000FF33314607A80993FEF7DCFC029B9DF880
:100D80000720314607A8FFF773FC044640B90299D3
:100D90009DF80700FEF7F2FEA86001E0042000E0E5
:100DA00020460CB070BD00BF2441002070B58CB04F
:100DB0000146054603A8FFF7BFFE0628044609D1F1
:100DC0002846FFF79FFE00285ED1314B314A40F2A2
:100DD00095210CE0002857D10146FF20AE68FEF7B0
:100DE000CDFE864206D12C4B2A4A40F29A212B484E
:100DF00003F074FD02AA0DF10701A8689DF81840E0
:100E0000FEF7D0FE0299264A9DF8070023461431CA
:100E1000FEF732FE002838D10DF1070102AA04F1D5
:100E2000140000F0CFF8014600282ED16B6807931C
:100E3000049B03A80133ADF82830FFF77BFC2B6936
:100E40008DF82C108DF82D4008905868FFF730FA77
:100E500020B9144B0F4A40F2B521C8E72B6910495D
:100E60005B68099307A8FEF765FC029B9DF80720C5
:100E70000B4907A8FFF7FCFB044628B902999DF827
:100E80000700FEF77BFEA86020460CB070BD00BFD7
:100E9000228A020001870200438A0200D5870200ED
:100EA00024410020848A020008B530B9054B064A67
:100EB000064840F2FA4103F011FD407D00F0800049
:100EC00008BD00BFBF8802008F870200D5870200DF
:100ED000437D1943417508467047437D23EA01016C
:100EE000417508467047407D0840704710B504467C
:100EF00002F0BAFD0128204603D1BDE8104003F0FE
:100F00006DBDBDE8104002F0DFBF00001FB50A4B09
:100F1000196861B14B6853B96846FFF70DFE08B117
:100F2000062805D10298003018BF012000E00120FA
:100F300005B05DF804FB00BF0041002030B50E4B4A
:100F40001B78FF2B15D00D4A126803EB830302EBCD
:100F50008303142458680A4B197800238B4206DA5D
:100F600004FB03256D68A84203D30133F6E7002094
:100F700030BD012030BD00BF38400020D8400020E7
:100F8000C840002038B50D460C4C18B10020207028
:100F9000086038BD0A4A21781278013A914202DB92
:100FA00005222A6038BDFFF70FF823782860013347
:100FB0002370B0FA80F0400938BD00BF483E0020E1
:100FC000C84000202DE9F7431F4B204C93F800E068
:100FD0001F4BD4F8008093F800C005460E46174614
:100FE00000234FF0140973450FDA63450BD0D9B2D3
:100FF00009FB018188684A68121AAA4203D3386043
:10100000337000201CE00133EDE70DF107012846A5
:10101000FFF7FAF8A0B99DF80720236802EB8201D8
:1010200003EB810399685B685B1A9D4202D83960C3
:10103000327005E0074B084A0848F12103F04EFCE6
:1010400003B0BDE8F08300BFC8400020D8400020B6
:10105000384000206B8B0200698C0200738B020009
:10106000F8B504460E4D20B92868FFF73FFF2C6005
:1010700010E02F6800EB800602F0F6FCB6000128B5
:101080003146384602D104F029FB01E002F029FF85
:10109000286018B1034B1C700020F8BD0520F8BD76
:1010A000D8400020C840002010B5164B164A1B78C7
:1010B00012681424111D04FB032218324FF0FF3371
:1010C0001431914205D051F8144CA34228BF234655
:1010D000F6E7A3F12C0290420FD8183B5B08143BB3
:1010E000B3F5006F094A28BF4FF4006313801388DB
:1010F000834204D2054B188001E0012010BD00207E
:1011000010BD00BFC8400020D8400020FC40002097
:1011100008B50749074800F041FA38B10B2805D156
:1011200003490448BDE8084000F0C6B908BD00BF47
:1011300060400020E88B020037B5FEF75FFA314BC4
:101140000093314C314BA1681B683148102201F0EB
:1011500013F908B10A2053E02E4B00932E4B21685F
:101160001B682E48182201F007F90028F2D12C4BF9
:1011700000932C4B61681B682B480C2201F0FCF893
:101180000028E7D1294B0093294B21691B68294886
:10119000242201F0F1F80028DCD1274B0093274BE3
:1011A00061691B682648202201F0E6F80028D1D1A9
:1011B000244B0093244BE1681B682448102201F063
:1011C000DBF80028C6D1FFF763F90446B8B9204D13
:1011D0002868FFF78BFE1F4B2C601C701E4B1C6099
:1011E0001E4B1C601E4BFF221A701E4B4FF080528C
:1011F0001A601D4B1C601D4B4FF000421A602046C8
:1012000003B030BDF48B02000C410020CC40002024
:1012100064400020038C0200D4400020A84000203D
:10122000198C020008410020DC4000202F8C0200B5
:101230003C40002018400020458C0200D040002097
:10124000844000205B8C02000441002040400020CC
:10125000D8400020C840002000410020604000200D
:101260003840002034420020284200202C42002038
:10127000024B1868003018BF012070470041002061
:101280002DE9F04F002387B0D1F800900B600C4699
:10129000C0B203A9164601F0E9F80746002877D145
:1012A000039B587801F042FA4FF0FF3B8046CDF89F
:1012B00000B0D8F80C309F421EDAD8F8003004AAEB
:1012C000D3F80CA0394605AB4046D047039B049A9F
:1012D000596891420ED89B680B449A420AD2009BEF
:1012E0001A46B3F1FF3F08BF3B4600932368013322
:1012F0002360BB460137DCE723689945B8BF039AF2
:101300004FF00003B6BF92680193B2FBF9F223607D
:10131000B8BF01924FF0010900274FF00C0A009B63
:101320005B452EDCD8F800300099DB6804AA1D4626
:10133000404605ABA847059BB9F1000F0CD00AFB4E
:1013400007F1039872184078107204987050536037
:1013500023680133236004E00AFB076251680B44F1
:1013600053600AFB0763019A5B689A42009B03F192
:1013700001039ABF01374FF001094FF000090093B4
:10138000CDE723680C2202FB03660020706001E0B9
:101390004FF0FF3007B0BDE8F08FF0B5044687B0DE
:1013A0000D4616461F468CB1214602A8FFF7C4FB26
:1013B00080B901AB3246294602A8FFF7B9FA48B90D
:1013C0000198002801D13C6004E001DD062001E025
:1013D000E468E8E707B0F0BD2DE9F041D0F80080FF
:1013E000B8F1020F044602D10420BDE8F08147683D
:1013F00005697E192F21304604F0D8F940B9B8F1BB
:10140000000FF1D002232360304604F00AFA03E013
:101410000123C01B2360401BB0F5807FE4DCE0604B
:10142000013028442061A6600020BDE8F08100233F
:10143000036041600361704700232DE9F7430546CF
:101440000F460B60164602B113600DF10808DFF875
:10145000649048F8043D2846019CFFF7BDFF30BB6F
:101460002B68012B02D0022B11D0F4E7EA6824B9D3
:10147000E2B9D9F800300193EDE7002AEBD04346FA
:10148000A9682069FFF789FF0028E4D009E06CB162
:10149000EA680AB9019404E001ABA9682069FFF782
:1014A0007CFF019B3B6016B1346000E0062003B076
:1014B000BDE8F083004100207FB50022029001A822
:1014C00001920592FFF7B8FF07B05DF804FB7FB506
:1014D00001A9FFF7F1FF38B9019902A8FFF72CFB2A
:1014E00010B902A8FFF701FB07B05DF804FB00008C
:1014F00010B58EB000230C460A9003AA01A909A8D2
:1015000009930D93FFF798FF00283DD109900D90A6
:1015100004AA02A909A80A94FFF78EFF10B10628B1
:1015200025D031E0019B5868FEF7B0FE029B0446CF
:101530005868FEF7ABFE844201D0042024E00299F3
:1015400005A8FFF7F9FAF8B90198FFF7ADFC20B14B
:101550000E4B0F4A40F219110FE005A8FFF7C5FA2C
:1015600090B90B9A04990198FFF79EFB0CE0049B3D
:1015700033B9084B064A4FF49271074803F0AEF9AD
:10158000099B022BD9D1ECE70EB010BD1D890200DA
:10159000088D0200F68C0200818C020070B58AB0C2
:1015A00003AE00230C46069004AA314605A8059315
:1015B0000993FFF741FF98B1062814D1059B022B30
:1015C00011D1049D7DB19DF820200096012307993B
:1015D0002846FEF71DF930B924B1039B236002E0D1
:1015E0000B2000E020460AB070BD70B505460E46DF
:1015F000FEF790FF044690B145600021FF20FEF702
:10160000BDFA0025A0600121257525612046FFF760
:101610005FFC2046FEF7ACFE3460284670BD052016
:1016200070BD00002DE9F04FAB4BDFF8E0821B6886
:10163000DFF8DCB2142505FB003593B018230190C8
:10164000AB60AE689DF8044014230DAA31462046D5
:10165000FEF712FAD8B90D98FEF726FE08B101235D
:1016600004E00D98FEF724FE40B102230A930A9F7E
:101670008DF82C40012F0C9605D112E00D9B013303
:1016800040F0AB811CE2022F00F0E88092E10328D9
:1016900005D0072803D0012840F012829DE10020E8
:1016A0000EE29DF82C900023324649460DA8049383
:1016B000FEF726F88246002840F079810D98FEF763
:1016C00011FE0446002800F087809DF94430002B6D
:1016D00002DA8021FFF7FCFB62680D9B9A4204D07E
:1016E0007E4B7F4A4FF4D0714DE02046FFF70AFA57
:1016F000A0B910212046FFF7F6FB78B9214605A8CE
:10170000FFF71AFA002840F0D281BDF84030069A5F
:101710009A4203D340F08C800B20C8E12046FFF7AB
:10172000F1F918BB214605A8FFF706FA002840F09A
:10173000BE8110212046FFF7D6FB18B110212046AC
:10174000FFF7CBFB079B13B105A8FFF75DF86368B4
:10175000002B3AD09DF94430002B02DB0E9B013365
:1017600033D180212046FFF7B3FB2EE00221204633
:10177000FFF7B9FB70B16068FEF788FD30B9594BCF
:10178000594A40F23721594803F0A8F8022120466F
:10179000FFF7A3FB08212046FFF7A5FB60B16068B7
:1017A000FEF77AFD20B9524B4F4A40F24121EAE759
:1017B00008212046FFF791FB01212046FFF793FB0C
:1017C00018B101212046FFF788FB31464846FEF755
:1017D000D5F90027A06011E0FEF79CFE0446002822
:1017E00000F0E8800D9A426031464846FEF7C6F99F
:1017F000C4F810A0A0602046FEF7BAFD01232375AF
:101800009DF94430002B03DA80212046FFF760FB6E
:101810000F9B013340F0E5800E98431C40F0188187
:1018200063682BB9334B202120461C60FFF750FB27
:101830006068FEF731FD636838B12F4A11688B424A
:10184000C0F0B88001331360B4E0DBF800209342AD
:10185000C0F0B0800133CBF80030ABE09DF82C70C5
:10186000324639460DA8FDF726FF8246002840F093
:101870009E800D98FEF74CFD0446002859D0014685
:1018800005A8FDF753FC10B1062840F01081204652
:10189000FDF797FCA8B162680D9B9A4204D0174BE4
:1018A000174A4FF44E716EE731463846FEF766F937
:1018B000A0600E98FEF716FD049010B10421FFF70A
:1018C0000CFB05980D9B42689A4223D00D4B0E4AA3
:1018D00040F2F22157E700BFD8400020588D0200A7
:1018E000198D02000D8E0200A68E0200958D020059
:1018F000E88402000041002034420020588E02009B
:10190000DA8E0200458E0200B98E02002C420020C1
:1019100028420020FDF755FC814620B16A4B6B4AF6
:1019200040F2F5212FE7BDF84030069A9A4241D2A5
:10193000BFE0FDF76FFB044600283BD00D9B4360E2
:1019400031463846FEF71AF9A0602046FEF710FD32
:101950000D9BD8F80020934224BF0133C8F8003013
:1019600001265B4BBDF8442019880E98914238BF80
:101970001A80FEF7B7FC049060B904A90E98FFF72F
:1019800034FE824660B908210498FFF7A1FA049B4F
:101990001C610FE08021FFF7A6FA58B14FF0060A4C
:1019A0002EB12046FEF720FD2046FDF73FFBBAF1A1
:1019B000010F12D00A9B012B04D0022B08D1BDF8D5
:1019C000443001E09DF84530AA681433134406E022
:1019D0003D4B404A40F20141D5E6AB680133AB6074
:1019E0002FE66068FEF758FC00283FF415AF0F980B
:1019F000FEF78EFC0646049030B142680F9B9A4277
:101A00007FF40AAF206107E704A8FDF729FBDDF8A2
:101A10001090B9F1000F35D00F9BC9F80430314652
:101A2000FF20FEF7ABF8049BC9F8080004212361EE
:101A30002046FFF74DFA0498FEF79AFC049BD8F86D
:101A400000205B68934224BF0133C8F80030E3E60E
:101A5000FEF748FC039040B121460398FFF7D4F805
:101A600000283FF4DDAE82460EE003A90E98FFF792
:101A7000BCFD022106460398FFF72AFA002EEBD0A0
:101A8000B24601E04FF0050A002F90D040212046D9
:101A9000FFF729FA20B9104B104A40F2D62172E61E
:101AA0002046FEF7A1FC2046FEF742FD7FE7824676
:101AB0007DE731463846FEF761F84E46A06050E7B4
:101AC00013B0BDE8F08F00BF1D890200B98E02007F
:101AD0004A3E00203A8D02004C880200A68E020089
:101AE000F0B500249FB027467A4B1B681E591D197C
:101AF000002E00F0E680336870680293FEF7D4FB96
:101B0000002800F0C5807068FEF7C0FB002848D0B0
:101B10003046FEF7F7FF002843D03369002B40D052
:101B20006D4916A803F05AFE16A803F07AFE16AB0C
:101B300003EB000C0023706819461F464FEA107E25
:101B40005FFA8EF2BEF1000F03D1072F08BF012309
:101B500003E0BEF1090F03D8012330322BB100E0BE
:101B600057320CF80120012301310137082F4FEAC9
:101B70000010E3D100230CF8013016A811A9FFF7DB
:101B80000DFD38B10B2809D104E000221199FFF7AF
:101B90008BF818B930690028F7D102E0002840F02E
:101BA000968004213046FFF79EF910B10127377562
:101BB0005EE008213046FFF796F9074618B1012389
:101BC0003375022754E03046FEF79CFF58B130468B
:101BD000FEF7B8FD337D002B44D1404B404A4148CD
:101BE000CB2102F07BFE73682BB980213046FFF7D2
:101BF0007AF960B910E0314608A8FEF79DFF08B1F8
:101C0000062834D10A9B002BEFD1042730E031465F
:101C100008A8FEF791FF48BB7068FEF73DFB08B9C6
:101C2000074625E03769384607B3FEF789FBB8B9A0
:101C300003AA0DF10701B868FDF7B4FF11AA0399D3
:101C40009DF80700FDF719FA30B9394616A8FDF7D7
:101C5000C3FA08B9199FE6E7012805D0062805D17F
:101C6000072705E0032703E0062701E0002770BBF4
:101C7000314604A8FEF760FF08B1062827D1EFB16E
:101C800002A904A8FEF72DFF08BB2B68029316E0FB
:101C90007068FEF70DFB90B17068FEF75BFB30B922
:101CA00031460CA8FDF798FA28B1062803D0304633
:101CB000FDF7DCFA00E00FB12B6802930027029ECB
:101CC00016E70434B4F5806F7FF40EAF30461FB0D2
:101CD000F0BD00BF304200207C8E0200898E0200E1
:101CE000ED8E0200958D02002DE9F04F8BB0064677
:101CF000FFF722FA002840F0BE80604F604BDFF80B
:101D00008891DFF888A1DFF87C811E60351D38805E
:101D100006F541662B68E3B1AE4278D0182304AAD9
:101D200055F8041C287900F09FFA002871D104A806
:101D3000FDF7ECF858B104A8FDF70FF938B19DF89C
:101D40002730FF2B6AD198F80030FF2B66D00C3576
:101D5000E0E74C4B1A78FF2A1E4644D10DF10A01E8
:101D600002A8FDF723F90446C8BBDFF82481054625
:101D7000D8F800305C59ECB103AA0DF10701A06856
:101D8000D4F80090FDF70EFF9DF80720BDF80A304B
:101D90009A420DD16068FEF78BFA28B12046FDF714
:101DA00065FA044620B11AE010212046FFF790F8AA
